:060000000A128A110E280D
:10000800FE00030EF4000408F5000A08F6000A16BC
:100018008A11AB2A0A128A111128F701F801F9018D
:10002800FA01FB01FC0183120313EE01EF018316B1
:100038000317B001B10183010A168A11572DDD306B
:10004800770605300319780603192B282C2835283C
:10005800DE307706053003197806031D3428352865
:10006800902879087A04031D3A283B2890280A1614
:100078008A15F3270A128A1183160317A001A10112
:100088002108803AFF0080307F02031D4D280A3086
:100098002002031C50285128522888288312031351
:1000A800A401A40A01300A168A115F220A128A11D1
:1000B800AA3083120313A5009830A6000A168A11E5
:1000C80046210A128A1183120313A401A40A0230DA
:1000D8000A168A115F220A128A11F9308312031351
:1000E800A5009830A6000A168A1146210A128A111C
:1000F800831203130516013083160317A00703188C
:10010800A10A0030A10744280A168A15F3270A1203
:100118008A11831203130512D030770607300319AA
:100128007806031998289928AB28D1307706073024
:10013800031978060319A128A228AB28D23077061C
:10014800073003197806031DAA28AB280629790861
:100158007A04031DB028B12806290A168A15F32740
:100168000A128A1183160317A201A3012308803AF1
:10017800FF0080307F02031DC3280A302202031CBF
:10018800C628C728C828FE2883120313A401A40A76
:1001980001300A168A115F220A128A11AA308312C4
:1001A8000313A5009830A6000A168A1146210A12E0
:1001B8008A1183120313A401A40A02300A168A11B1
:1001C8005F220A128A11F93083120313A5009830AE
:1001D800A6000A168A1146210A128A1183120313ED
:1001E8000516013083160317A2070318A30A003067
:1001F800A307BA280A168A15F3270A128A11831246
:1002080003130512C4307706093003197806031959
:100218000E290F292129C5307706093003197806D8
:100228000319172918292129C63077060930031917
:100238007806031D202921297C2979087A04031DC1
:10024800262927297C290A168A15F3270A128A11D2
:1002580083160317A401A5012508803AFF00803002
:100268007F02031D39290A302402031C3C293D2939
:100278003E29742983120313A401A40A01300A1623
:100288008A115F220A128A11AA3083120313A50069
:100298009830A6000A168A1146210A128A1183127A
:1002A8000313A401A40A02300A168A115F220A1253
:1002B8008A11F93083120313A5009830A6000A1694
:1002C8008A1146210A128A11831203130516013076
:1002D80083160317A4070318A50A0030A5073029B9
:1002E8000A168A15F3270A128A11831203130512B4
:1002F8000030A000A1000A168A1136200A128A11BD
:1003080083120313210883160313E50083120313D2
:10031800200883160313E400013083120313A0009E
:100328000030A1000A168A1136200A128A11831297
:100338000313210883160313E7008312031320080D
:1003480083160313E600143083120313AC009930AC
:10035800AD0083160313650883120313AF008316D9
:100368000313640883120313AE008316031367088C
:1003780083120313B1008316031366088312031351
:10038800B000B4300A128A1505200A128A110A3000
:1003980083120313A40001300A168A115F220A127D
:1003A8008A11D93083120313A5009830A6000A16C3
:1003B8008A1146210A128A110B3083120313A400F2
:1003C80001300A168A115F220A128A11B430831288
:1003D8000313A5000030A6000A168A1146210A1246
:1003E8008A11831203131F08C73910389F000F3072
:1003F80083120313D400D40BFF29022A8312031398
:100408001F151F19082A092A052A831603131E080F
:1004180083120313D400D5011E08D600D70156084D
:10042800D700D60154085604A00055085704A10067
:10043800A201A11BA2032208A30001300A168A11F7
:100448009D240A128A1183120313230883160313A7
:10045800D00083120313220883160313CF008312DC
:100468000313210883160313CE00831203132008F5
:1004780083160313CD00443083120313A300803086
:10048800A2000030A1000030A0008316031350081A
:1004980083120313A700831603134F088312031351
:1004A800A600831603134E0883120313A5008316B0
:1004B80003134D0883120313A4000A128A11152688
:1004C8000A128A1183120313230883160313D40014
:1004D80083120313220883160313D3008312031312
:1004E800210883160313D2008312031320088316EE
:1004F8000313D100831203131F08C73918389F004C
:100508000F3083120313D400D40B882A8B2A83124A
:1005180003131F151F19912A922A8E2A1E08831663
:100528000313E3001E08E200540883120313BD00FE
:1005380083160313530883120313BC008316031393
:10054800520883120313BB00831603135108831246
:100558000313BA0083160313620883120313A0005F
:1005680083160313630883120313A1000030A11B31
:10057800FF30A200A30001300A168A119D240A1236
:100588008A11831203132308C1002208C00021081E
:10059800BF002008BE000A128A15BB240A128A115D
:1005A800831203133D0883160313DC00831203131D
:1005B8003C0883160313DB00831203133B088316DE
:1005C8000313DA00831203133A0883160313D900BE
:1005D800403083120313BD004030BC000030BB0024
:1005E8000030BA00831603135C0883120313C1009A
:1005F800831603135B0883120313C00083160313C7
:100608005A0883120313BF00831603135908831271
:100618000313BE000A128A15BB240A128A11831218
:1006280003133D0883160317AB00831203133C081A
:1006380083160317AA00831203133B0883160317B4
:10064800A900831203133A0883160317A800E83099
:1006580083120313AA000330AB00831603172B0879
:1006680083120313A300831603172A0883120313A4
:10067800A20083160317290883120313A100831607
:100688000317280883120313A0000A168A112524C9
:100698000A128A11831203132108AD002008AC0046
:1006A8000A168A11BC230A128A11831203132B0813
:1006B80083160317A700831203132A088316031748
:1006C800A600643083120313AA000030AB0083161F
:1006D80003172B0883120313A300831603172A0892
:1006E80083120313A2008316031729088312031326
:1006F800A10083160317280883120313A0000A1603
:100708008A1125240A128A11831203132008D4009F
:100718002108D5002208D6002308D700831603171E
:10072800270883120313A1008316031726088312D0
:100738000313A0001830A200FC30A3000A168A1187
:1007480081200A128A118312031320085407AC006F
:1007580021080318210A5507AD000A168A11BC237F
:100768000A128A11831203132B08831603179900A0
:10077800831203132A088316031798000A3083127A
:100788000313AA000030AB00831603172B0883124B
:100798000313A300831603172A0883120313A20066
:1007A80083160317290883120313A100831603175E
:1007B800280883120313A0000A168A1125240A1296
:1007C8008A11831203132008D4002108D5002208B7
:1007D800D6002308D70083160317270883120313AC
:1007E800A10083160317260883120313A0001830EC
:1007F800A200FC30A3000A168A1181200A128A116D
:100808008312031320085407D80021080318210A6B
:100818005507D90083160317190883120313A1007B
:1008280083160317180883120313A0009C30A20034
:10083800FF30A3000A168A1181200A128A11831236
:10084800031320085807AC0021080318210A590788
:10085800AD000A168A11BC230A128A1183120313E7
:100868002B0883160313E900831203132A0883163F
:100878000313E8000A3083120313AA000030AB0008
:10088800831603172B0883120313A3008316031779
:100898002A0883120313A200831603172908831258
:1008A8000313A10083160317280883120313A0005B
:1008B8000A168A1125240A128A11831203132108A1
:1008C800AD002008AC000A168A11FE220A128A110D
:1008D800831203132B0883160313EB0083120313ED
:1008E8002A0883160313EA00831203131F08C73963
:1008F80008389F000F3083120313D400D40B822CC6
:10090800852C831203131F151F198B2C8C2C882CF4
:10091800831603131E0883120313D400D5011E087F
:10092800D600D7015608D700D60154085604A000AF
:1009380055085704A100A201A11BA2032208A30085
:1009480001300A168A119D240A128A118312031390
:1009580023088316031797008312031322088316AC
:1009680003179600831203132108831603179500B3
:1009780083120313200883160317940083120313AA
:100988000919C72CC82CF62C0718CB2CCC2CF62C04
:1009980083160317170883120313A300831603177C
:1009A800160883120313A20083160317150883126F
:1009B8000313A10083160317140883120313A0005E
:1009C8000A168A1125240A128A1183120313210D8B
:1009D800210C83160317AF0083120313200C831610
:1009E8000317AE00443083120313BD007A30BC00F5
:1009F8000030BB000030BA004430A3008030A200B1
:100A08000030A1000030A0008316031717088312D6
:100A18000313A70083160317160883120313A600EF
:100A280083160317150883120313A50083160317EB
:100A3800140883120313A4000A128A1115260A1235
:100A48008A11831203132308C1002208C000210859
:100A5800BF002008BE000A128A15BB240A128A1198
:100A6800831203133D0883160313D800831203135C
:100A78003C0883160313D700831203133B0883161D
:100A88000313D600831203133A0883160313D50001
:100A980083120313A401A40A02300A168A115F22E2
:100AA8000A128A111F3083120313A5009930A60079
:100AB8000A168A1146210A128A115F30831203131B
:100AC800AC009930AD008316031358088312031342
:100AD800A30083160313570883120313A200831677
:100AE8000313560883120313A10083160313550832
:100AF80083120313A0000A168A1125240A128A11E8
:100B0800831203132108AF002008AE00EC300A124C
:100B18008A1505200A128A110A3083120313A400C9
:100B280002300A168A115F220A128A11EC308312E7
:100B38000313A5000030A6000A168A1146210A12DE
:100B48008A1183120313A401A40A01300A168A1118
:100B58005F220A128A116A3083120313A5009930A2
:100B6800A6000A168A1146210A128A113D308312FC
:100B78000313AC009930AD008316031727088312BE
:100B88000313AF0083160317260883120313AE005E
:100B980083160317190883120313B100831603176A
:100BA800180883120313B00083160313690883120D
:100BB8000313B30083160313680883120313B200E8
:100BC800831603136B0883120313B50083160313EC
:100BD8006A0883120313B400DD300A128A1505204F
:100BE8000A128A11053083120313A40001300A1671
:100BF8008A115F220A128A11DD3083120313A500BD
:100C08000030A6000A168A1146210A128A11831298
:100C18000313871C122E0A128A15FC290A128A1538
:100C2800232A8312031327088039B1002708A80054
:100C38002807B800A61F212E222E232E3814380884
:100C48000319272E282E382E380A031D2C2E2D2E58
:100C5800352E0030A7000030A6000030A500003077
:100C6800A400A617A701402E0030A7000030A60058
:100C78000030A5000030A40023088039FF007F0859
:100C8800B1062308A8002807B900A21F4C2E4D2E34
:100C98004E2E391439080319522E532E632E390A51
:100CA800031D572E582E602E0030A3000030A200DE
:100CB8000030A1000030A000A217A3016B2E003065
:100CC800A3000030A2000030A1000030A0002308DB
:100CD800220421042004031D722E732E8C2E003052
:100CE800A7000030A6000030A5000030A400803026
:100CF800A6047F30A7043108FF007F08A70427084F
:100D0800A3002608A2002508A1002408A000E32FBC
:100D18003808031D902E912E9A2E0030A300003023
:100D2800A2000030A1000030A000E32F3808A8007E
:100D3800A9012908AB0039082802AA00031CAB0343
:100D48002A087F3EB2002B080318013E003EB3007C
:100D58002708B0002608AF002508AE002408AD001B
:100D68000030A7000030A6000030A5000030A40025
:100D78000030B7000030B6000030B5000030B400D5
:100D8800B901102F39080319CA2ECB2EEB2E0130CA
:100D9800A8000310AD0DAE0DAF0DB00DA80BCD2EF4
:100DA8000130A8000310A40DA50DA60DA70DA80BD2
:100DB800D62EB71FE02EE12EE22E24140130A80013
:100DC8000310B40DB50DB60DB70DA80BE42E23080E
:100DD8003002031DF92E22082F02031DF92E2108C7
:100DE8002E02031DF92E20082D02031CFC2EFD2EB9
:100DF8000C2F37172008AD022108031C210FAE0263
:100E08002208031C220FAF022308031C230FB00281
:100E18000130FF007F08B9071A303902031C152F6B
:100E2800162FC62E30082F042E042D0403191D2F4B
:100E38001E2F3D2F34143D2F0130A8000310A40DA0
:100E4800A50DA60DA70DA80B222FB71F2C2F2D2FF0
:100E58002E2F24140130A8000310B40DB50DB60DC3
:100E6800B70DA80B302FFF30B2070318B30AFF30B5
:100E7800B307A61F402F412F202FB901B71F452FB9
:100E8800462F622FFF303405A800FF303505A90032
:100E9800FF303605AA007F303705AB002B082A043F
:100EA800290428040319592F5A2F5D2FB901B90AAB
:100EB800622F241C602F612F622F5A2F39080319C3
:100EC800662F672F982F0130A407003003180130D0
:100ED800A507003003180130A607003003180130B9
:100EE800A707271C782F792F982F2408A8002508F2
:100EF800A9002608AA002708AB000130AC002B0D7A
:100F0800AB0CAA0CA90CA80CAC0B832F2B08A700C0
:100F18002A08A6002908A5002808A4000130B2075D
:100F28000318B30A0030B3073308803AFF00803053
:100F38007F02031DA12FFF303202031CA42FA52F0F
:100F4800B32FFF3083120313B2000030B300003018
:100F5800A7000030A6000030A5000030A4008312CE
:100F680003133308803AFF0080307F02031DBE2F31
:100F7800013032020318C12FC22FCF2F831203135F
:100F8800B201B3010030A7000030A6000030A50070
:100F98000030A400B101831203133208B800381CD2
:100FA800D62FD72FD92FA617DD2F7F30FF007F0828
:100FB800A6053808A8000310280CA7007F2E0800F3
:100FC80083120313A300861223080A168A116120CC
:100FD8000A128A11831203130616063083120313AA
:100FE800A2002F30A100A10BF72FA20BF72FFC2F87
:080FF800831203130612080026
:10100A0083120313C2002E30BB00E12925304106AA
:10101A000319102811281B28420884004108831349
:10102A0080000130FF007F08C207E129BF01C0012B
:10103A00BE0126283E150130AC070318AD0A003060
:10104A00AD072D08FF002C0884000A168A15002017
:10105A000A128A15B600B7013708003A031936286A
:10106A003B283608303A03191F283B282D08FF0071
:10107A002C0884000A168A1500200A128A150A16F4
:10108A008A1122200A128A15031C4C284D289628F8
:10109A0083120313BF01C0010A3083120313A00095
:1010AA000030A1004008A3003F08A2000A168A11D6
:1010BA0081200A128A15831203132108C00020080E
:1010CA00BF002D08FF002C0884000A168A1500208C
:1010DA000A128A15D03EB600FF3003180030B70056
:1010EA003608BF070318C00A3708C0070130AC0723
:1010FA000318AD0A0030AD072D08FF002C08840044
:10110A000A168A1500200A128A150A168A1122203E
:10111A000A128A15031892289328512896283E17EE
:10112A00BE28831203132D08B7002C08B600AC0A98
:10113A000319AD0A3708FF00360884000A168A1513
:10114A0000200A128A15C100B800B9013908003A0C
:10115A000319B028E1293808003A0319F729643A33
:10116A000319BE280D3A0319BE281C3A03199428FC
:10117A00E1293E1BC128C228DC283B0884008313CE
:10118A000008BC00840A0008BD000230FF007F0886
:10119A00BB07BD1FD128D228E8280330FF007F08EB
:1011AA00BE04BC09BD09BC0A0319BD0AE8283B08EC
:1011BA00840083130008BC00840A0008BD000230C2
:1011CA00FF007F08BB07C101C10A4108B600360704
:1011DA00123E840098300318013EFF000A168A1551
:1011EA0000200A128A15B7000A168A1500200A1268
:1011FA008A15B80038083D02031D052937083C0244
:10120A000318082909290A2914290130FF007F082F
:10121A00C10705304106031D13291429EA283F088E
:10122A004004031919291A2926293E0803390319E2
:10123A001F2920292629FF30BF070318C00AFF30BB
:10124A00C0074008803A803C031D2D293F0841020F
:10125A000318302931293D29831203134108B600A6
:10126A00B7013608BF023708031CC003C002412970
:10127A0083120313BF01C0013E1D44294529702969
:10128A003E08033903194A294B2954294208840084
:10129A002D30831380000130FF007F08C2073F080A
:1012AA004004031959295A299A29420884003030DE
:1012BA00831380000130FF007F08C207FF30BF0799
:1012CA000318C00AFF30C0073F084004031D6E29F7
:1012DA006F295A299A293F08400403197529762942
:1012EA008B29420884002030831380000130FF00DC
:1012FA007F08C207FF30BF070318C00AFF30C007C4
:10130A003F084004031D8A298B2976293E080339A0
:10131A000319902991299A29420884002D308313B0
:10132A0080000130FF007F08C2074108BA00D829AF
:10133A000A30A7000030A8003A08B6003607123E65
:10134A00840098300318013EFF000A168A1500200F
:10135A000A128A15A0000A168A1500200A128A158E
:10136A00A1003D08A3003C08A2000A168A11D22156
:10137A000A128A15831203132108AA002008A90059
:10138A000A168A110A210A128A15831203132708D8
:10139A00303EC100420884004108831380000130B6
:1013AA00FF007F08C207FF30FF007F08BA073A0A2A
:1013BA00031DE029E1299D292D08B7002C08B60054
:1013CA00AC0A0319AD0A3708FF00360884000A166A
:1013DA008A1500200A128A15C1004108031DF62940
:1013EA00F7290B2842088400831380010800091892
:1013FA00FF29002A042A091D032A042A232A0D3058
:10140A00A40002300A168A115F220A128A1547308E
:10141A0083120313A5009930A6000A168A114621E1
:10142A000A128A15653083120313A1009930A200AB
:10143A000A168A118C210A128A15022C091D262ADB
:10144A00272A2B2A09182A2A2B2A332A091D2E2A47
:10145A002F2A892A8918322A332A892A0D30A40088
:10146A0002300A168A115F220A128A15293083125B
:10147A000313A5009930A6000A168A1146210A12FA
:10148A008A150330831603172F02203003192E0200
:10149A000318502A512A022C5030AE070318AF0AFB
:1014AA000030AF0703302F02213003192E02031C2C
:1014BA005F2A602A642A2030AE000330AF00593018
:1014CA0083120313AC009930AD00831603172F085B
:1014DA0083120313AF00831603172E088312031314
:1014EA00AE00BD300A128A1505200A128A15BD30CF
:1014FA0083120313A1000030A2000A168A118C215C
:10150A000A128A15022C022C091C8C2A8D2AC42A3A
:10151A000D30A40002300A168A115F220A128A15B7
:10152A00CD3083120313A5009830A6000A168A113B
:10153A0046210A128A15593083120313AC009930D6
:10154A00AD00831603172F0883120313AF00831607
:10155A0003172E0883120313AE005A300A128A1593
:10156A0005200A128A155A3083120313A10000308B
:10157A00A2000A168A118C210A128A15022C071D4A
:10158A00C72AC82AEF2A8918CB2ACC2AD02A071CAC
:10159A00CF2AD02AEF2A0D30A40002300A168A1167
:1015AA005F220A128A15503083120313A50099305C
:1015BA00A6000A168A1146210A128A156530831274
:1015CA000313A1009930A2000A168A118C210A126B
:1015DA008A15022C071CF22AF32AF72A8918F62AF6
:1015EA00F72AFF2A071CFA2AFB2A902B0918FE2A37
:1015FA00FF2A902B0D30A40002300A168A115F22AE
:10160A000A128A15333083120313A5009930A600F3
:10161A000A168A1146210A128A15831603172E09F9
:10162A0083120313D400831603172F09831203139B
:10163A00D500D40A0319D50A540883160317AC0037
:10164A0083120313550883160317AD002D08803A39
:10165A00FF007C307F02031D342BE1302C02031C77
:10166A00372B382B882AB03083160317AC07031898
:10167A00AD0AFF30AD072D08803AFF007C307F02AB
:10168A00031D492BE0302C0203184C2B4D2B532BF6
:10169A00E03083160317AC00FC30AD008316031745
:1016AA002C0983120313D400831603172D098312FE
:1016BA000313D500D40A0319D50A5408831603174D
:1016CA00AE0083120313550883160317AF0059306F
:1016DA0083120313AC009930AD00831603172D084B
:1016EA0083120313AF00831603172C088312031304
:1016FA00AE00C5300A128A1505200A128A15C530AD
:10170A0083120313A1000030A2000A168A118C2149
:10171A000A128A15022C891C932B942BE42B0D3068
:10172A00A40002300A168A115F220A128A15EB30C7
:10173A0083120313A5009830A6000A168A114621BF
:10174A000A128A15831603172E0983120313D4006B
:10175A00831603172F0983120313D500D40A03191A
:10176A00D50A5408831603179000831203135508E9
:10177A00831603179100593083120313AC00993072
:10178A00AD0083160317110883120313AF008316E3
:10179A000317100883120313AE00A0300A128A1529
:1017AA0005200A128A15A03083120313A100003003
:1017BA00A2000A168A118C210A128A15022C0D30EF
:1017CA00A40002300A168A115F220A128A1507300B
:1017DA0083120313A5009930A6000A168A1146211E
:1017EA000A128A15653083120313A1009930A200E8
:1017FA000A168A118C210A128A1583120313871C6E
:10180A00072C082C142C09180B2C0C2C102C091D35
:10181A000F2C102C142C831203130516B52C071D3C
:10182A00172C182C212C89181B2C1C2C102C071C4B
:10183A001F2C202C212C102C0512B52C871D262C90
:10184A00272C7D2CA401A40A01300A168A115F22D2
:10185A000A128A15373083120313A5009830A6009E
:10186A000A168A1146210A128A1583120313A40141
:10187A00A40A02300A168A115F220A128A151C303B
:10188A0083120313A5009830A6000A168A1146216E
:10189A000A128A15653083120313A1009930A20037
:1018AA000A168A118C210A128A1583120313051645
:1018BA00063083120313D6001330D500AD30D4009E
:1018CA00D40B652CD50B652CD60B652C8312031310
:1018DA000512103083120313D6003930D5000D30AB
:1018EA00D400D40B762CD50B762CD60B762C102C58
:1018FA00081C802C812CB52C6530A1009930A200DF
:10190A000A168A118C210A128A1583120313A4015A
:10191A00A40A01300A168A115F220A128A1569304E
:10192A0083120313A5009830A6000A168A114621CD
:10193A000A128A1583120313A401A40A02300A1692
:10194A008A115F220A128A15513083120313A500E5
:10195A009830A6000A168A1146210A128A155A2CAC
:10196A000A168A11272E0A128A110E2883120313C5
:10197A003D088039C7003D08C2004207CD00BC1FA0
:10198A00C72CC82CC92C4D144D080319CD2CCE2CAC
:10199A00DD2C4D0A031DD22CD32CDB2C0030BD00CC
:1019AA000030BC000030BB000030BA00BC17E52C88
:1019BA000030BD000030BC000030BB000030BA006F
:1019CA0041088039FF007F08C7064108C200420764
:1019DA00CC00C01FF12CF22CF32C4C144C08031928
:1019EA00F72CF82C072D4C0A031DFC2CFD2C052D79
:1019FA000030C1000030C0000030BF000030BE001F
:101A0A00C0170F2D0030C1000030C0000030BF00E9
:101A1A000030BE004C080319132D142D192D4D0842
:101A2A00031D182D192D222D0030BD000030BC00D9
:101A3A000030BB000030BA00FF2F3A08A00040086F
:101A4A000A168A11A8200A128A158312031321087A
:101A5A00D3002008D2005208C200C301C401C50144
:101A6A004508CB004408CA004308C9004208C80018
:101A7A005308C200C301C401C5014508D100440886
:101A8A00D0004308CF004208CE003B08A0003F0820
:101A9A000A168A11A8200A128A158312031321082A
:101AAA00D3002008D2005208C200C301C401C501F4
:101ABA004208C807430803110318013E0319662D9B
:101ACA00C907440803110318013E03196D2DCA07FB
:101ADA00450803110318013E0319742DCB07530857
:101AEA00C200C301C401C5014208CE07430803115D
:101AFA000318013E0319822DCF0744080311031866
:101B0A00013E0319892DD007450803110318013E28
:101B1A000319902DD1073C08A0003E080A168A1125
:101B2A00A8200A128A15831203132108D300200859
:101B3A00D2005208C200C301C401C5014208C80745
:101B4A00430803110318013E0319AC2DC9074408C1
:101B5A0003110318013E0319B32DCA0745080311DF
:101B6A000318013E0319BA2DCB075308C200C3015B
:101B7A00C401C5014208CE07430803110318013EF8
:101B8A000319C82DCF07440803110318013E03198E
:101B9A00CF2DD007450803110318013E0319D62D8E
:101BAA00D1070830C2000310C80DC90DCA0DCB0DEC
:101BBA00C20BD82D3B08A0003E080A168A11A8209D
:101BCA000A128A15831203132108D3002008D200AF
:101BDA005208C2005308C300C401C5014208C8071D
:101BEA00430803110318013E0319FC2DC9074408D1
:101BFA0003110318013E0319032ECA0745080311EE
:101C0A000318013E03190A2ECB073A08A0003F0821
:101C1A000A168A11A8200A128A15831203132108A8
:101C2A00D3002008D2005208C2005308C300C401DE
:101C3A00C5014208C807430803110318013E0319E6
:101C4A00272EC907440803110318013E03192E2E33
:101C5A00CA07450803110318013E0319352ECB079D
:101C6A000830C2000310C80DC90DCA0DCB0DC20B36
:101C7A00372E3A08A0003E080A168A11A8200A122E
:101C8A008A15831203132108D3002008D2005208B0
:101C9A00C2005308C300C401C5014208C80743086B
:101CAA0003110318013E03195B2EC90744080311E7
:101CBA000318013E0319622ECA07450803110318C7
:101CCA00013E0319692ECB073B08A00040080A16FB
:101CDA008A11A8200A128A15831203132108D30035
:101CEA002008D2005208C2005308C300C401C5012B
:101CFA004208CE07430803110318013E0319862E32
:101D0A00CF07440803110318013E03198D2ED0078B
:101D1A00450803110318013E0319942ED1073C0804
:101D2A00A0003F080A168A11A8200A128A158312EF
:101D3A0003132108D3002008D2005208C200530816
:101D4A00C300C401C5014208CE07430803110318A2
:101D5A00013E0319B12ECF07440803110318013EAF
:101D6A000319B82ED007450803110318013E0319B9
:101D7A00BF2ED1073C08A00040080A168A11A820E5
:101D8A000A128A15831203132108D3002008D200ED
:101D9A005208C2005308C300C401C5010830031029
:101DAA00C20DC30DC40DC50DFF3E031DD42E42083E
:101DBA00CE07430803110318013E0319E52ECF0786
:101DCA00440803110318013E0319EC2ED0074508F5
:101DDA0003110318013E0319F32ED1074808C20064
:101DEA004908C3004A08C4004B08C500183003104C
:101DFA00C50CC40CC30CC20CFF3E031DFC2E4208CA
:101E0A00CE07430803110318013E03190D2FCF070C
:101E1A00440803110318013E0319142FD00745087B
:101E2A0003110318013E03191B2FD1070830C20002
:101E3A000310C80DC90DCA0DCB0DC20B1D2F4D08BD
:101E4A004C07C200C301C30D4208823ED2004308B8
:101E5A000318013EFF3ED3004F2F0130C20003108A
:101E6A00CE0DCF0DD00DD10DC20B342FCB1F3E2F6F
:101E7A003F2F402F4E140130C2000310C80DC90D68
:101E8A00CA0DCB0DC20B422FFF30D2070318D30A5B
:101E9A00FF30D307D01F522F532F322FCC01CB1F25
:101EAA00572F582F742FFF304805C200FF304905BD
:101EBA00C300FF304A05C4007F304B05C500450802
:101ECA0044044304420403196B2F6C2F6F2FCC0177
:101EDA00CC0A742F4E1C722F732F742F6C2F4C0840
:101EEA000319782F792FAA2F0130CE070030031853
:101EFA000130CF07003003180130D0070030031833
:101F0A000130D107511C8A2F8B2FAA2F4E08C200ED
:101F1A004F08C3005008C4005108C5000130C6006C
:101F2A00450DC50CC40CC30CC20CC60B952F450835
:101F3A00D1004408D0004308CF004208CE00013047
:101F4A00D2070318D30A0030D3075308803AFF0098
:101F5A0080307F02031DB32FFF305202031CB62FBD
:101F6A00B72FC22F7F3083120313D1008030D000E5
:101F7A000030CF000030CE00F32F83120313530832
:101F8A00803AFF0080307F02031DCD2F01305202BC
:101F9A000318D02FD12FDD2F003083120313D10065
:101FAA000030D0000030CF000030CE00C701F32F40
:101FBA00831203135208CD00FF30CE05FF30CF0540
:101FCA007F30D0050030D1054D1CEC2FED2FEE2FC0
:101FDA00D0174D08C2000310420CD1004708FF0079
:101FEA007F08D1045108BD005008BC004F08BB004F
:061FFA004E08BA000800C9
:1020080083120313A00083160313981C0C280D28B1
:102018000728831203132008990008002430831628
:102028000313980090308312031398000C30831622
:1020380003139900831203139901080083120313F1
:10204800A100A0013A30210203182B282C2834289B
:1020580030302102031C312832283428A001A00A7C
:10206800200C0800831203132008831203178D0025
:10207800831603170C14831203170C088312031317
:10208800A200A3012208A0002308A10008007008EC
:10209800831203178D0072088C00831603170C1522
:1020A8008B1355308D00AA308D008C148B170C11B2
:1020B8008C185F2860285C28080083120313A0008E
:1020C800201C672868286A2886156B288611A01C9A
:1020D8006E286F287128061572280611201D75288C
:1020E80076287828861479288610A01D7C287D28D3
:1020F8007F28061480280610080083120313A40101
:10210800A501201C882889288F282208A4070318DD
:10211800A50A2308A50701300310A20DA30DFF3E51
:10212800031D902801300310A10CA00CFF3E031DD5
:10213800972820082104031DA228A32885282508FC
:10214800A1002408A000080083120313A800A4011A
:10215800A5012008A200A3012208A6002308A700C1
:10216800281CB728B828BE282608A4070318A50ADB
:102178002708A50701300310A60DA70DFF3E031D74
:10218800BF280310A80C2808031DCB28CC28B42886
:102198002508A1002408A000080083120313A40046
:1021A80024080F39A2002408F039A3008616230852
:1021B800A10004300310A10CFF3E031DDE282108F6
:1021C8000A168A1161200A168A1183120313061649
:1021D8000C3083120313A100A10BF0280000831216
:1021E8000313061222080A168A1161200A168A1198
:1021F8008312031306160C3083120313A100A10BDC
:102208000329000083120313061208008312031324
:10221800270828040319112912294129AB01AB0AFF
:10222800202901300310A70DA80DFF3E031D162914
:102238000130FF007F08AB07A81F2329242915298F
:1022480028082A02031D2A2927082902031C2D29E8
:102258002E2934292708A9022808031CAA03AA0240
:1022680001300310A80CA70CFF3E031D35290130CF
:10227800AB02031D4029412924292A08A80029085E
:10228800A700080083120313AA01AB016F292A08CB
:102298002507A8002608A7000318A70AAA1F55297A
:1022A800A703831203132708A9002908FF00280899
:1022B80084000A168A1500200A168A110A168A113D
:1022C800D1200A168A11013083120313AA070318B2
:1022D800AB0A0030AB072A082507A8002608A70084
:1022E8000318A70AAA1F7929A7038312031327082B
:1022F800A9002908FF00280884000A168A1500206A
:102308000A168A11003A031D8A298B294B290800CD
:1023180083120313A601A701B52926082107A400E3
:102328002208A3000318A30AA61F9B29A30383124C
:1023380003132308A5002508FF00240884000A16B3
:102348008A1500200A168A110A168A1104200A160C
:102358008A11013083120313A6070318A70A003055
:10236800A70726082107A4002208A3000318A30A28
:10237800A61FBF29A303831203132308A50025085A
:10238800FF00240884000A168A1500200A168A11FC
:10239800003A031DD029D12991290800831203137B
:1023A800A501A601200821040319DB29DC29132A29
:1023B800A401A40AEA2901300310A00DA10DFF3ED3
:1023C800031DE0290130FF007F08A407A11FED29A4
:1023D800EE29DF2901300310A50DA60DFF3E031DD0
:1023E800EF2921082302031DFB2920082202031CD0
:1023F800FE29FF29062A2008A2022108031CA3039C
:10240800A302251401300310A10CA00CFF3E031DEC
:10241800072A0130A402031D122A132AEE292608CE
:10242800A1002508A0000800F2007208043E8400FC
:1024380001308007840A0318800A7208043E840069
:102448000008F000840A0008F100003071023C30F6
:1024580003197002031C312A322A5E2A7208043ECC
:1024680084008001840A80017208023E84000130E1
:102478008007840A0318800A7208023E8400000854
:10248800F000840A0008F100003071023C300319A2
:102498007002031C502A512A5E2A7208023E8400E8
:1024A8008001840A80017208840001308007840A50
:1024B8000318800A080083120313A6002603031DCD
:1024C800662A672A862A24087F3EA9002908A500CB
:1024D80004300310A50CFF3E031D6D2A2508A70034
:1024E80029080F39A80027080A128A11E4270A16B2
:1024F8008A118312031328080A128A11E4270A167C
:102508008A11AA2A02302606031D8B2A8C2AAA2A97
:102518002408BF3EA9002908A50004300310A50C13
:10252800FF3E031D922A2508A70029080F39A80095
:1025380027080A128A11E4270A168A11831203133C
:1025480028080A128A11E4270A168A1108000B1DA6
:10255800AE2AAF2AF52A0B113D30831203138100EE
:102568000130EE070318EF0A0030EF0720306E063F
:10257800033003196F06031DC22AC32ADE2AEE019F
:10258800EF010030F000F1007808F3007708F2005E
:102598000A168A114B200A168A110130F000003001
:1025A800F1007A08F3007908F2000A168A114B2024
:1025B8000A168A11013083160317B0070318B10AE7
:1025C8000030B107143030063104031DEC2AED2A1F
:1025D800F52AB001B10177300A168A1118220A16B5
:1025E8008A1176088A0075088400740E8300FE0E2E
:1025F8007E0E090083120313AF01AD1F042B052BB8
:102608000C2BAC09AD09AC0A0319AD0AAF01AF0A2E
:10261800AB1F0F2B102B152BAA09AB09AA0A0319FC
:10262800AB0A2A082B0403191A2B1B2B4A2BAE01C1
:10263800AE0A292B01300310AA0DAB0DFF3E031D76
:102648001F2B0130FF007F08AE07AB1F2C2B2D2B53
:102658001E2B2B082D02031D332B2A082C02031CCA
:10266800362B372B3D2B2A08AC022B08031CAD0355
:10267800AD0201300310AB0CAA0CFF3E031D3E2B2C
:102688000130AE02031D492B4A2B2D2B2F080319AD
:102698004E2B4F2B542BAC09AD09AC0A0319AD0ACC
:1026A8002D08AB002C08AA00080000300A168A1171
:1026B80061200A168A111A3083120313A500F73015
:1026C800A400A40B652BA50B652B6A2B03300A12FB
:1026D8008A11E4270A168A11073083120313A5000A
:1026E8007C30A400A40B762BA50B762B00000330BE
:1026F8000A128A11E4270A168A110F30831203136B
:10270800A5004730A400A40B872BA50B872B03300B
:102718000A128A11E4270A168A1102300A128A114B
:10272800E4270A168A1102300A128A11E4270A16C7
:102738008A1108300A128A11E4270A168A11003011
:102748000A128A11E4270A168A110C300A128A1111
:10275800E4270A168A1100300A128A11E4270A1699
:102768008A1106300A128A11E4270A168A1108000B
:1027780083120313AF01AB1FC22BC32BCA2BAA09A9
:10278800AB09AA0A0319AB0AAF01AF0AAD1FCD2BDB
:10279800CE2BD72BAC09AD09AC0A0319AD0A013011
:1027A800FF007F08AF06B001B1012A082B04031906
:1027B800DE2BDF2B162CAE01AE0AED2B01300310F9
:1027C800AA0DAB0DFF3E031DE32B0130FF007F0870
:1027D800AE07AB1FF02BF12BE22B01300310B00D2D
:1027E800B10DFF3E031DF22B2B082D02031DFE2BFE
:1027F8002A082C02031C012C022C092C2A08AC02E2
:102808002B08031CAD03AD02301401300310AB0CD0
:10281800AA0CFF3E031D0A2C0130AE02031D152C25
:10282800162CF12B2F0803191A2C1B2C202CB0095D
:10283800B109B00A0319B10A3108AB003008AA007F
:102848000800031083120313220D230DA900290881
:10285800031D2F2C302C392C0030A3000030A2008F
:102868000030A1000030A0009C2C2008A400210802
:10287800A5002208A6002308A7001F300310A70CF4
:10288800A60CA50CA40CFF3E031D422C2408A8008E
:10289800A217FF30A005FF30A105FF30A2050030C8
:1028A800A3059630A902A91F5A2C5B2C752C290860
:1028B800803A973E0318612C622C632C302C01302F
:1028C8000310A30CA20CA10CA00CFF3E031D642C4A
:1028D8000130FF007F08A907031D732C742C632C9B
:1028E8008C2C20302902031C7A2C7B2C872C302C32
:1028F8000130A4000310A00DA10DA20DA30DA40B7F
:102908007E2C0130A9022908031D8B2C8C2C7C2CD1
:1029180028080319902C912C9C2CA009A109A20924
:10292800A309A00A0319A10A0319A20A0319A30AF1
:10293800080083120313A80028080319A42CA52C47
:10294800B92CA31FA82CA92CB92C2009AA0021094D
:10295800AB002209AC002309AD00AA0A0319AB0A8F
:102968000319AC0A0319AD0AC12C2308AD002208CB
:10297800AC002108AB002008AA0023082204210487
:102988002004031DC82CC92CD22C0030A300003011
:10299800A2000030A1000030A000562D9630A900FA
:1029A800E22C0130FF007F08A90701300310AD0CAD
:1029B800AC0CAB0CAA0CFF3E031DDA2CFE302D0527
:1029C800031DE72CE82CD52C042D0130FF007F08CF
:1029D800A9070130AA07003003180130AB070030FF
:1029E80003180130AC07003003180130AD0701307F
:1029F8000310AD0CAC0CAB0CAA0CFF3E031DFC2C59
:102A0800FF302D05031D092D0A2DE92C162D013047
:102A1800A9020130A4000310AA0DAB0DAC0DAD0D39
:102A2800A40B0F2DAC1B192D1A2D202D02302902B5
:102A380003181F2D202D0B2D2918232D242D2C2D67
:102A4800FF30AA05FF30AB057F30AC05FF30AD0580
:102A58000310A90C2908A400A501A601A701183094
:102A68000310A40DA50DA60DA70DFF3E031D342DC3
:102A78002408AA042508AB042608AC042708AD04DA
:102A880028080319482D492D4E2DA31F4C2D4D2DD7
:102A98004E2DAD172D08A3002C08A2002B08A1006D
:102AA8002A08A000080083160313860105120914DA
:102AB8008914871407150915071487150814851430
:102AC800051585150A168A1159230A168A118316BF
:102AD8000313071387170510851207128712013091
:102AE8008800823083120313D500DD30D400D40B64
:102AF8007B2DD50B7B2D8312031305120030A0000C
:102B0800A1000A168A1136200A168A1183120313A5
:102B18002108F8002008F7000130A0000030A100CB
:102B28000A168A1136200A168A11831203132108FD
:102B3800FA002008F9008316031381128111011588
:102B4800811401148B170B178B160A168A15F32795
:102B58000A168A1183120313A401A40A01300A1663
:102B68008A115F220A168A11BD3083120313A50049
:102B78009830A6000A168A1146210A168A1183126D
:102B88000313A401A40A02300A168A115F220A1646
:102B98008A11DC3083120313A5009830A6000A16A8
:102BA8008A1146210A168A11113083120313A400D0
:102BB80002300A168A115F220A168A116F308312B0
:102BC8000313A5009930A6000A168A1146210A1691
:102BD8008A11063083120313D6001330D500AD30A6
:102BE800D400D40BF52DD50BF52DD60BF52D0A16E3
:102BF8008A15F3270A168A110C30831603139900D5
:102C08000A168A1112200A168A1183160317AE01B2
:102C1800AF01831603139F171F08F03904389F006C
:102C2800831203131F083F3980389F001F14871031
:102C380009110910071107108910013083160317AD
:102C48009200003093008316031712081304031927
:102C58002E2E312E0A168A11852E83120313A401F3
:102C6800A40A01300A168A115F220A168A119630C0
:102C780083120313A5009830A6000A168A1146216C
:102C88000A168A1183120313A401A40A02300A1631
:102C98008A115F220A168A11813083120313A50054
:102CA8009830A6000A168A1146210A168A1103309E
:102CB80083120313D6008A30D5005530D400D40BC4
:102CC800632ED50B632ED60B632E831203130919BB
:102CD800702E0A168A11732E0A128A15B82C091832
:102CE800762E792E0A128A15B82C07187C2E7D2E7E
:102CF800762E8918802E812E762E83160317920140
:102D080093018312031387198A2E8D2E0A128A15AE
:102D1800232C0818902E912E8A2EF4307706031D46
:102D28009A2E78030319992E9A2EAC2EF530770631
:102D3800031DA32E78030319A22EA32EAC2EF63062
:102D48007706031DAB2E7803031DAB2EAC2E072F81
:102D580079037A04031DB12EB22E072F0A168A159D
:102D6800F3270A168A11831603179A019B011B0879
:102D7800803AFF0080307F02031DC42E0A301A02F9
:102D8800031CC72EC82EC92EFF2E83120313A401BD
:102D9800A40A01300A168A115F220A168A11AA307B
:102DA80083120313A5009830A6000A168A1146213B
:102DB8000A168A1183120313A401A40A02300A1600
:102DC8008A115F220A168A11F93083120313A500AB
:102DD8009830A6000A168A1146210A168A1183120B
:102DE800031305160130831603179A0703189B0A65
:102DF80000309B07BB2E0A168A15F3270A168A117C
:102E0800831203130512F4307706031D102F78037D
:102E180003190F2F102F222FF5307706031D192FB6
:102E280078030319182F192F222FF6307706031D60
:102E3800212F7803031D212F222F7D2F79087A0453
:102E4800031D272F282F7D2F0A168A15F3270A1608
:102E58008A11831603179C019D011D08803AFF0003
:102E680080307F02031D3A2F0A301C02031C3D2FBD
:102E78003E2F3F2F752F83120313A401A40A01309C
:102E88000A168A115F220A168A11AA3083120313BE
:102E9800A5009830A6000A168A1146210A168A113A
:102EA80083120313A401A40A02300A168A115F22AE
:102EB8000A168A11F93083120313A5009830A60068
:102EC8000A168A1146210A168A1183120313051657
:102ED8000130831603179C0703189D0A00309D07CD
:102EE800312F0A168A15F3270A168A11831203133B
:102EF8000512E83077060330031978060319852F81
:102F0800862F982FE93077060330031978060319BE
:102F18008E2F8F2F982FEA30770603300319780603
:102F2800031D972F982FF32F79087A04031D9D2FDF
:102F38009E2FF32F0A168A15F3270A168A1183166D
:102F480003179E019F011F08803AFF0080307F020F
:102F5800031DB02F0A301E02031CB32FB42FB52F48
:102F6800EB2F83120313A401A40A01300A168A1155
:102F78005F220A168A11AA3083120313A50098301B
:102F8800A6000A168A1146210A168A11831203130B
:102F9800A401A40A02300A168A115F220A168A11AD
:102FA800F93083120313A5009830A6000A168A1177
:102FB80046210A168A118312031305160130831657
:102FC80003179E0703189F0A00309F07A72F0A16AA
:102FD8008A15F3270A168A11831203130512DC30A7
:102FE80077060530031978060319FD2F0A128A118E
:102FF80023280A128A113528FF1B0A2883137F18F1
:1030080083170008840A0319FF0A08007F087F391C
:103018008A000408840A0319FF0A82000134003474
:103028000A34003464340034E83403341034273468
:1030380020342034203449344C34453452344C3410
:1030480045344D34453420344834413454344134C3
:10305800533449342034203420342034203420346C
:10306800203420340034203420342034463445348D
:1030780045344434203452344134543445342034B3
:103088004534523452344F345234203420342034AE
:1030980020342034203420340034203420342034A8
:1030A80044344F344E344D3445342034483441345C
:1030B80054344134533449342034203420342034B7
:1030C8002034203420342034003420342034203478
:1030D80052344F3454344134543449344F344E34D8
:1030E80020344534523452344F345234203420344E
:1030F80020342034203420340034503455345434AF
:10310800203449345434203449344E342034533430
:1031180054344F34503420345334543441345434B8
:1031280045340034533454344F3450342034443408
:103138005534523455344D3455344E34413420349A
:1031480047344534543449345234003459344134C2
:1031580047342034423441344B3449344D344934B3
:10316800203459344134503449344E3449345A3473
:10317800003455345A344D3441344E344C3441348F
:10318800523420344D3441344B3449344E34413474
:103198000034203446345734443420342034203426
:1031A8002034203420342034203420342034003497
:1031B8007734773477342E3462346F34723476341B
:1031C80065346B342E3463346F346D3400342034FA
:1031D80052344534573420342034203420342034B9
:1031E800203420342034203400344F3449344C34D3
:1031F8002034543448344534203447344534413439
:103208005234533400342034533454344F3450340B
:103218002034203420342034203420342034003426
:103228002534353475346834203425343034323418
:1032380075346D340034463465346534643452343E
:103248006134743465343A340034203446345734A5
:103258004434203431342E3436344B340034203462
:10326800523445345734203431342E3436344B34C8
:1032780000342534753425347534253475342E34AA
:1032880025347534003420344634573444342034DB
:103298004C344D345434003420345234453457348B
:1032A80020344C344D34543400347334253464346D
:1032B8000D340A3400342534303430343334753422
:1032C8000034733430340D340A34003452345034FA
:0C32D8004D343A340034563433340034A2
:103FE60000300A128A11E4270A168A1501300A12CD
:0A3FF6008A11E4270A168A15080054
:02400E00793FF8
:00000001FF
