:060000000A128A110E280D
:10000800FE00030EF4000408F5000A08F6000A16BC
:100018008A118B2C0A128A111128F701F801F901AB
:10002800FA0183160317A801A901AA01AB01AC01C3
:10003800AD01AE01AF01B00183010A128A152E2865
:100048000718272828285228831603171708831209
:100058000313A30083160317160883120313A200C1
:1000680083160317150883120313A10083160317B9
:10007800140883120313A0000A168A11FF240A1217
:100088008A1183120313210D210C83160317A7006D
:1000980083120313200C83160317A600443083121F
:1000A8000313BD007A30BC000030BB000030BA003A
:1000B8004430A3008030A2000030A1000030A0002E
:1000C80083160317170883120313A7008316031751
:1000D800160883120313A600831603171508831244
:1000E8000313A50083160317140883120313A4002F
:1000F8000A168A1131260A128A1183120313230859
:10010800C1002208C0002108BF002008BE000A1252
:100118008A11AE240A128A11831203133D0883162A
:100128000313D800831203133C0883160313D70064
:10013800831203133B0883160313D6008312031399
:100148003A0883160313D50083120313A401A40AE3
:1001580002300A168A115F220A128A113430831279
:100168000313A5009930A6000A168A1119220A124B
:100178008A11743083120313AC009930AD008316D2
:100188000313580883120313A30083160313570895
:1001980083120313A2008316031356088312031352
:1001A800A10083160313550883120313A0000A162F
:1001B8008A11FF240A128A11831203132108AF003F
:1001C8002008AE00EC300A128A1592210A128A1110
:1001D8000A3083120313A40002300A168A115F2220
:1001E8000A128A11EC3083120313A5000030A6000E
:1001F8000A168A1119220A128A1183120313A401FA
:10020800A40A01300A168A115F220A128A117F3065
:1002180083120313A5009930A6000A168A11192221
:100228000A128A11523083120313AC009930AD00C0
:10023800831603171B0883120313AF0083160317D3
:100248001A0883120313AE008316031719088312C2
:100258000313B10083160317180883120313B000A1
:1002680083160313690883120313B3008316031359
:10027800680883120313B200831603136B088312F2
:100288000313B500831603136A0883120313B4001B
:10029800DD300A128A1592210A128A11053083125A
:1002A8000313A40001300A168A115F220A128A1168
:1002B800DD3083120313A5000030A6000A168A1148
:1002C80019220A128A1183120313871C6C296D29BB
:1002D8009A290918702971297529091D7429752900
:1002E8009A2983160317A801A80A0D30831203134D
:1002F800A40002300A168A115F220A128A115C30A1
:1003080083120313A5009930A6000A168A11192230
:100318000A128A117A3083120313A1009930A200BD
:100328000A168A118D210A128A117F2B091D9D290F
:100338009E29A2290918A129A229AA29091DA529A6
:10034800A629002A8918A929AA29002A0D30A4005B
:1003580002300A168A115F220A128A113E3083126D
:100368000313A5009930A6000A168A1119220A1249
:100378008A11033083160317270220300319260237
:100388000318C729C8297F2B5030A6070318A70AC6
:100398000030A70703302702213003192602031C67
:1003A800D629D729DB292030A6000330A7006E30D4
:1003B80083120313AC009930AD0083160317270886
:1003C80083120313AF00831603172608831203133F
:1003D800AE00BD300A128A1592210A128A11BD3068
:1003E80083120313A1000030A2000A168A118D217E
:1003F8000A128A117F2B7F2B091C032A042A3B2A05
:100408000D30A40002300A168A115F220A128A11DE
:10041800E23083120313A5009830A6000A168A1149
:1004280019220A128A116E3083120313AC00993014
:10043800AD0083160317270883120313AF00831632
:100448000317260883120313AE005A300A128A15BE
:1004580092210A128A115A3083120313A100003024
:10046800A2000A168A118D210A128A117F2B071DF4
:100478003E2A3F2A6C2A8918422A432A472A071CFF
:10048800462A472A6C2A83160317A801A80A0D30A2
:1004980083120313A40002300A168A115F220A127B
:1004A8008A11653083120313A5009930A6000A1635
:1004B8008A1119220A128A117A3083120313A100B1
:1004C8009930A2000A168A118D210A128A117F2BEF
:1004D800071C6F2A702A742A8918732A742A7C2A9E
:1004E800071C772A782A0D2B09187B2A7C2A0D2BC2
:1004F8000D30A40002300A168A115F220A128A11EE
:10050800483083120313A5009930A6000A168A11F1
:1005180019220A128A118316031726098312031354
:10052800D40083160317270983120313D500D40AAE
:100538000319D50A540883160317A200831203135C
:10054800550883160317A3002308803AFF007C3060
:100558007F02031DB12AE1302202031CB42AB52A06
:10056800FF29B03083160317A2070318A30AFF3028
:10057800A3072308803AFF007C307F02031DC62AA8
:10058800E03022020318C92ACA2AD02AE03083168A
:100598000317A200FC30A300831603172209831255
:1005A8000313D40083160317230983120313D500FA
:1005B800D40A0319D50A540883160317A600831210
:1005C8000313550883160317A7006E30831203130D
:1005D800AC009930AD008316031723088312031368
:1005E800AF0083160317220883120313AE00C53029
:1005F8000A128A1592210A128A11C530831203132E
:10060800A1000030A2000A168A118D210A128A114F
:100618007F2B891C102B112B612B0D30A40002306D
:100628000A168A115F220A128A11003083120313F4
:10063800A5009930A6000A168A1119220A128A11F1
:1006480083160317260983120313D400831603178E
:10065800270983120313D500D40A0319D50A5408AD
:100668008316031790008312031355088316031784
:1006780091006E3083120313AC009930AD008316DD
:100688000317110883120313AF008316031710080A
:1006980083120313AE00A0300A128A1592210A129F
:1006A8008A11A03083120313A1000030A2000A1699
:1006B8008A118D210A128A117F2B0D30A400023075
:1006C8000A168A115F220A128A111C308312031338
:1006D800A5009930A6000A168A1119220A128A1151
:1006E8007A3083120313A1009930A2000A168A11E6
:1006F8008D210A128A1183120313871C842B852BE0
:10070800912B0918882B892B8D2B091D8C2B8D2B50
:10071800912B831203130516A02B071D942B952BE1
:100728009E2B8918982B992B8D2B071C9C2B9D2B66
:100738009E2B8D2B0512A02B0A128A154029831295
:100748000313871DA82BA92BFF2BA401A40A013092
:100758000A168A115F220A128A113730831203138C
:10076800A5009830A6000A168A1119220A128A11C1
:1007780083120313A401A40A02300A168A115F2205
:100788000A128A111C3083120313A5009830A600A0
:100798000A168A1119220A128A117A30831203134F
:1007A800A1009930A2000A168A118D210A128A1115
:1007B800831203130516063083120313D600133071
:1007C800D500AD30D400D40BE72BD50BE72BD60BD7
:1007D800E72B831203130512103083120313D6007C
:1007E8003930D5000D30D400D40BF82BD50BF82BAD
:1007F800D60BF82B8D2B081C022C032C372C7A30A7
:10080800A1009930A2000A168A118D210A128A11B4
:1008180083120313A401A40A01300A168A115F2265
:100828000A128A11693083120313A5009830A600B2
:100838000A168A1119220A128A1183120313A401B3
:10084800A40A02300A168A115F220A128A1151304C
:1008580083120313A5009830A6000A168A111922DC
:100868000A128A11DC2B831603172803031D3D2C5B
:100878003E2CA02B7A3083120313A1009930A200DA
:100888000A168A118D210A128A1183120313A401F0
:10089800A40A01300A168A115F220A128A118130CD
:1008A80083120313A5009830A6000A168A1119228C
:1008B8000A128A1183120313A401A40A02300A1629
:1008C8008A115F220A128A11963083120313A50037
:1008D8009830A6000A168A1119220A128A11831260
:1008E80003130516063083120313D6001330D50000
:1008F800AD30D400D40B7E2CD50B7E2CD60B7E2CA1
:10090800831203130512063083120313D600133023
:10091800D500AD30D400D40B8F2CD50B8F2CD60B33
:100928008F2C8312031309199A2C9B2CA02B0918BE
:100938009E2C9F2CA02B0718A22CA32CA02B891827
:10094800A62CA72CA02B83160317A801A02B0A12EC
:100958008A110E28831203133D088039C7003D0809
:10096800C2004207CD00BC1FBA2CBB2CBC2C4D14B6
:100978004D080319C02CC12CD02C4D0A031DC52CC1
:10098800C62CCE2C0030BD000030BC000030BB00AF
:100998000030BA00BC17D82C0030BD000030BC00B5
:1009A8000030BB000030BA0041088039FF007F08E2
:1009B800C7064108C2004207CC00C01FE42CE52C42
:1009C800E62C4C144C080319EA2CEB2CFA2C4C0A94
:1009D800031DEF2CF02CF82C0030C1000030C000B3
:1009E8000030BF000030BE00C017022D0030C1002B
:1009F8000030C0000030BF000030BE004C080319B2
:100A0800062D072D0C2D4D08031D0B2D0C2D152D16
:100A18000030BD000030BC000030BB000030BA0020
:100A2800F22F3A08A00040080A128A1505200A1277
:100A38008A11831203132108D3002008D200520818
:100A4800C200C301C401C5014508CB004408CA005F
:100A58004308C9004208C8005308C200C301C401C2
:100A6800C5014508D1004408D0004308CF0042081A
:100A7800CE003B08A0003F080A128A1505200A127A
:100A88008A11831203132108D3002008D2005208C8
:100A9800C200C301C401C5014208C80743080311C5
:100AA8000318013E0319592DC907440803110318F7
:100AB800013E0319602DCA07450803110318013EBA
:100AC8000319672DCB075308C200C301C401C50130
:100AD8004208CE07430803110318013E0319752D78
:100AE800CF07440803110318013E03197C2DD007D2
:100AF800450803110318013E0319832DD1073C084B
:100B0800A0003E080A128A1505200A128A118312CB
:100B180003132108D3002008D2005208C200C301E1
:100B2800C401C5014208C807430803110318013E60
:100B380003199F2DC907440803110318013E03191F
:100B4800A62DCA07450803110318013E0319AD2D48
:100B5800CB075308C200C301C401C5014208CE0730
:100B6800430803110318013E0319BB2DCF0744089E
:100B780003110318013E0319C22DD00745080311BC
:100B88000318013E0319C92DD1070830C20003100C
:100B9800C80DC90DCA0DCB0DC20BCB2D3B08A0004B
:100BA8003E080A128A1505200A128A1183120313B5
:100BB8002108D3002008D2005208C2005308C300FD
:100BC800C401C5014208C807430803110318013EC0
:100BD8000319EF2DC907440803110318013E03192F
:100BE800F62DCA07450803110318013E0319FD2D08
:100BF800CB073A08A0003F080A128A1505200A12F6
:100C08008A11831203132108D3002008D200520846
:100C1800C2005308C300C401C5014208C8074308FD
:100C280003110318013E03191A2EC90744080311BA
:100C38000318013E0319212ECA074508031103189A
:100C4800013E0319282ECB070830C2000310C80D37
:100C5800C90DCA0DCB0DC20B2A2E3A08A0003E08BA
:100C68000A128A1505200A128A1183120313210811
:100C7800D3002008D2005208C2005308C300C401A0
:100C8800C5014208C807430803110318013E0319A8
:100C98004E2EC907440803110318013E0319552EA7
:100CA800CA07450803110318013E03195C2ECB0738
:100CB8003B08A00040080A128A1505200A128A116A
:100CC800831203132108D3002008D2005208C2005F
:100CD8005308C300C401C5014208CE0743080311E5
:100CE8000318013E0319792ECF074408031103188E
:100CF800013E0319802ED007450803110318013E51
:100D08000319872ED1073C08A0003F080A128A154C
:100D180005200A128A11831203132108D300200820
:100D2800D2005208C2005308C300C401C5014208DA
:100D3800CE07430803110318013E0319A42ECF0759
:100D4800440803110318013E0319AB2ED0074508C8
:100D580003110318013E0319B22ED1073C08A00065
:100D680040080A128A1505200A128A1183120313F1
:100D78002108D3002008D2005208C2005308C3003B
:100D8800C401C50108300310C20DC30DC40DC50D43
:100D9800FF3E031DC72E4208CE0743080311031860
:100DA800013E0319D82ECF07440803110318013E4A
:100DB8000319DF2ED007450803110318013E031954
:100DC800E62ED1074808C2004908C3004A08C400F3
:100DD8004B08C50018300310C50CC40CC30CC20C5A
:100DE800FF3E031DEF2E4208CE07430803110318E8
:100DF800013E0319002FCF07440803110318013ED1
:100E08000319072FD007450803110318013E0319DA
:100E18000E2FD1070830C2000310C80DC90DCA0D26
:100E2800CB0DC20B102F4D084C07C200C301C30DD8
:100E38004208823ED20043080318013EFF3ED30019
:100E4800422F0130C2000310CE0DCF0DD00DD10DB1
:100E5800C20B272FCB1F312F322F332F4E140130C7
:100E6800C2000310C80DC90DCA0DCB0DC20B352F1A
:100E7800FF30D2070318D30AFF30D307D01F452FFE
:100E8800462F252FCC01CB1F4A2F4B2F672FFF3022
:100E98004805C200FF304905C300FF304A05C400B9
:100EA8007F304B05C5004508440443044204031938
:100EB8005E2F5F2F622FCC01CC0A672F4E1C652F47
:100EC800662F672F5F2F4C0803196B2F6C2F9D2FF0
:100ED8000130CE07003003180130CF070030031867
:100EE8000130D007003003180130D107511C7D2F85
:100EF8007E2F9D2F4E08C2004F08C3005008C40023
:100F08005108C5000130C600450DC50CC40CC30C02
:100F1800C20CC60B882F4508D1004408D0004308EE
:100F2800CF004208CE000130D2070318D30A0030A0
:100F3800D3075308803AFF0080307F02031DA62F95
:100F4800FF305202031CA92FAA2FB52F7F3083121E
:100F58000313D1008030D0000030CF000030CE0025
:100F6800E62F831203135308803AFF0080307F0274
:100F7800031DC02F013052020318C32FC42FD02FD6
:100F8800003083120313D1000030D0000030CF00AE
:100F98000030CE00C701E62F831203135208CD009C
:100FA800FF30CE05FF30CF057F30D0050030D105AA
:100FB8004D1CDF2FE02FE12FD0174D08C200031082
:100FC800420CD1004708FF007F08D1045108BD003A
:100FD8005008BC004F08BB004E08BA00080000309B
:100FE8000A168A1199200A128A1101300A168A11E2
:080FF80099200A128A11080079
:10100A0083120313A800A401A5012008A200A301CA
:10101A002208A6002308A700281C142815281B2824
:10102A002608A4070318A50A2708A50701300310F4
:10103A00A60DA70DFF3E031D1C280310A80C2808A7
:10104A00031D2828292811282508A1002408A00002
:10105A0008008316031386010512091489148714DC
:10106A00071509150714871508148514051585151C
:10107A000A168A1158230A128A15831603130713AC
:10108A00871705108512071287120130880002306F
:10109A0083120313D6000430D500B930D400D40B20
:1010AA005428D50B5428D60B54285B2883120313D3
:1010BA0005120130A0000030A1000A168A116E2024
:1010CA000A128A1583120313210883160317AC0028
:1010DA0083120313200883160317AB00023083120E
:1010EA000313A0000030A1000A168A116E200A120A
:1010FA008A1583120313210883160317AE0083127D
:10110A000313200883160317AD0003308312031359
:10111A00A0000030A1000A168A116E200A128A1550
:10112A0083120313210883160317B00083120313D3
:10113A00200883160317AF00043083120313A0009C
:10114A000030A1000A168A116E200A128A1583122B
:10115A000313210883160317AA0083120313200816
:10116A0083160317A900831603138112811101152F
:10117A00811401148B170B178B160A128A11F32785
:10118A000A128A1583120313A401A40A01300A164B
:10119A008A115F220A128A15D23083120313A5001C
:1011AA009830A6000A168A1119220A128A15831281
:1011BA000313A401A40A02300A168A115F220A1232
:1011CA008A15F13083120313A5009830A6000A1677
:1011DA008A1119220A128A15113083120313A400E4
:1011EA0002300A168A115F220A128A158430831283
:1011FA000313A5009930A6000A168A1119220A12A9
:10120A008A15063083120313D6001330D500AD3089
:10121A00D400D40B0E29D50B0E29D60B0E290A128F
:10122A008A11F3270A128A150C30831603139900C0
:10123A000A168A114A200A128A1583160317A6016A
:10124A00A701831603139F171F08F03904389F005C
:10125A00831203131F083F3980389F001F14871019
:10126A000911091007110710891001308316031795
:10127A0092000030930083160317A001A101831680
:10128A000317210883120313A100831603172008EA
:10129A0083120313A0000A168A116E200A128A15F5
:1012AA0083120313210883160313E5008312031321
:1012BA00200883160313E400640A6504031D6629E3
:1012CA0067297B2983160317210883120313A100B8
:1012DA0083160317200883120313A0000030A2000C
:1012EA00A3000A168A11B5200A128A15013083163C
:1012FA000317A0070318A10A0030A1072108803AA2
:10130A00FF0080307F02031D8C29FF302002031C5E
:10131A0091290A128A15892B442983120313C200C0
:10132A002E30BB006E2B2530410603199D299E29BC
:10133A00A829420884004108831380000130FF0075
:10134A007F08C2076E2BBF01C001BE01B3293E153B
:10135A000130AC070318AD0A0030AD072D08FF00B5
:10136A002C0884000A168A1500200A128A15B6006B
:10137A00B7013708003A0319C329C8293608303A91
:10138A000319AC29C8292D08FF002C0884000A1665
:10139A008A1500200A128A150A168A115A200A1278
:1013AA008A15031CD929DA29232A83120313BF01B8
:1013BA00C0010A3083120313A4000030A5004008BC
:1013CA00A7003F08A6000A168A11F1200A128A15F8
:1013DA00831203132508C0002408BF002D08FF004C
:1013EA002C0884000A168A1500200A128A15D03E93
:1013FA00B600FF3003180030B7003608BF070318DD
:10140A00C00A3708C0070130AC070318AD0A00301C
:10141A00AD072D08FF002C0884000A168A15002043
:10142A000A128A150A168A115A200A128A150318EC
:10143A001F2A202ADE29232A3E174B2A8312031346
:10144A002D08B7002C08B600AC0A0319AD0A3708F4
:10145A00FF00360884000A168A1500200A128A1527
:10146A00C100B800B9013908003A03193D2A6E2BA8
:10147A003808003A0319842B643A03194B2A0D3AA7
:10148A0003194B2A1C3A0319212A6E2B3E1B4E2A9A
:10149A004F2A692A3B08840083130008BC00840A87
:1014AA000008BD000230FF007F08BB07BD1F5E2A8F
:1014BA005F2A752A0330FF007F08BE04BC09BD09F4
:1014CA00BC0A0319BD0A752A3B0884008313000865
:1014DA00BC00840A0008BD000230FF007F08BB0779
:1014EA00C101C10A4108B6003607123E840098308D
:1014FA000318013EFF000A168A1500200A128A15EF
:10150A00B7000A168A1500200A128A15B800380888
:10151A003D02031D922A37083C020318952A962A8F
:10152A00972AA12A0130FF007F08C107053041062A
:10153A00031DA02AA12A772A3F0840040319A62AD4
:10154A00A72AB32A3E0803390319AC2AAD2AB32ABB
:10155A00FF30BF070318C00AFF30C0074008803AAF
:10156A00803C031DBA2A3F0841020318BD2ABE2A3D
:10157A00CA2A831203134108B600B7013608BF020C
:10158A003708031CC003C002CE2A83120313BF010B
:10159A00C0013E1DD12AD22AFD2A3E080339031969
:1015AA00D72AD82AE12A420884002D3083138000E2
:1015BA000130FF007F08C2073F0840040319E62AEA
:1015CA00E72A272B42088400303083138000013039
:1015DA00FF007F08C207FF30BF070318C00AFF30A9
:1015EA00C0073F084004031DFB2AFC2AE72A272BD1
:1015FA003F0840040319022B032B182B42088400CE
:10160A002030831380000130FF007F08C207FF30BB
:10161A00BF070318C00AFF30C0073F084004031D74
:10162A00172B182B032B3E08033903191D2B1E2BCE
:10163A00272B420884002D30831380000130FF00DD
:10164A007F08C2074108BA00652B0A30A70000309C
:10165A00A8003A08B6003607123E840098300318EC
:10166A00013EFF000A168A1500200A128A15A000F8
:10167A000A168A1500200A128A15A1003D08A3003D
:10168A003C08A2000A168A11D3210A128A1583126B
:10169A0003132108AA002008A9000A168A11512159
:1016AA000A128A15831203132708303EC100420822
:1016BA0084004108831380000130FF007F08C207BD
:1016CA00FF30FF007F08BA073A0A031D6D2B6E2B05
:1016DA002A2B2D08B7002C08B600AC0A0319AD0A4C
:1016EA003708FF00360884000A168A1500200A12F5
:1016FA008A15C1004108031D832B842B98294208AF
:10170A008400831380010800831603171208130448
:10171A000319902B912BE12B831203130919962B92
:10172A00972BA82B09189A2B9B2BA82B07189E2BB3
:10173A009F2BA82B8918A22BA32BA82B8316031740
:10174A0092019301E12BA401A40A01300A168A111D
:10175A005F220A128A15AB3083120313A500983050
:10176A00A6000A168A1119220A128A15831203136D
:10177A00A401A40A02300A168A115F220A128A15E3
:10178A00963083120313A5009830A6000A168A1110
:10179A0019220A128A15033083120313D6008A30DB
:1017AA00D5005530D400D40BD82BD50BD82BD60B5B
:1017BA00D82B0A128A11AB2C831203138719E62B32
:1017CA00E92B0A128A11A32B0818EC2BED2BE62B16
:1017DA00831603172808031DF32BF42BE62B831219
:1017EA0003130919F92BFA2B092C0918FD2BFE2BC7
:1017FA00092C0718012C022C092C8918052C062CF7
:10180A00092C83160317A801023083120313A000C0
:10181A000030A1000A168A116E200A128A15831254
:10182A000313210883160313E70083120313200806
:10183A0083160313E600043083120313A00000305A
:10184A00A1000A168A116E200A128A15831203133E
:10185A002108A5002008A400FA30A6000030A7003D
:10186A000A168A11F1200A128A1583120313240810
:10187A00D4002508D5000130A0000030A1000A16C6
:10188A008A116E200A128A1583120313200854073C
:10189A0083160317A4008312031321080318210ACD
:1018AA00550783160317A500293083120313AC00CA
:1018BA009930AD0083160317250883120313AF006E
:1018CA0083160317240883120313AE008316031327
:1018DA00670883120313B100831603136608831281
:1018EA000313B000B4300A128A1592210A128A151B
:1018FA000A3083120313A40001300A168A115F22E8
:10190A000A128A15EE3083120313A5009830A60036
:10191A000A168A1119220A128A150B308312031326
:10192A00A40001300A168A115F220A128A15B430FD
:10193A0083120313A5000030A6000A168A11192281
:10194A000A128A15F43083120313AA000130AB007D
:10195A0083160317250883120313AD008316031792
:10196A00240883120313AC000A168A11FD220A12F4
:10197A008A15831203132A082B04031DC52CC62CAF
:10198A00CE2C8316031724082504031DCD2CCE2C38
:10199A001E2DF43083120313AA000130AB00831604
:1019AA000317250883120313AD00831603172408AF
:1019BA0083120313AC000A168A11FD220A128A1531
:1019CA00831203132A032B04031DEC2CED2CF52C94
:1019DA008316031724032504031DF42CF52C1E2D4E
:1019EA00F43083120313AA000130AB0083160317E5
:1019FA00250883120313AD008316031724088312E4
:101A0A000313AC000A168A11FD220A128A15023043
:101A1A00831203132A062B04031D142D152D292DB9
:101A2A000230831603172406250403191D2D1E2DC3
:101A3A00292D2D082E04031D232D242D292D0A16A8
:101A4A008A11AB220A128A15831203131F08C73997
:101A5A0010389F000F3083120313D400D40B332D98
:101A6A00362D831203131F151F193C2D3D2D392DB9
:101A7A00831603131E0883120313D400D5011E080C
:101A8A00D600D7015608D700D60154085604A0003C
:101A9A0055085704A100A201A11BA2032208A30012
:101AAA0001300A168A1177250A128A15831203133E
:101ABA00230883160313D000831203132208831604
:101ACA000313CF0083120313210883160313CE00D6
:101ADA0083120313200883160313CD0044308312A4
:101AEA000313A3008030A2000030A1000030A00040
:101AFA0083160313500883120313A70083160313D4
:101B0A004F0883120313A600831603134E08831289
:101B1A000313A500831603134D0883120313A400AD
:101B2A000A168A1131260A128A1583120313230808
:101B3A0083160313D4008312031322088316031394
:101B4A00D30083120313210883160313D2008312CE
:101B5A000313200883160313D100831203131F08EB
:101B6A00C73918389F000F3083120313D400D40BDF
:101B7A00BC2DBF2D831203131F151F19C52DC62D8A
:101B8A00C22D1E0883160313E3001E08E200540840
:101B9A0083120313BD00831603135308831203131E
:101BAA00BC0083160313520883120313BB00831667
:101BBA000313510883120313BA008316031362082E
:101BCA0083120313A00083160313630883120313FB
:101BDA00A1000030A11BFF30A200A30001300A16A9
:101BEA008A1177250A128A15831203132308C10062
:101BFA002208C0002108BF002008BE000A128A116C
:101C0A00AE240A128A15831203133D08831603139E
:101C1A00DC00831203133C0883160313DB008312D0
:101C2A0003133B0883160313DA00831203133A08DB
:101C3A0083160313D900403083120313BD004030CA
:101C4A00BC000030BB000030BA00831603135C08E6
:101C5A0083120313C100831603135B088312031351
:101C6A00C000831603135A0883120313BF00831696
:101C7A000313590883120313BE000A128A11AE24F1
:101C8A000A128A15831203133D08831603179F004D
:101C9A00831203133C08831603179E00831203134F
:101CAA003B08831603179D00831203133A08831611
:101CBA0003179C00E83083120313AA000330AB0019
:101CCA00831603171F0883120313A300831603172F
:101CDA001E0883120313A200831603171D0883121A
:101CEA000313A100831603171C0883120313A00011
:101CFA000A168A11FF240A128A158312031321086D
:101D0A00AD002008AC000A168A1122240A128A158C
:101D1A00831203132B08831603179B0083120313E2
:101D2A002A08831603179A00643083120313AA0041
:101D3A000030AB00831603171F0883120313A30096
:101D4A00831603171E0883120313A20083160317B0
:101D5A001D0883120313A100831603171C0883129C
:101D6A000313A0000A168A11FF240A128A15831285
:101D7A0003132008D4002108D5002208D60023081E
:101D8A00D700831603171B0883120313A5008316B3
:101D9A0003171A0883120313A4001830A600FC3094
:101DAA00A7000A168A11F1200A128A158312031350
:101DBA0024085407AC0025080318250A5507AD0066
:101DCA000A168A1122240A128A15831203132B086F
:101DDA00831603179900831203132A08831603171D
:101DEA0098000A3083120313AA000030AB0083164E
:101DFA0003171F0883120313A300831603171E0871
:101E0A0083120313A200831603171D0883120313F8
:101E1A00A100831603171C0883120313A0000A16D5
:101E2A008A11FF240A128A15831203132008D40088
:101E3A002108D5002208D6002308D70083160317E5
:101E4A001B0883120313A500831603171A088312AB
:101E5A000313A4001830A600FC30A7000A168A1142
:101E6A00F1200A128A158312031324085407D80092
:101E7A0025080318250A5507D900831603171908D8
:101E8A0083120313A500831603171808831203137A
:101E9A00A4009C30A600FF30A7000A168A11F12080
:101EAA000A128A158312031324085807AC0025085E
:101EBA000318250A5907AD000A168A1122240A12A4
:101ECA008A15831203132B0883160313E90083125E
:101EDA0003132A0883160313E8000A308312031334
:101EEA00AA000030AB00831603171F0883120313DE
:101EFA00A300831603171E0883120313A200831676
:101F0A0003171D0883120313A100831603171C0865
:101F1A0083120313A0000A168A11FF240A128A15D3
:101F2A00831203132108AD002008AC000A168A1197
:101F3A00FD220A128A15831203132B088316031330
:101F4A00EB00831203132A0883160313EA00831291
:101F5A0003131F08C73908389F000F308312031371
:101F6A00D400D40BB62FB92F831203131F151F19D0
:101F7A00BF2FC02FBC2F831603131E08831203130F
:101F8A00D400D5011E08D600D7015608D700D601BD
:101F9A0054085604A00055085704A100A201A11B29
:101FAA00A2032208A30001300A168A1177250A1211
:101FBA008A158312031323088316031797008312C3
:101FCA0003132208831603179600831203132108AA
:101FDA008316031795008312031320088316031729
:101FEA009400831203130919FD2F0A128A11242857
:061FFA000A128A115228B0
:1020780083120313A00083160313981C44284528D1
:102088003F28831203132008990008002430831680
:102098000313980090308312031398000C308316B2
:1020A8000313990083120313990108008312031381
:1020B800A100A0013A3021020318632864286C2883
:1020C80030302102031C69286A286C28A001A00A64
:1020D800200C0800831203132008831203178D00B5
:1020E800831603170C14831203170C0883120313A7
:1020F800A200A3012208A0002308A100080070087C
:10210800831203178D0072088C00831603170C15B1
:102118008B1355308D00AA308D008C148B170C1141
:102128008C18972898289428080083120313A30072
:10213800861223080A168A11D1200A168A118312D8
:1021480003130616063083120313A2002F30A100D2
:10215800A10BAC28A20BAC28B128831203130612DA
:102168000800831203132008831203178D008312BB
:1021780003132208831203178C00831603170C1508
:102188008B1355308D00AA308D008C148B170C11D1
:102198008C18CF28D028CC28080083120313A0005D
:1021A800201CD728D828DA288615DB288611A01CF9
:1021B800DE28DF28E1280615E2280611201DE5287B
:1021C800E628E8288614E9288610A01DEC28ED28C2
:1021D800EF280614F0280610080083120313A8013C
:1021E800A901241CF828F928FF282608A80703189D
:1021F800A90A2708A90701300310A60DA70DFF3E5D
:10220800031D002901300310A50CA40CFF3E031D7B
:10221800072924082504031D12291329F52829084C
:10222800A5002808A400080083120313A4002408AA
:102238000F39A2002408F039A30086162308A1004C
:1022480004300310A10CFF3E031D252921080A169E
:102258008A11D1200A168A118312031306160C302C
:1022680083120313A100A10B372900008312031363
:10227800061222080A168A11D1200A168A11831218
:10228800031306160C3083120313A100A10B4A296D
:102298000000831203130612080083120313270891
:1022A80028040319582959298829AB01AB0A672939
:1022B80001300310A70DA80DFF3E031D5D29013055
:1022C800FF007F08AB07A81F6A296B295C2928082B
:1022D8002A02031D712927082902031C742975295C
:1022E8007B292708A9022808031CAA03AA0201308F
:1022F8000310A80CA70CFF3E031D7C290130AB027C
:10230800031D872988296B292A08A8002908A700FE
:10231800080083120313A601A701B629260821077E
:10232800A4002208A3000318A30AA61F9C29A3033C
:10233800831203132308A5002508FF00240884003E
:102348000A168A1500200A168A110A168A113C20D4
:102358000A168A11013083120313A6070318A70A65
:102368000030A70726082107A4002208A3000318A5
:10237800A30AA61FC029A303831203132308A500D9
:102388002508FF00240884000A168A1500200A166A
:102398008A11003A031DD129D229922908008312F3
:1023A8000313A501A601200821040319DC29DD294E
:1023B800142AA401A40AEB2901300310A00DA10DD1
:1023C800FF3E031DE1290130FF007F08A407A11F7C
:1023D800EE29EF29E02901300310A50DA60DFF3ED7
:1023E800031DF02921082302031DFC2920082202CD
:1023F800031CFF29002A072A2008A2022108031C1F
:10240800A303A302251401300310A10CA00CFF3E66
:10241800031D082A0130A402031D132A142AEF29D8
:102428002608A1002508A000080083120313AA01AA
:10243800AB01422A2A082507A8002608A700031886
:10244800A70AAA1F282AA703831203132708A9008B
:102458002908FF00280884000A168A1500200A1691
:102468008A110A168A1118210A168A110130831254
:102478000313AA070318AB0A0030AB072A0825077D
:10248800A8002608A7000318A70AAA1F4C2AA70312
:10249800831203132708A9002908FF0028088400CD
:1024A8000A168A1500200A168A11003A031D5D2AA9
:1024B8005E2A1E2A080083120313A6002603031DA2
:1024C800662A672A862A24087F3EA9002908A500CB
:1024D80004300310A50CFF3E031D6D2A2508A70034
:1024E80029080F39A80027080A168A1199200A1600
:1024F8008A118312031328080A168A1199200A16CA
:102508008A11AA2A02302606031D8B2A8C2AAA2A97
:102518002408BF3EA9002908A50004300310A50C13
:10252800FF3E031D922A2508A70029080F39A80095
:1025380027080A168A1199200A168A11831203138A
:1025480028080A168A1199200A168A1108000A1200
:102558008A11F3270A168A1183120313AC01AD01FD
:1025680083120313A401A40A01300A168A115F22F8
:102578000A168A11BF3083120313A5009830A600EB
:102588000A168A1119220A168A1183120313A40142
:10259800A40A02300A168A115F220A168A110E301E
:1025A80083120313A5009930A6000A168A1119226E
:1025B8000A168A118312031305160130AC07031893
:1025C800AD0A0030AD072D08803AFF0080307F0249
:1025D800031DF02A0A302C02031CF32AF42AB42A19
:1025E8000A128A11F3270A168A1183120313051295
:1025F800080083120313AF01AD1F032B042B0B2B11
:10260800AC09AD09AC0A0319AD0AAF01AF0AAB1F9B
:102618000E2B0F2B142BAA09AB09AA0A0319AB0A14
:102628002A082B040319192B1A2B492BAE01AE0AC1
:10263800282B01300310AA0DAB0DFF3E031D1E2BE6
:102648000130FF007F08AE07AB1F2B2B2C2B1D2B57
:102658002B082D02031D322B2A082C02031C352BB4
:10266800362B3C2B2A08AC022B08031CAD03AD0209
:1026780001300310AB0CAA0CFF3E031D3D2B0130AB
:10268800AE02031D482B492B2C2B2F0803194D2B69
:102698004E2B532BAC09AD09AC0A0319AD0A2D0812
:1026A800AB002C08AA00080000300A168A11D120B5
:1026B8000A168A111A3083120313A500F730A400F2
:1026C800A40B642BA50B642B692B03300A168A1103
:1026D80099200A168A11073083120313A5007C304B
:1026E800A400A40B752BA50B752B000003300A164C
:1026F8008A1199200A168A110F3083120313A50034
:102708004730A400A40B862BA50B862B03300A1692
:102718008A1199200A168A1102300A168A119920FC
:102728000A168A1102300A168A1199200A168A1185
:1027380008300A168A1199200A168A1100300A16DA
:102748008A1199200A168A110C300A168A119920C2
:102758000A168A1100300A168A1199200A168A1157
:1027680006300A168A1199200A168A110800F20002
:102778007208063E8400013083178007840A031814
:10278800800A7208063E84000008F000840A0008E7
:10279800F100003071023C3003197002031CD52B84
:1027A800D62B212C7208063E84008001840A800101
:1027B8007208043E840001308007840A0318800AE6
:1027C8007208043E84000008F000840A0008F10042
:1027D800003071023C3003197002031CF42BF52BF6
:1027E800212C7208043E84008001840A800172084A
:1027F800023E840001308007840A0318800A7208A8
:10280800023E84000008F000840A0008F10000304D
:102818007102FA3003197002031C132C142C212C9A
:102828007208023E84008001840A800172088400D4
:1028380001308007840A0318800A080083120313F2
:10284800AF01AB1F282C292C302CAA09AB09AA0AE6
:102858000319AB0AAF01AF0AAD1F332C342C3D2C42
:10286800AC09AD09AC0A0319AD0A0130FF007F08B5
:10287800AF06B001B1012A082B040319442C452CDA
:102888007C2CAE01AE0A532C01300310AA0DAB0DFF
:10289800FF3E031D492C0130FF007F08AE07AB1F28
:1028A800562C572C482C01300310B00DB10DFF3EAB
:1028B800031D582C2B082D02031D642C2A082C02FA
:1028C800031C672C682C6F2C2A08AC022B08031CED
:1028D800AD03AD02301401300310AB0CAA0CFF3E5F
:1028E800031D702C0130AE02031D7B2C7C2C572C51
:1028F8002F080319802C812C862CB009B109B00A45
:102908000319B10A3108AB003008AA0008000B1DF2
:102918008E2C8F2CF62C0B113D3083120313810063
:102928000130F7070318F80A0030F8071430770663
:102938007804031DA02CA12CF62CF701F801A9306E
:102948000A168A11BB230A168A110130F9070318DF
:10295800FA0A0030FA0768307906031DB72C7A03A3
:10296800031DB72CB82CBA2CF901FA010130F0007C
:102978000030F100831603172C08F3002B08F2002F
:102988000A168A1183200A168A110230F0000030D4
:10299800F100831603172E08F3002D08F2000A161B
:1029A8008A1183200A168A110330F0000030F100E2
:1029B800831603173008F3002F08F2000A168A114D
:1029C80083200A168A110430F0000030F1008316C3
:1029D80003172A08F3002908F2000A168A1183202F
:1029E8000A168A1176088A0075088400740E830016
:1029F800FE0E7E0E0900031083120313220D230D11
:102A0800A9002908031D092D0A2D132D0030A30044
:102A18000030A2000030A1000030A000762D200870
:102A2800A4002108A5002208A6002308A7001F303B
:102A38000310A70CA60CA50CA40CFF3E031D1C2D0F
:102A48002408A800A217FF30A005FF30A105FF3019
:102A5800A2050030A3059630A902A91F342D352DF3
:102A68004F2D2908803A973E03183B2D3C2D3D2DCC
:102A78000A2D01300310A30CA20CA10CA00CFF3EE0
:102A8800031D3E2D0130FF007F08A907031D4D2DB2
:102A98004E2D3D2D662D20302902031C542D552D19
:102AA800612D0A2D0130A4000310A00DA10DA20D67
:102AB800A30DA40B582D0130A9022908031D652D6B
:102AC800662D562D280803196A2D6B2D762DA00921
:102AD800A109A209A309A00A0319A10A0319A20AB4
:102AE8000319A30A080083120313A800280803196E
:102AF8007E2D7F2D932DA31F822D832D932D2009AD
:102B0800AA002109AB002209AC002309AD00AA0ADA
:102B18000319AB0A0319AC0A0319AD0A9B2D230844
:102B2800AD002208AC002108AB002008AA00230849
:102B3800220421042004031DA22DA32DAC2D003056
:102B4800A3000030A2000030A1000030A000302E09
:102B58009630A900BC2D0130FF007F08A90701307D
:102B68000310AD0CAC0CAB0CAA0CFF3E031DB42D2E
:102B7800FE302D05031DC12DC22DAF2DDE2D0130D8
:102B8800FF007F08A9070130AA07003003180130A9
:102B9800AB07003003180130AC07003003180130D0
:102BA800AD0701300310AD0CAC0CAB0CAA0CFF3E0A
:102BB800031DD62DFF302D05031DE32DE42DC32D58
:102BC800F02D0130A9020130A4000310AA0DAB0DAD
:102BD800AC0DAD0DA40BE92DAC1BF32DF42DFA2D86
:102BE800023029020318F92DFA2DE52D2918FD2D9B
:102BF800FE2D062EFF30AA05FF30AB057F30AC0551
:102C0800FF30AD050310A90C2908A400A501A601F1
:102C1800A70118300310A40DA50DA60DA70DFF3EA2
:102C2800031D0E2E2408AA042508AB042608AC04AC
:102C38002708AD0428080319222E232E282EA31FA7
:102C4800262E272E282EAD172D08A3002C08A2000B
:102C58002B08A1002A08A0000800831203132708E4
:102C68008039B1002708A8002807B800A61F3D2E04
:102C78003E2E3F2E381438080319432E442E542E66
:102C8800380A031D482E492E512E0030A700003067
:102C9800A6000030A5000030A400A617A7015C2EEE
:102CA8000030A7000030A6000030A5000030A400C6
:102CB80023088039FF007F08B1062308A8002807E9
:102CC800B900A21F682E692E6A2E39143908031913
:102CD8006E2E6F2E7F2E390A031D732E742E7C2EB6
:102CE8000030A3000030A2000030A1000030A00096
:102CF800A217A301872E0030A3000030A2000030E5
:102D0800A1000030A0002308220421042004031D90
:102D18008E2E8F2EA82E0030A7000030A60000307F
:102D2800A5000030A4008030A6047F30A704310835
:102D3800FF007F08A7042708A3002608A20025088B
:102D4800A1002408A000FF2F3808031DAC2EAD2ECB
:102D5800B62E0030A3000030A2000030A1000030E1
:102D6800A000FF2F3808A800A9012908AB003908DE
:102D78002802AA00031CAB032A087F3EB2002B08D6
:102D88000318013E003EB3002708B0002608AF0034
:102D98002508AE002408AD000030A7000030A600CA
:102DA8000030A5000030A4000030B7000030B600A5
:102DB8000030B5000030B400B9012C2F39080319D0
:102DC800E62EE72E072F0130A8000310AD0DAE0D3B
:102DD800AF0DB00DA80BE92E0130A8000310A40D0B
:102DE800A50DA60DA70DA80BF22EB71FFC2EFD2EC4
:102DF800FE2E24140130A8000310B40DB50DB60D35
:102E0800B70DA80B002F23083002031D152F220829
:102E18002F02031D152F21082E02031D152F200830
:102E28002D02031C182F192F282F37172008AD0241
:102E38002108031C210FAE022208031C220FAF0237
:102E48002308031C230FB0020130FF007F08B907D5
:102E58001A303902031C312F322FE22E30082F048A
:102E68002E042D040319392F3A2F592F3414592FB2
:102E78000130A8000310A40DA50DA60DA70DA80BE1
:102E88003E2FB71F482F492F4A2F24140130A8007E
:102E98000310B40DB50DB60DB70DA80B4C2FFF30B0
:102EA800B2070318B30AFF30B307A61F5C2F5D2FC4
:102EB8003C2FB901B71F612F622F7E2FFF303405D9
:102EC800A800FF303505A900FF303605AA007F307D
:102ED8003705AB002B082A04290428040319752F89
:102EE800762F792FB901B90A7E2F241C7C2F7D2FCC
:102EF8007E2F762F39080319822F832FB42F0130A4
:102F0800A407003003180130A5070030031801306A
:102F1800A607003003180130A707271C942F952F08
:102F2800B42F2408A8002508A9002608AA00270805
:102F3800AB000130AC002B0DAB0CAA0CA90CA80CF3
:102F4800AC0B9F2F2B08A7002A08A6002908A5006C
:102F58002808A4000130B2070318B30A0030B307E9
:102F68003308803AFF0080307F02031DBD2FFF30F9
:102F78003202031CC02FC12FCF2FFF30831203133F
:102F8800B2000030B3000030A7000030A6000030C7
:102F9800A5000030A400831203133308803AFF0011
:102FA80080307F02031DDA2F013032020318DD2F33
:102FB800DE2FEB2F83120313B201B3010030A700F9
:102FC8000030A6000030A5000030A400B101831233
:102FD80003133208B800381CF22FF32FF52FA61769
:102FE800F92F7F30FF007F08A6053808A8000310D6
:102FF800280CA7009B2E0800FF1B0A2883137F18A4
:1030080083170008840A0319FF0A08007F087F391C
:103018008A000408840A0319FF0A82000134003474
:103028000A34003464340034E83403341034273468
:1030380020342034203449344C34453452344C3410
:1030480045344D34453420344834413454344134C3
:10305800533449342034203420342034203420346C
:10306800203420340034203420342034463445348D
:1030780045344434203452344134543445342034B3
:103088004534523452344F345234203420342034AE
:1030980020342034203420340034203420342034A8
:1030A80044344F344E344D3445342034483441345C
:1030B80054344134533449342034203420342034B7
:1030C8002034203420342034003420342034203478
:1030D80052344F3454344134543449344F344E34D8
:1030E80020344534523452344F345234203420344E
:1030F80020342034203420340034533454344F34B2
:103108005034203444345534523455344D345534C5
:103118004E344134203447344534543449345234DD
:103128002034003450345534543420344934543421
:10313800203449344E342034533454344F345034CA
:1031480020345334543441345434453400345334E3
:1031580054344F3450342034443455345234553474
:103168004D3455344E344134203447344534543486
:1031780049345234003459344134473420344234C9
:1031880041344B3449344D34493420345934413472
:10319800503449344E3449345A34003455345A344E
:1031A8004D3441344E344C344134523420344D344F
:1031B80041344B3449344E3441340034203446349D
:1031C80057344434203420342034203420342034FC
:1031D8002034203420342034003477347734773462
:1031E8002E3462346F347234763465346B342E3452
:1031F80063346F346D3400342034523445345734DA
:103208002034203420342034203420342034203416
:10321800203400344F3449344C3420345434483446
:10322800453420344734453441345234533400341F
:103238002034533454344F34503420342034203420
:103248002034203420342034003425343534753487
:103258006834203425343034323475346D340034D5
:1032680046346534653464345234613474346534B6
:103278003A3400342034463457344434203431341A
:103288002E3436344B3400342034523445345734D9
:10329800203431342E3436344B34003425347534EC
:1032A80025347534253475342E342534753400347A
:1032B800203446345734443420344C344D34543458
:1032C8000034203452344534573420344C344D348F
:1032D800543400347334253464340D340A340034DF
:1032E8002534303430343334753400347334303466
:1032F8000D340A340034523450344D343A340034E6
:063308005634333400349A
:02400E00793FF8
:00000001FF
