:060000000A128A110E280D
:10000800FE00030EF6000408F7000A08F8000A16B6
:100018008A11572D0A128A1111280A128A150720E7
:100028000A128A11FB000A128A1508200A128A117C
:10003800FC0083160317AA01AB01AC01AD01AE01A8
:10004800AF01B001B10183120313EE01EF01F90111
:10005800FA0183010A168A119C2E831603171408C5
:100068001504031938283928892883120313091914
:100078003E283F28502809184228432850280718A6
:1000880046284728502889184A284B28502883167C
:100098000317940195018928A401A40A01300A16BE
:1000A8008A11B3220A128A11963083120313A5000B
:1000B8009030A6000A168A116D220A128A1183123C
:1000C8000313A401A40A02300A168A11B3220A12E1
:1000D8008A11813083120313A5009030A6000A16F6
:1000E8008A116D220A128A11033083120313D60073
:1000F8008A30D5005530D400D40B8028D50B802801
:10010800D60B80280A128A15FD2F8312031387192C
:100118008E2891280A128A15682F0818942895287D
:100128008E287B08013EA6007C080318013E003E8D
:10013800A7000A128A11EB270A128A1183120313E5
:10014800270883160313E700831203132608831670
:100158000313E6007C0883120313A1007B08A000A8
:10016800FA30A2000030A3000A168A117E210A1272
:100178008A11831203132008D4002108D5007C08B3
:10018800A7007B08A6000A128A11EB270A128A1117
:100198008312031326085407D60027080318270AD2
:1001A8005507D7005608EE3E8316031792008312B0
:1001B800031357080318013E023E831603179300E2
:1001C800130883120313A700831603171208831258
:1001D8000313A6000A128A11EB270A128A11831246
:1001E8000313270883160317A9008312031326088D
:1001F80083160317A800143083120313AC00913040
:10020800AD0083160317290883120313AF00831662
:100218000317280883120313AE0083160313670815
:1002280083120313B10083160313660883120313A2
:10023800B000B4300A128A1501220A128A110A3053
:1002480083120313A40001300A168A11B3220A127A
:100258008A11D93083120313A5009030A6000A161C
:100268008A116D220A128A110B3083120313A4001B
:1002780001300A168A11B3220A128A11B430831285
:100288000313A5000030A6000A168A116D220A126F
:100298008A11F43083120313AA000130AB008316CD
:1002A8000317290883120313AD00831603172808C0
:1002B80083120313AC000A168A1151230A128A11F9
:1002C800831203132A082B04031D6B296C29742934
:1002D8008316031728082904031D73297429C429C0
:1002E800F43083120313AA000130AB0083160317FE
:1002F800290883120313AD008316031728088312F5
:100308000313AC000A168A1151230A128A118312A8
:1003180003132A032B04031D922993299B2983166F
:10032800031728032904031D9A299B29C429F4309B
:1003380083120313AA000130AB00831603172908A0
:1003480083120313AD0083160317280883120313BF
:10035800AC000A168A1151230A128A11023083123C
:1003680003132A062B04031DBA29BB29CF290230FF
:1003780083160317280629040319C329C429CF297A
:100388002E082F04031DC929CA29CF290A168A1144
:10039800FF220A128A11831203131F08C739103863
:1003A8009F000F3083120313D400D40BD929DC2902
:1003B800831203131F151F19E229E329DF29831666
:1003C80003131E0883120313D400D5011E08D60098
:1003D800D7015608D700D60154085604A00055087E
:1003E8005704A100A201A11BA2032208A300013007
:1003F8000A168A11E2250A128A11831203132308A6
:1004080083160313D50083120313220883160313DC
:10041800D40083120313210883160313D300831215
:100428000313200883160313D200443083120313E6
:10043800A3008030A2000030A1000030A000831685
:100448000313550883120313A700831603135408D4
:1004580083120313A600831603135308831203138E
:10046800A50083160313520883120313A4000A126B
:100478008A1532200A128A1183120313230883165D
:100488000313D90083120313220883160313D80019
:1004980083120313210883160313D700831203134F
:1004A800200883160313D600831203131F08C739C5
:1004B80018389F000F3083120313D400D40B622A1C
:1004C800652A831203131F151F196B2A6C2A682AC1
:1004D8001E0883160313E3001E08E200590883125E
:1004E8000313BD0083160313580883120313BC00BB
:1004F80083160313570883120313BB0083160313D1
:10050800560883120313BA00831603136208831272
:100518000313A00083160313630883120313A100B7
:100528000030A11BFF30A200A30001300A168A1177
:10053800E2250A128A11831203132308C100220834
:10054800C0002108BF002008BE000A128A11A62494
:100558000A128A11831203133D0883160313E1005C
:10056800831203133C0883160313E000831203135A
:100578003B0883160313DF00831203133A0883161C
:100588000313DE00403083120313BD004030BC006B
:100598000030BB000030BA008316031361088312D1
:1005A8000313C10083160313600883120313C000EA
:1005B800831603135F0883120313BF008316031304
:1005C8005E0883120313BE000A128A11A6240A12B7
:1005D8008A11831203133D0883160317A10083129F
:1005E80003133C0883160317A000831203133B0868
:1005F800831603179F00831203133A088316031701
:100608009E00E83083120313AA000330AB00831660
:100618000317210883120313A30083160317200866
:1006280083120313A200831603171F0883120313F0
:10063800A100831603171E0883120313A0000A16CD
:100648008A11DF240A128A11831203132108AD00CC
:100658002008AC000A168A1176240A128A1183121D
:1006680003132B08831603179D00831203132A080C
:10067800831603179C00643083120313AA0000300A
:10068800AB0083160317210883120313A3008316F4
:100698000317200883120313A200831603171F08E9
:1006A80083120313A100831603171E088312031372
:1006B800A0000A168A11DF240A128A118312031372
:1006C8002008D4002108D5002208D6002308D70026
:1006D800831603171D0883120313A100831603173B
:1006E8001C0883120313A0001830A200FC30A300DA
:1006F8000A168A117E210A128A118312031320080E
:100708005407AC0021080318210A5507AD000A1642
:100718008A1176240A128A11831203132B0883166E
:1007280003179B00831203132A08831603179A00E2
:100738000A3083120313AA000030AB008316031794
:10074800210883120313A3008316031720088312BA
:100758000313A200831603171F0883120313A100B3
:10076800831603171E0883120313A0000A168A11A2
:10077800DF240A128A11831203132008D4002108E7
:10078800D5002208D6002308D700831603171D08B2
:1007980083120313A100831603171C088312031383
:1007A800A0001830A200FC30A3000A168A117E218E
:1007B8000A128A118312031320085407D80021084B
:1007C8000318210A5507D900831603171B0883123B
:1007D8000313A100831603171A0883120313A0003A
:1007E8009C30A200FF30A3000A168A117E210A124B
:1007F8008A118312031320085807AC002108031834
:10080800210A5907AD000A168A1176240A128A119C
:10081800831203132B0883160313E90083120313AF
:100828002A0883160313E8000A3083120313AA0068
:100838000030AB0083160317210883120313A300AB
:1008480083160317200883120313A20083160317C5
:100858001F0883120313A100831603171E088312AF
:100868000313A0000A168A11DF240A128A118312C0
:1008780003132108AD002008AC000A168A11512381
:100888000A128A11831203132B0883160313EB0031
:10089800831203132A0883160313EA00831203132F
:1008A8001F08C73908389F000F3083120313D4007C
:1008B800D40B5C2C5F2C831203131F151F19652C96
:1008C800662C622C831603131E0883120313D400AC
:1008D800D5011E08D600D7015608D700D6015408FE
:1008E8005604A00055085704A100A201A11BA203A9
:1008F8002208A30001300A168A11E2250A128A1179
:100908008312031323088316031799008312031312
:1009180022088316031798008312031321088316ED
:1009280003179700831203132008831603179600F2
:10093800831203130919A32C0A128A15F82B0A1219
:100948008A15262C831203133D088039C7003D08F9
:10095800C2004207CD00BC1FB22CB32CB42C4D14DE
:100968004D080319B82CB92CC82C4D0A031DBD2CF1
:10097800BE2CC62C0030BD000030BC000030BB00CF
:100988000030BA00BC17D02C0030BD000030BC00CD
:100998000030BB000030BA0041088039FF007F08F2
:1009A800C7064108C2004207CC00C01FDC2CDD2C62
:1009B800DE2C4C144C080319E22CE32CF22C4C0AC4
:1009C800031DE72CE82CF02C0030C1000030C000DB
:1009D8000030BF000030BE00C017FA2C0030C10044
:1009E8000030C0000030BF000030BE004C080319C2
:1009F800FE2CFF2C042D4D08031D032D042D0D2D59
:100A08000030BD000030BC000030BB000030BA0030
:100A1800EA2F3A08A00040080A128A1509200A128B
:100A28008A11831203132108D3002008D200520828
:100A3800C200C301C401C5014508CB004408CA006F
:100A48004308C9004208C8005308C200C301C401D2
:100A5800C5014508D1004408D0004308CF0042082A
:100A6800CE003B08A0003F080A128A1509200A1286
:100A78008A11831203132108D3002008D2005208D8
:100A8800C200C301C401C5014208C80743080311D5
:100A98000318013E0319512DC9074408031103180F
:100AA800013E0319582DCA07450803110318013ED2
:100AB80003195F2DCB075308C200C301C401C50148
:100AC8004208CE07430803110318013E03196D2D90
:100AD800CF07440803110318013E0319742DD007EA
:100AE800450803110318013E03197B2DD1073C0863
:100AF800A0003E080A128A1509200A128A118312D8
:100B080003132108D3002008D2005208C200C301F1
:100B1800C401C5014208C807430803110318013E70
:100B28000319972DC907440803110318013E031937
:100B38009E2DCA07450803110318013E0319A52D68
:100B4800CB075308C200C301C401C5014208CE0740
:100B5800430803110318013E0319B32DCF074408B6
:100B680003110318013E0319BA2DD00745080311D4
:100B78000318013E0319C12DD1070830C200031024
:100B8800C80DC90DCA0DCB0DC20BC32D3B08A00063
:100B98003E080A128A1509200A128A1183120313C1
:100BA8002108D3002008D2005208C2005308C3000D
:100BB800C401C5014208C807430803110318013ED0
:100BC8000319E72DC907440803110318013E031947
:100BD800EE2DCA07450803110318013E0319F52D28
:100BE800CB073A08A0003F080A128A1509200A1202
:100BF8008A11831203132108D3002008D200520857
:100C0800C2005308C300C401C5014208C80743080D
:100C180003110318013E0319122EC90744080311D2
:100C28000318013E0319192ECA07450803110318B2
:100C3800013E0319202ECB070830C2000310C80D4F
:100C4800C90DCA0DCB0DC20B222E3A08A0003E08D2
:100C58000A128A1509200A128A118312031321081D
:100C6800D3002008D2005208C2005308C300C401B0
:100C7800C5014208C807430803110318013E0319B8
:100C8800462EC907440803110318013E03194D2EC7
:100C9800CA07450803110318013E0319542ECB0750
:100CA8003B08A00040080A128A1509200A128A1176
:100CB800831203132108D3002008D2005208C2006F
:100CC8005308C300C401C5014208CE0743080311F5
:100CD8000318013E0319712ECF07440803110318A6
:100CE800013E0319782ED007450803110318013E69
:100CF80003197F2ED1073C08A0003F080A128A1565
:100D080009200A128A11831203132108D30020082C
:100D1800D2005208C2005308C300C401C5014208EA
:100D2800CE07430803110318013E03199C2ECF0771
:100D3800440803110318013E0319A32ED0074508E0
:100D480003110318013E0319AA2ED1073C08A0007D
:100D580040080A128A1509200A128A1183120313FD
:100D68002108D3002008D2005208C2005308C3004B
:100D7800C401C50108300310C20DC30DC40DC50D53
:100D8800FF3E031DBF2E4208CE0743080311031878
:100D9800013E0319D02ECF07440803110318013E62
:100DA8000319D72ED007450803110318013E03196C
:100DB800DE2ED1074808C2004908C3004A08C4000B
:100DC8004B08C50018300310C50CC40CC30CC20C6A
:100DD800FF3E031DE72E4208CE0743080311031800
:100DE800013E0319F82ECF07440803110318013EEA
:100DF8000319FF2ED007450803110318013E0319F4
:100E0800062FD1070830C2000310C80DC90DCA0D3E
:100E1800CB0DC20B082F4D084C07C200C301C30DF0
:100E28004208823ED20043080318013EFF3ED30029
:100E38003A2F0130C2000310CE0DCF0DD00DD10DC9
:100E4800C20B1F2FCB1F292F2A2F2B2F4E140130F7
:100E5800C2000310C80DC90DCA0DCB0DC20B2D2F32
:100E6800FF30D2070318D30AFF30D307D01F3D2F16
:100E78003E2F1D2FCC01CB1F422F432F5F2FFF305A
:100E88004805C200FF304905C300FF304A05C400C9
:100E98007F304B05C5004508440443044204031948
:100EA800562F572F5A2FCC01CC0A5F2F4E1C5D2F7F
:100EB8005E2F5F2F572F4C080319632F642F952F30
:100EC8000130CE07003003180130CF070030031877
:100ED8000130D007003003180130D107511C752F9D
:100EE800762F952F4E08C2004F08C3005008C40043
:100EF8005108C5000130C600450DC50CC40CC30C13
:100F0800C20CC60B802F4508D1004408D000430806
:100F1800CF004208CE000130D2070318D30A0030B0
:100F2800D3075308803AFF0080307F02031D9E2FAD
:100F3800FF305202031CA12FA22FAD2F7F30831246
:100F48000313D1008030D0000030CF000030CE0035
:100F5800DE2F831203135308803AFF0080307F028C
:100F6800031DB82F013052020318BB2FBC2FC82F06
:100F7800003083120313D1000030D0000030CF00BE
:100F88000030CE00C701DE2F831203135208CD00B4
:100F9800FF30CE05FF30CF057F30D0050030D105BA
:100FA8004D1CD72FD82FD92FD0174D08C2000310AA
:100FB800420CD1004708FF007F08D1045108BD004A
:100FC8005008BC004F08BB004E08BA000800831246
:100FD80003132608831203178D00831603170C14B6
:100FE800831203170C0883120313A800A901280809
:080FF800A6002908A70008006B
:10100E000134003483120313A800A401A5012008A3
:10101E00A200A3012208A6002308A700281C182856
:10102E0019281F282608A4070318A50A2708A507AC
:10103E0001300310A60DA70DFF3E031D202803103F
:10104E00A80C2808031D2C282D2815282508A100DA
:10105E002408A00008008312031327088039B1006A
:10106E002708A8002807B800A61F3E283F284028BA
:10107E00381438080319442845285528380A031D02
:10108E0049284A2852280030A7000030A600003018
:10109E00A5000030A400A617A7015D280030A70008
:1010AE000030A6000030A5000030A40023088039CF
:1010BE00FF007F08B1062308A8002807B900A21F69
:1010CE0069286A286B283914390803196F28702883
:1010DE008028390A031D742875287D280030A30046
:1010EE000030A2000030A1000030A000A217A30122
:1010FE0088280030A3000030A2000030A10000308C
:10110E00A0002308220421042004031D8F28902808
:10111E00A9280030A7000030A6000030A50000303E
:10112E00A4008030A6047F30A7043108FF007F089A
:10113E00A7042708A3002608A2002508A10024085A
:10114E00A000002A3808031DAD28AE28B7280030AD
:10115E00A3000030A2000030A1000030A000002A41
:10116E003808A800A9012908AB0039082802AA00EE
:10117E00031CAB032A087F3EB2002B080318013E66
:10118E00003EB3002708B0002608AF002508AE00C9
:10119E002408AD000030A7000030A6000030A500E6
:1011AE000030A4000030B7000030B6000030B500AB
:1011BE000030B400B9012D2939080319E728E828B1
:1011CE0008290130A8000310AD0DAE0DAF0DB00D06
:1011DE00A80BEA280130A8000310A40DA50DA60D3A
:1011EE00A70DA80BF328B71FFD28FE28FF282414EF
:1011FE000130A8000310B40DB50DB60DB70DA80B38
:10120E00012923083002031D162922082F02031D6F
:10121E00162921082E02031D162920082D02031C53
:10122E0019291A29292937172008AD022108031C6C
:10123E00210FAE022208031C220FAF022308031C4B
:10124E00230FB0020130FF007F08B9071A303902B0
:10125E00031C32293329E32830082F042E042D04D1
:10126E0003193A293B295A2934145A290130A80066
:10127E000310A40DA50DA60DA70DA80B3F29B71F92
:10128E0049294A294B2924140130A8000310B40D12
:10129E00B50DB60DB70DA80B4D29FF30B2070318CB
:1012AE00B30AFF30B307A61F5D295E293D29B90198
:1012BE00B71F622963297F29FF303405A800FF304C
:1012CE003505A900FF303605AA007F303705AB0083
:1012DE002B082A04290428040319762977297A2948
:1012EE00B901B90A7F29241C7D297E297F297729F6
:1012FE003908031983298429B5290130A407003040
:10130E0003180130A507003003180130A60700307E
:10131E0003180130A707271C95299629B5292408FB
:10132E00A8002508A9002608AA002708AB0001304E
:10133E00AC002B0DAB0CAA0CA90CA80CAC0BA02965
:10134E002B08A7002A08A6002908A5002808A40033
:10135E000130B2070318B30A0030B3073308803ADE
:10136E00FF0080307F02031DBE29FF303202031CB6
:10137E00C129C229D029FF3083120313B2000030D5
:10138E00B3000030A7000030A6000030A5000030EA
:10139E00A400831203133308803AFF0080307F02CB
:1013AE00031DDB29013032020318DE29DF29EC2967
:1013BE0083120313B201B3010030A7000030A60060
:1013CE000030A5000030A400B101831203133208CF
:1013DE00B800381CF329F429F629A617FA297F300C
:1013EE00FF007F08A6053808A8000310280CA700E8
:1013FE009C28080083120313C2002E30BB00DD2B85
:10140E002530410603190C2A0D2A172A420884009A
:10141E004108831380000130FF007F08C207DD2BD7
:10142E00BF01C001BE01222A3E150130AC070318D0
:10143E00AD0A0030AD072D08FF002C0884000A16F7
:10144E008A1100200A128A15B600B7013708003A31
:10145E000319322A372A3608303A03191B2A372A3B
:10146E002D08FF002C0884000A168A1100200A128B
:10147E008A150A168A1520270A128A15031C482A6D
:10148E00492A922A83120313BF01C0010A30831224
:10149E000313A0000030A1004008A3003F08A200E3
:1014AE000A168A117E210A128A1583120313210845
:1014BE00C0002008BF002D08FF002C0884000A166B
:1014CE008A1100200A128A15D03EB600FF3003188A
:1014DE000030B7003608BF070318C00A3708C00728
:1014EE000130AC070318AD0A0030AD072D08FF0020
:1014FE002C0884000A168A1100200A128A150A1670
:10150E008A1520270A128A1503188E2A8F2A4D2A29
:10151E00922A3E17BA2A831203132D08B7002C08FD
:10152E00B600AC0A0319AD0A3708FF00360884006E
:10153E000A168A1100200A128A15C100B800B901D4
:10154E003908003A0319AC2ADD2B3808003A031982
:10155E00F32B643A0319BA2A0D3A0319BA2A1C3A24
:10156E000319902ADD2B3E1BBD2ABE2AD82A3B0822
:10157E00840083130008BC00840A0008BD000230FA
:10158E00FF007F08BB07BD1FCD2ACE2AE42A0330F9
:10159E00FF007F08BE04BC09BD09BC0A0319BD0AC1
:1015AE00E42A3B08840083130008BC00840A000868
:1015BE00BD000230FF007F08BB07C101C10A410810
:1015CE00B6003607123E840090300318013EFF002D
:1015DE000A168A1100200A128A15B7000A168A11F5
:1015EE0000200A128A15B80038083D02031D012B8F
:1015FE0037083C020318042B052B062B102B013049
:10160E00FF007F08C10705304106031D0F2B102B6D
:10161E00E62A3F0840040319152B162B222B3E08F1
:10162E00033903191B2B1C2B222BFF30BF0703186A
:10163E00C00AFF30C0074008803A803C031D292BAA
:10164E003F08410203182C2B2D2B392B8312031329
:10165E004108B600B7013608BF023708031CC003A5
:10166E00C0023D2B83120313BF01C0013E1D402B50
:10167E00412B6C2B3E0803390319462B472B502B5D
:10168E00420884002D30831380000130FF007F0854
:10169E00C2073F0840040319552B562B962B4208C0
:1016AE0084003030831380000130FF007F08C207B2
:1016BE00FF30BF070318C00AFF30C0073F084004C1
:1016CE00031D6A2B6B2B562B962B3F0840040319D8
:1016DE00712B722B872B42088400203083138000DD
:1016EE000130FF007F08C207FF30BF070318C00A92
:1016FE00FF30C0073F084004031D862B872B722B3B
:10170E003E08033903198C2B8D2B962B420884002F
:10171E002D30831380000130FF007F08C20741087F
:10172E00BA00D42B0A30A7000030A8003A08B60041
:10173E003607123E840090300318013EFF000A1651
:10174E008A1100200A128A15A0000A168A1100209A
:10175E000A128A15A1003D08A3003C08A2000A1631
:10176E008A1127220A128A15831203132108AA004E
:10177E002008A9000A168A11A5210A128A158312B9
:10178E0003132708303EC10042088400410883132A
:10179E0080000130FF007F08C207FF30FF007F0886
:1017AE00BA073A0A031DDC2BDD2B992B2D08B70047
:1017BE002C08B600AC0A0319AD0A3708FF0036082C
:1017CE0084000A168A1100200A128A15C1004108E7
:1017DE00031DF22BF32B072A42088400831380018A
:1017EE0008000718FB2BFC2B262C83160317190851
:1017FE0083120313A300831603171808831203130F
:10180E00A20083160317170883120313A100831671
:10181E000317160883120313A0000A168A11DF2479
:10182E000A128A1583120313210D210C8316031736
:10183E00A70083120313200C83160317A60044304F
:10184E0083120313BD007A30BC000030BB000030A1
:10185E00BA004430A3008030A2000030A100003056
:10186E00A00083160317190883120313A70083160B
:10187E000317180883120313A600831603171708FD
:10188E0083120313A500831603171608831203137E
:10189E00A4000A128A1532200A128A158312031323
:1018AE002308C1002208C0002108BF002008BE0086
:1018BE000A128A11A6240A128A15831203133D08EE
:1018CE0083160313DD00831203133C0883160313E0
:1018DE00DC00831203133B0883160313DB00831211
:1018EE0003133A0883160313DA0083120313A401B9
:1018FE00A40A02300A168A11B3220A128A151F3060
:10190E0083120313A5009130A6000A168A116D22C8
:10191E000A128A155F3083120313AC009130AD00AA
:10192E00831603135D0883120313A3008316031398
:10193E005C0883120313A200831603135B08831241
:10194E000313A100831603135A0883120313A00076
:10195E000A168A11DF240A128A158312031321082C
:10196E00AF002008AE00EC300A128A1501220A12CE
:10197E008A150A3083120313A40002300A168A1144
:10198E00B3220A128A15EC3083120313A50000301D
:10199E00A6000A168A116D220A128A1583120313E3
:1019AE00A401A40A01300A168A11B3220A128A155A
:1019BE006A3083120313A5009130A6000A168A110D
:1019CE006D220A128A153D3083120313AC0091303A
:1019DE00AD00831603171D0883120313AF00831681
:1019EE0003171C0883120313AE00831603171B087C
:1019FE0083120313B100831603171A0883120313FD
:101A0E00B00083160313690883120313B300831601
:101A1E000313680883120313B200831603136B08B3
:101A2E0083120313B500831603136A08831203137C
:101A3E00B400CD300A128A1501220A128A15053019
:101A4E0083120313A40001300A168A11B3220A125C
:101A5E008A15CD3083120313A5000030A6000A1696
:101A6E008A116D220A128A1583120313871C402DC8
:101A7E00412D682D0918442D452D492D091D482D40
:101A8E00492D682D0D30A40002300A168A11B3229A
:101A9E000A128A15473083120313A5009130A6004F
:101AAE000A168A116D220A128A15653083120313E3
:101ABE00A1009130A2000A168A11E1210A128A159C
:101ACE00472F091D6B2D6C2D702D09186F2D702D44
:101ADE00782D091D732D742DCE2D8918772D782D07
:101AEE00CE2D0D30A40002300A168A11B3220A122E
:101AFE008A15293083120313A5009130A6000A1609
:101B0E008A116D220A128A150330831603172702D3
:101B1E002030031926020318952D962D472F50308D
:101B2E00A6070318A70A0030A707033027022130A3
:101B3E0003192602031CA42DA52DA92D2030A600C5
:101B4E000330A700593083120313AC009130AD005F
:101B5E0083160317270883120313AF008316031788
:101B6E00260883120313AE00BD300A128A15012215
:101B7E000A128A15BD3083120313A1000030A20091
:101B8E000A168A11E1210A128A15472F472F091CBE
:101B9E00D12DD22D092E0D30A40002300A168A1135
:101BAE00B3220A128A15CD3083120313A50090308A
:101BBE00A6000A168A116D220A128A15593083124E
:101BCE000313AC009130AD00831603172708831260
:101BDE000313AF0083160317260883120313AE00F8
:101BEE005A300A128A1501220A128A155A308312A5
:101BFE000313A1000030A2000A168A11E1210A1275
:101C0E008A15472F071D0C2E0D2E342E8918102ED7
:101C1E00112E152E071C142E152E342E0D30A40049
:101C2E0002300A168A11B3220A128A155030831214
:101C3E000313A5009130A6000A168A116D220A120E
:101C4E008A15653083120313A1009130A2000A1683
:101C5E008A11E1210A128A15472F071C372E382EBA
:101C6E003C2E89183B2E3C2E442E071C3F2E402E18
:101C7E00D52E0918432E442ED52E0D30A400023039
:101C8E000A168A11B3220A128A15333083120313ED
:101C9E00A5009130A6000A168A116D220A128A1525
:101CAE0083160317260983120313D4008316031712
:101CBE00270983120313D500D40A0319D50A540831
:101CCE0083160317A40083120313550883160317F4
:101CDE00A5002508803AFF007C307F02031D792E77
:101CEE00E1302402031C7C2E7D2ECD2DB0308316C8
:101CFE000317A4070318A50AFF30A5072508803A85
:101D0E00FF007C307F02031D8E2EE030240203186C
:101D1E00912E922E982EE03083160317A400FC30DD
:101D2E00A50083160317240983120313D400831608
:101D3E000317250983120313D500D40A0319D50AF4
:101D4E00540883160317A60083120313550883162F
:101D5E000317A700593083120313AC009130AD0066
:101D6E0083160317250883120313AF008316031778
:101D7E00240883120313AE00C5300A128A150122FD
:101D8E000A128A15C53083120313A1000030A20077
:101D9E000A168A11E1210A128A15472F891CD82E9C
:101DAE00D92E292F0D30A40002300A168A11B32223
:101DBE000A128A15EB3083120313A5009030A60089
:101DCE000A168A116D220A128A158316031726091E
:101DDE0083120313D40083160317270983120313E8
:101DEE00D500D40A0319D50A540883160317900098
:101DFE00831203135508831603179100593083126B
:101E0E000313AC009130AD00831603171108831233
:101E1E000313AF0083160317100883120313AE00CB
:101E2E00A0300A128A1501220A128A15A0308312D6
:101E3E000313A1000030A2000A168A11E1210A1232
:101E4E008A15472F0D30A40002300A168A11B322CC
:101E5E000A128A15073083120313A5009130A600CB
:101E6E000A168A116D220A128A156530831203131F
:101E7E00A1009130A2000A168A11E1210A128A15D8
:101E8E0083120313871C4C2F4D2F592F0918502FD7
:101E9E00512F552F091D542F552F592F83120313D0
:101EAE000516FA2F071D5C2F5D2F662F8918602FE0
:101EBE00612F552F071C642F652F662F552F051286
:101ECE00FA2F871D6B2F6C2FC22FA401A40A01308D
:101EDE000A168A11B3220A128A1537308312031397
:101EEE00A5009030A6000A168A116D220A128A15D4
:101EFE0083120313A401A40A02300A168A11B32214
:101F0E000A128A151C3083120313A5009030A60006
:101F1E000A168A116D220A128A156530831203136E
:101F2E00A1009130A2000A168A11E1210A128A1527
:101F3E00831203130516063083120313D6001330D3
:101F4E00D500AD30D400D40BAA2FD50BAA2FD60BAB
:101F5E00AA2F831203130512103083120313D60017
:101F6E003930D5000D30D400D40BBB2FD50BBB2F81
:101F7E00D60BBB2F552F081CC52FC62FFA2F653039
:101F8E00A1009130A2000A168A11E1210A128A15C7
:101F9E0083120313A401A40A01300A168A11B32274
:101FAE000A128A15693083120313A5009030A60019
:101FBE000A168A116D220A128A1583120313A401BE
:101FCE00A40A02300A168A11B3220A128A15513057
:101FDE0083120313A5009030A6000A168A116D22F3
:101FEE000A128A159F2F0A168A11AE2F0A128A110B
:101FFE000E28FF1B0A2883137F1883170008840AF4
:10200E000319FF0A08007F087F398A000408840A32
:10201E000319FF0A8200013400340A340034643498
:10202E000034E83403341034273420342034203480
:10203E0049344C34453452344C3445344D344534A3
:10204E0020344834413454344134533449342034E8
:10205E0020342034203420342034203420340034F2
:10206E00203420342034463445344534443420342E
:10207E00523441345434453420344534523452347D
:10208E004F34523420342034203420342034203441
:10209E002034003420342034203444344F344E3431
:1020AE004D3445342034483441345434413453345F
:1020BE004934203420342034203420342034203449
:1020CE002034003420342034203452344F345434ED
:1020DE004134543449344F344E3420344534523420
:1020EE0052344F34523420342034203420342034AF
:1020FE00203400345034553454342034493454345C
:10210E00203449344E342034533454344F34503404
:10211E00203453345434413454344534003453341D
:10212E0054344F34503420344434553452345534AE
:10213E004D3455344E3441342034473445345434C0
:10214E004934523400345934413447342034423403
:10215E0041344B3449344D344934203459344134AC
:10216E00503449344E3449345A34003455345A3488
:10217E004D3441344E344C344134523420344D3489
:10218E0041344B3449344E344134003420344634D7
:10219E005734443420342034203420342034203436
:1021AE00203420342034203400347734773477349C
:1021BE002E3462346F347234763465346B342E348C
:1021CE0063346F346D340034203452344534573414
:1021DE002034203420342034203420342034203451
:1021EE00203400344F3449344C3420345434483481
:1021FE00453420344734453441345234533400345A
:10220E002034533454344F3450342034203420345A
:10221E0020342034203420340034253435347534C1
:10222E006834203425343034323475346D3400340F
:10223E0046346534653464345234613474346534F0
:10224E003A34003420344634573444342034313454
:10225E002E3436344B340034203452344534573413
:10226E00203431342E3436344B3400342534753426
:10227E0025347534253475342E34253475340034B4
:10228E00203446345734443420344C344D34543492
:10229E000034203452344534573420344C344D34C9
:1022AE00543400347334253464340D340A34003419
:1022BE0025343034303433347534003473343034A0
:1022CE000D340A340034523450344D343A34003420
:0622DE00563433340034D5
:1022FC0083120313A401A501201C852986298C298E
:10230C002208A4070318A50A2308A5070130031007
:10231C00A20DA30DFF3E031D8D2901300310A10C4E
:10232C00A00CFF3E031D942920082104031D9F29A6
:10233C00A02982292508A1002408A00008008312E6
:10234C000313270828040319AC29AD29DC29AB0198
:10235C00AB0ABB2901300310A70DA80DFF3E031DCE
:10236C00B1290130FF007F08AB07A81FBE29BF2988
:10237C00B02928082A02031DC52927082902031C95
:10238C00C829C929CF292708A9022808031CAA0390
:10239C00AA0201300310A80CA70CFF3E031DD02984
:1023AC000130AB02031DDB29DC29BF292A08A80058
:1023BC002908A700080083120313A601A7010A2A03
:1023CC0026082107A4002208A3000318A30AA61FAD
:1023DC00F029A303831203132308A5002508FF008B
:1023EC00240884000A168A1100200A168A110A167B
:1023FC008A1502270A168A11013083120313A607C5
:10240C000318A70A0030A70726082107A4002208F2
:10241C00A3000318A30AA61F142AA30383120313F1
:10242C002308A5002508FF00240884000A168A1139
:10243C0000200A168A11003A031D252A262AE629AD
:10244C00080083120313A401A50120082104031919
:10245C00302A312A682AA601A60A3F2A0130031025
:10246C00A00DA10DFF3E031D352A0130FF007F0892
:10247C00A607A11F422A432A342A01300310A40DB7
:10248C00A50DFF3E031D442A21082302031D502ADB
:10249C0020082202031C532A542A5B2A2008A20279
:1024AC002108031CA303A302241401300310A10C64
:1024BC00A00CFF3E031D5C2A0130A602031D672AF7
:1024CC00682A432A2508A1002408A00008008312CA
:1024DC000313AA01AB01962A2A082507A80026088F
:1024EC00A7000318A70AAA1F7C2AA70383120313A9
:1024FC002708A9002908FF00280884000A168A1159
:10250C0000200A168A110A168A15C7270A168A117C
:10251C00013083120313AA070318AB0A0030AB0770
:10252C002A082507A8002608A7000318A70AAA1F2F
:10253C00A02AA703831203132708A9002908FF0068
:10254C00280884000A168A1100200A168A11003AFB
:10255C00031DB12AB22A722A080083120313A600A3
:10256C002603031DBA2ABB2ADA2A24087F3EA900B7
:10257C002908A50004300310A50CFF3E031DC12A39
:10258C002508A70029080F39A80027080A168A155C
:10259C004A270A168A118312031328080A168A1569
:1025AC004A270A168A11FE2A02302606031DDF2A44
:1025BC00E02AFE2A2408BF3EA9002908A500043001
:1025CC000310A50CFF3E031DE62A2508A7002908C9
:1025DC000F39A80027080A168A154A270A168A11E5
:1025EC008312031328080A168A154A270A168A1119
:1025FC0008000A168A15F5260A168A118312031387
:10260C00AC01AD0183120313A401A40A01300A1614
:10261C008A11B3220A168A11AA3083120313A50059
:10262C009030A6000A168A116D220A168A1183129E
:10263C000313A401A40A02300A168A11B3220A1643
:10264C008A11F93083120313A5009030A6000A16E4
:10265C008A116D220A168A11831203130516013092
:10266C00AC070318AD0A0030AD072D08803AFF0007
:10267C0080307F02031D442B0A302C02031C472B95
:10268C00482B082B0A168A15F5260A168A1183126E
:10269C0003130512080083120313AF01AD1F572B50
:1026AC00582B5F2BAC09AD09AC0A0319AD0AAF016D
:1026BC00AF0AAB1F622B632B682BAA09AB09AA0AC2
:1026CC000319AB0A2A082B0403196D2B6E2B9D2BB7
:1026DC00AE01AE0A7C2B01300310AA0DAB0DFF3EF0
:1026EC00031D722B0130FF007F08AE07AB1F7F2B41
:1026FC00802B712B2B082D02031D862B2A082C02F4
:10270C00031C892B8A2B902B2A08AC022B08031C48
:10271C00AD03AD0201300310AB0CAA0CFF3E031D40
:10272C00912B0130AE02031D9C2B9D2B802B2F086F
:10273C000319A12BA22BA72BAC09AD09AC0A0319C9
:10274C00AD0A2D08AB002C08AA00080000300A16B0
:10275C008A1582270A168A111A3083120313A500D0
:10276C00F730A400A40BB82BA50BB82BBD2B033052
:10277C000A168A154A270A168A1107308312031380
:10278C00A5007C30A400A40BC92BA50BC92B000001
:10279C0003300A168A154A270A168A110F3083123B
:1027AC000313A5004730A400A40BDA2BA50BDA2BDE
:1027BC0003300A168A154A270A168A1102300A169D
:1027CC008A154A270A168A1102300A168A154A27D0
:1027DC000A168A1108300A168A154A270A168A110F
:1027EC0000300A168A154A270A168A110C300A1666
:1027FC008A154A270A168A1100300A168A154A27A2
:10280C000A168A1106300A168A154A270A168A11E0
:10281C000800F2007208063E84000130831780071E
:10282C00840A0318800A7208063E84000008F0002F
:10283C00840A0008F100003071023C300319700268
:10284C00031C292C2A2C752C7208063E840080014E
:10285C00840A80017208043E840001308007840AD7
:10286C000318800A7208043E84000008F000840AF1
:10287C000008F100003071023C3003197002031C97
:10288C00482C492C752C7208043E84008001840A63
:10289C0080017208023E840001308007840A03180C
:1028AC00800A7208023E84000008F000840A0008C6
:1028BC00F10000307102FA3003197002031C672C0E
:1028CC00682C752C7208023E84008001840A8001F9
:1028DC007208840001308007840A0318800A0800FB
:1028EC0083120313AF01AB1F7C2C7D2C842CAA0903
:1028FC00AB09AA0A0319AB0AAF01AF0AAD1F872CAB
:10290C00882C912CAC09AD09AC0A0319AD0A013025
:10291C00FF007F08AF06B001B1012A082B04031990
:10292C00982C992CD02CAE01AE0AA72C0130031098
:10293C00AA0DAB0DFF3E031D9D2C0130FF007F083F
:10294C00AE07AB1FAA2CAB2C9C2C01300310B00D86
:10295C00B10DFF3E031DAC2C2B082D02031DB82C12
:10296C002A082C02031CBB2CBC2CC32C2A08AC023E
:10297C002B08031CAD03AD02301401300310AB0C5B
:10298C00AA0CFF3E031DC42C0130AE02031DCF2C3C
:10299C00D02CAB2C2F080319D42CD52CDA2CB00945
:1029AC00B109B00A0319B10A3108AB003008AA000A
:1029BC000800031083120313220D230DA90029080C
:1029CC00031DE92CEA2CF32C0030A3000030A200EC
:1029DC000030A1000030A000562D2008A4002108D2
:1029EC00A5002208A6002308A7001F300310A70C7F
:1029FC00A60CA50CA40CFF3E031DFC2C2408A8005F
:102A0C00A217FF30A005FF30A105FF30A205003052
:102A1C00A3059630A902A91F142D152D2F2D2908B9
:102A2C00803A973E03181B2D1C2D1D2DEA2C0130CE
:102A3C000310A30CA20CA10CA00CFF3E031D1E2D19
:102A4C000130FF007F08A907031D2D2D2E2D1D2DF4
:102A5C00462D20302902031C342D352D412DEA2C16
:102A6C000130A4000310A00DA10DA20DA30DA40B09
:102A7C00382D0130A9022908031D452D462D362D70
:102A8C00280803194A2D4B2D562DA009A109A2097E
:102A9C00A309A00A0319A10A0319A20A0319A30A7C
:102AAC0008000B1D5A2D5B2DD92D0B113D308312B7
:102ABC00031381000130EE070318EF0A0030EF0713
:102ACC0014306E066F04031D6C2D6D2DD92DEE0187
:102ADC00EF01AA300A168A110F240A168A11013046
:102AEC00F9070318FA0A0030FA073C3079067A0421
:102AFC00031D812D822D842DF901FA017C08F10032
:102B0C007B08F000831603172D08F3002C08F20045
:102B1C000A168A1534270A168A117B08013EF00022
:102B2C007C080318013E003EF100831603172F08A2
:102B3C00F3002E08F2000A168A1534270A168A1199
:102B4C007B08023EF0007C080318013E003EF100B9
:102B5C00831603173108F3003008F2000A168A15A1
:102B6C0034270A168A117B08033EF0007C080318F0
:102B7C00013E003EF100831603172B08F3002A08D0
:102B8C00F2000A168A1534270A168A117C08F100FD
:102B9C007B08F000FB30F2000030F3000A168A15B7
:102BAC00A2270A168A1178088A0077088400760E04
:102BBC008300FE0E7E0E090083120313A800280862
:102BCC000319E92DEA2DFE2DA31FED2DEE2DFE2D63
:102BDC002009AA002109AB002209AC002309AD0091
:102BEC00AA0A0319AB0A0319AC0A0319AD0A062E7B
:102BFC002308AD002208AC002108AB002008AA0075
:102C0C002308220421042004031D0D2E0E2E172E42
:102C1C000030A3000030A2000030A1000030A00062
:102C2C009B2E9630A900272E0130FF007F08A907A4
:102C3C0001300310AD0CAC0CAB0CAA0CFF3E031D09
:102C4C001F2EFE302D05031D2C2E2D2E1A2E492E37
:102C5C000130FF007F08A9070130AA0700300318D4
:102C6C000130AB07003003180130AC0700300318FB
:102C7C000130AD0701300310AD0CAC0CAB0CAA0C41
:102C8C00FF3E031D412EFF302D05031D4E2E4F2EF2
:102C9C002E2E5B2E0130A9020130A4000310AA0DC8
:102CAC00AB0DAC0DAD0DA40B542EAC1B5E2E5F2EDC
:102CBC00652E023029020318642E652E502E291819
:102CCC00682E692E712EFF30AA05FF30AB057F30C0
:102CDC00AC05FF30AD050310A90C2908A400A50113
:102CEC00A601A70118300310A40DA50DA60DA70D64
:102CFC00FF3E031D792E2408AA042508AB042608E0
:102D0C00AC042708AD04280803198D2E8E2E932EA3
:102D1C00A31F912E922E932EAD172D08A3002C08D5
:102D2C00A2002B08A1002A08A00008008316031398
:102D3C00860105120914891487140715091507143F
:102D4C00871508148514051585150A168A11AC23E8
:102D5C000A168A1183160313071387170510851299
:102D6C000712871201308800023083120313D60039
:102D7C000430D500B930D400D40BC22ED50BC22EE2
:102D8C00D60BC22EC92E8312031305120130A600D6
:102D9C000030A7000A128A11EB270A168A11831237
:102DAC000313270883160317AD0083120313260899
:102DBC0083160317AC00023083120313A6000030F5
:102DCC00A7000A128A11EB270A168A118312031321
:102DDC00270883160317AF008312031326088316E4
:102DEC000317AE00033083120313A6000030A700B4
:102DFC000A128A11EB270A168A1183120313270869
:102E0C0083160317B10083120313260883160317C6
:102E1C00B000043083120313A6000030A7000A127E
:102E2C008A11EB270A168A118312031327088316BB
:102E3C000317AB0083120313260883160317AA008B
:102E4C0083160313811281110115811401148B1740
:102E5C000B178B160A168A15F5260A168A11831279
:102E6C000313A401A40A01300A168A11B3220A160C
:102E7C008A11BD3083120313A5009030A6000A16E8
:102E8C008A116D220A168A1183120313A401A40A53
:102E9C0002300A168A11B3220A168A11DC30831208
:102EAC000313A5009030A6000A168A116D220A168B
:102EBC008A11113083120313A40002300A168A11EE
:102ECC00B3220A168A116F3083120313A5009130B6
:102EDC00A6000A168A116D220A168A110630831270
:102EEC000313D6001330D500AD30D400D40B7C2F97
:102EFC00D50B7C2FD60B7C2F0A168A15F5260A16B5
:102F0C008A110C308316031399000A168A151027A0
:102F1C000A168A1183160317A601A7018316031339
:102F2C009F171F08F03904389F00831203131F08E2
:102F3C003F3980389F001F148710091109100711A1
:102F4C000710891001308316031794000030950088
:102F5C0083160317A201A3018316031723088312F8
:102F6C000313A70083160317220883120313A6006A
:102F7C000A128A11EB270A168A11831203132708E7
:102F8C0083160313E5008312031326088316031319
:102F9C00E400640A6504031DD42FD52FE92F831692
:102FAC000317230883120313A100831603172208A7
:102FBC0083120313A0000030A200A3000A168A1586
:102FCC0066270A168A11013083160317A207031805
:102FDC00A30A0030A3072308803AFF0080307F0249
:102FEC00031DFA2FFF302202031CFF2F0A128A1135
:042FFC003128B22F97
:103DEA0000300A168A154A270A168A1501300A1659
:103DFA008A154A270A168A15080083120313A00097
:103E0A0083160313981C0A2F0B2F052F83120313F3
:103E1A002008990008002430831603139800903074
:103E2A008312031398000C3083160313990083122C
:103E3A0003139901080083120313A100A0013A3069
:103E4A0021020318292F2A2F322F30302102031C76
:103E5A002F2F302F322FA001A00A200C0800700843
:103E6A00831203178D0072088C00831603170C1532
:103E7A008B1355308D00AA308D008C148B170C11C2
:103E8A008C18482F492F452F080083120313A300CB
:103E9A00861223080A168A1582270A168A15831299
:103EAA0003130616063083120313A2002F30A10053
:103EBA00A10B5D2FA20B5D2F622F83120313061233
:103ECA000800831203132008831203178D0083123C
:103EDA0003132208831203178C00831603170C1589
:103EEA008B1355308D00AA308D008C148B170C1152
:103EFA008C18802F812F7D2F080083120313A000B6
:103F0A00201C882F892F8B2F86158C2F8611A01C99
:103F1A008F2F902F922F0615932F0611201D962F63
:103F2A00972F992F86149A2F8610A01D9D2F9E2FAA
:103F3A00A02F0614A12F06100800F401F501701C29
:103F4A00A72FA82FAE2F7208F4070318F50A7308D3
:103F5A00F50701300310F20DF30DFF3E031DAF2FDD
:103F6A0001300310F10CF00CFF3E031DB62F700850
:103F7A007104031DC12FC22FA42F7508F100740804
:103F8A00F000080083120313A40024080F39A200CA
:103F9A002408F039A30086162308A1000430031070
:103FAA00A10CFF3E031DD42F21080A168A15822769
:103FBA000A168A158312031306160C30831203138A
:103FCA00A100A10BE62F0000831203130612220898
:103FDA000A168A1582270A168A15831203130616E9
:103FEA000C3083120313A100A10BF92F00008312D6
:063FFA000313061208008B
:02400E00793FF8
:00000001FF
