:060000000A128A110E280D
:10000800FE00030EF6000408F7000A08F8000A12BA
:100018008A11BC2E0A128A1111280A128A11FB278A
:100028000A128A11FB000A128A11FC270A128A1185
:10003800FC0083160317AA01AB01AC01AD01AE01A8
:10004800AF01B001B101B20183120313EE01EF0158
:10005800F901FA0183010A168A11CD2C83160317B8
:1000680014081504031939283A288A288312031317
:1000780009193F284028512809184328442851289D
:10008800071847284828512889184B284C285128F0
:1000980083160317940195018A28A401A40A013044
:1000A8000A168A11D8210A128A11AB308312031357
:1000B800A5009830A6000A168A1192210A128A1100
:1000C80083120313A401A40A02300A168A11D82144
:1000D8000A128A11963083120313A5009830A600DD
:1000E8000A168A1192210A128A1103308312031305
:1000F800D6008A30D5005530D400D40B8128D50BD2
:100108008128D60B81280A128A15FD2F8312031322
:1001180087198F2892280A128A15F52E081895280B
:1001280096288F28831603172A08031D9C289D28C4
:100138008F28831203130919A228A328B2280918A3
:10014800A628A728B2280718AA28AB28B2288918F1
:10015800AE28AF28B22883160317AA017B08013EF0
:1001680083120313A6007C080318013E003EA70073
:100178000A168A15D5270A128A118312031327082B
:1001880083160313E7008312031326088316031349
:10019800E6007C0883120313A1007B08A000FA3054
:1001A800A2000030A3000A168A116A200A128A11D6
:1001B800831203132008D4002108D5007C08A70067
:1001C8007B08A6000A168A15D5270A128A118312F7
:1001D800031326085407D60027080318270A5507CB
:1001E800D7005608EE3E83160317920083120313B6
:1001F80057080318013E023E83160317930013089D
:1002080083120313A700831603171208831203131C
:10021800A6000A168A15D5270A128A118312031313
:10022800270883160317A9008312031326088316C9
:100238000317A800293083120313AC009930AD00CE
:1002480083160317290883120313AF0083160317B5
:10025800280883120313AE0083160313670883125A
:100268000313B10083160313660883120313B00047
:10027800B4300A128A11C5240A128A110A3083126C
:100288000313A40001300A168A11D8210A128A1110
:10029800EE3083120313A5009830A6000A168A11BF
:1002A80092210A128A110B3083120313A400013021
:1002B8000A168A11D8210A128A11B430831203133C
:1002C800A5000030A6000A168A1192210A128A1186
:1002D800F43083120313AA000130AB00831603170E
:1002E800290883120313AD00831603172808831205
:1002F8000313AC000A168A1176220A128A11831295
:1003080003132A082B04031D8A298B299329831692
:10031800031728082904031D92299329E329F43097
:1003280083120313AA000130AB00831603172908B0
:1003380083120313AD0083160317280883120313CF
:10034800AC000A168A1176220A128A118312031344
:100358002A032B04031DB129B229BA2983160317CE
:1003680028032904031DB929BA29E329F430831283
:100378000313AA000130AB00831603172908831260
:100388000313AD0083160317280883120313AC0068
:100398000A168A1176220A128A110230831203136E
:1003A8002A062B04031DD929DA29EE2902308316DF
:1003B8000317280629040319E229E329EE292F083F
:1003C8003004031DE829E929EE290A168A11242296
:1003D8000A128A11831203131F08C73910389F00A5
:1003E8000F3083120313D400D40BF829FB2983128E
:1003F80003131F151F19012A022AFE298316031346
:100408001E0883120313D400D5011E08D600D70195
:100418005608D700D60154085604A00055085704BA
:10042800A100A201A11BA2032208A30001300A1601
:100438008A1113240A128A118312031323088316BC
:100448000313D50083120313220883160313D40061
:1004580083120313210883160313D3008312031393
:10046800200883160313D200443083120313A30019
:100478008030A2000030A1000030A00083160313D2
:10048800550883120313A700831603135408831215
:100498000313A60083160313530883120313A5003E
:1004A80083160313520883120313A4000A168A1131
:1004B80031260A128A1183120313230883160313A1
:1004C800D90083120313220883160313D80083125A
:1004D8000313210883160313D7008312031320087C
:1004E80083160313D600831203131F08C73918385D
:1004F8009F000F3083120313D400D40B812A842A5F
:10050800831203131F151F198A2A8B2A872A1E088C
:1005180083160313E3001E08E2005908831203132D
:10052800BD0083160313580883120313BC008316F7
:100538000313570883120313BB00831603135608CB
:1005480083120313BA00831603136208831203137A
:10055800A00083160313630883120313A10000305D
:10056800A11BFF30A200A30001300A168A11132430
:100578000A128A11831203132308C1002208C0003B
:100588002108BF002008BE000A128A1531200A126D
:100598008A11831203133D0883160313E1008312A3
:1005A80003133C0883160313E000831203133B086C
:1005B80083160313DF00831203133A088316031309
:1005C800DE00403083120313BD004030BC00003011
:1005D800BB000030BA0083160313610883120313AB
:1005E800C10083160313600883120313C000831627
:1005F80003135F0883120313BF00831603135E08F7
:1006080083120313BE000A128A1531200A128A11B6
:10061800831203133D0883160317A10083120313E3
:100628003C0883160317A000831203133B088316A4
:1006380003179F00831203133A08831603179E00BB
:10064800E83083120313AA000330AB0083160317A4
:10065800210883120313A3008316031720088312AB
:100668000313A200831603171F0883120313A100A4
:10067800831603171E0883120313A0000A168A1193
:100688009B230A128A11831203132108AD00200844
:10069800AC000A128A1192270A128A1183120313D4
:1006A8002B08831603179D00831203132A08831649
:1006B80003179C00643083120313AA000030AB00B8
:1006C80083160317210883120313A3008316031745
:1006D800200883120313A200831603171F0883122E
:1006E8000313A100831603171E0883120313A00027
:1006F8000A168A119B230A128A11831203132008EF
:10070800D4002108D5002208D6002308D700831674
:1007180003171D0883120313A100831603171C086F
:1007280083120313A0001830A200FC30A3000A169D
:100738008A116A200A128A118312031320085407A7
:10074800AC0021080318210A5507AD000A128A11C6
:1007580092270A128A11831203132B088316031790
:100768009B00831203132A08831603179A000A3082
:1007780083120313AA000030AB0083160317210865
:1007880083120313A300831603172008831203138D
:10079800A200831603171F0883120313A1008316F0
:1007A80003171E0883120313A0000A168A119B233D
:1007B8000A128A11831203132008D4002108D500D5
:1007C8002208D6002308D700831603171D088312B2
:1007D8000313A100831603171C0883120313A00038
:1007E8001830A200FC30A3000A168A116A200A12E7
:1007F8008A118312031320085407D800210803180C
:10080800210A5507D900831603171B0883120313FF
:10081800A100831603171A0883120313A0009C3043
:10082800A200FF30A3000A168A116A200A128A1150
:100838008312031320085807AC0021080318210A63
:100848005907AD000A128A1192270A128A118312D7
:1008580003132B0883160313E900831203132A08D2
:1008680083160313E8000A3083120313AA0000302A
:10087800AB0083160317210883120313A300831602
:100888000317200883120313A200831603171F08F7
:1008980083120313A100831603171E088312031380
:1008A800A0000A168A119B230A128A1183120313C5
:1008B8002108AD002008AC000A168A1176220A1217
:1008C8008A11831203132B0883160313EB00831278
:1008D80003132A0883160313EA00831203131F085D
:1008E800C73908389F000F3083120313D400D40B84
:1008F8007B2C7E2C831203131F151F19842C852C27
:10090800812C831603131E0883120313D400D50108
:100918001E08D600D7015608D700D6015408560439
:10092800A00055085704A100A201A11BA203220898
:10093800A30001300A168A1113240A128A1183129D
:10094800031323088316031799008312031322083D
:1009580083160317980083120313210883160317BD
:100968009700831203132008831603179600831237
:1009780003130919C22C0A128A15762B0A128A1532
:10098800A42B83120313C2002E30BB00A12E2530E6
:1009980041060319D02CD12CDB2C420884004108D5
:1009A800831380000130FF007F08C207A12EBF011A
:1009B800C001BE01E62C3E150130AC070318AD0A94
:1009C8000030AD072D08FF002C0884000A168A1590
:1009D80000200A128A11B600B7013708003A031935
:1009E800F62CFB2C3608303A0319DF2CFB2C2D088B
:1009F800FF002C0884000A168A1500200A128A11A2
:100A08000A168A15C1270A128A11031C0C2D0D2DEE
:100A1800562D83120313BF01C0010A30831203133A
:100A2800A0000030A1004008A3003F08A2000A1659
:100A38008A116A200A128A11831203132108C0003E
:100A48002008BF002D08FF002C0884000A168A150C
:100A580000200A128A11D03EB600FF300318003079
:100A6800B7003608BF070318C00A3708C0070130A7
:100A7800AC070318AD0A0030AD072D08FF002C089D
:100A880084000A168A1500200A128A110A168A1585
:100A9800C1270A128A110318522D532D112D562DD4
:100AA8003E177E2D831203132D08B7002C08B600BD
:100AB800AC0A0319AD0A3708FF00360884000A1685
:100AC8008A1500200A128A11C100B800B901390834
:100AD800003A0319702DA12E3808003A0319B72ED1
:100AE800643A03197E2D0D3A03197E2D1C3A031919
:100AF800542DA12E3E1B812D822D9C2D3B08840058
:100B080083130008BC00840A0008BD000230FF00FF
:100B18007F08BB07BD1F912D922DA82D0330FF0024
:100B28007F08BE04BC09BD09BC0A0319BD0AA82D6B
:100B38003B08840083130008BC00840A0008BD0039
:100B48000230FF007F08BB07C101C10A4108B60097
:100B58003607123E840098300318013EFF000A163B
:100B68008A1500200A128A11B7000A168A15002071
:100B78000A128A11B80038083D02031DC52D37082E
:100B88003C020318C82DC92DCA2DD42D0130FF00F1
:100B98007F08C10705304106031DD32DD42DAA2D8A
:100BA8003F0840040319D92DDA2DE62D3E080339F4
:100BB8000319DF2DE02DE62DFF30BF070318C00A0B
:100BC800FF30C0074008803A803C031DED2D3F08E8
:100BD80041020318F02DF12DFD2D83120313410856
:100BE800B600B7013608BF023708031CC003C002AD
:100BF800012E83120313BF01C0013E1D042E052ED2
:100C0800302E3E08033903190A2E0B2E142E4208E3
:100C180084002D30831380000130FF007F08C20755
:100C28003F0840040319192E1A2E5A2E4208840030
:100C38003030831380000130FF007F08C207FF3087
:100C4800BF070318C00AFF30C0073F084004031D50
:100C58002E2E2F2E1A2E5A2E3F0840040319352EF9
:100C6800362E4B2E4208840020308313800001303A
:100C7800FF007F08C207FF30BF070318C00AFF3014
:100C8800C0073F084004031D4A2E4B2E362E3E084F
:100C980003390319502E512E5A2E420884002D3044
:100CA800831380000130FF007F08C2074108BA00A3
:100CB800982E0A30A7000030A8003A08B600360778
:100CC800123E840098300318013EFF000A168A1568
:100CD80000200A128A11A0000A168A1500200A129A
:100CE8008A11A1003D08A3003C08A2000A168A1137
:100CF8004C210A128A11831203132108AA00200822
:100D0800A9000A168A11CA200A128A11831203132B
:100D18002708303EC1004208840041088313800040
:100D28000130FF007F08C207FF30FF007F08BA07C5
:100D38003A0A031DA02EA12E5D2E2D08B7002C08FF
:100D4800B600AC0A0319AD0A3708FF00360884005C
:100D58000A168A1500200A128A11C1004108031DCB
:100D6800B62EB72ECB2C42088400831380010800CE
:100D78000B1DBF2EC02E892F0B113D30831203137C
:100D880081000130EE070318EF0A0030EF07143036
:100D98006E066F04031DD12ED22E892FEE01EF01AE
:100DA800AB300A168A1134230A128A110130F90766
:100DB8000318FA0A0030FA073C3079067A04031D52
:100DC800E62EE72EE92EF901FA017C08F1007B08EE
:100DD800F000831603172E08F3002D08F2000A16F8
:100DE8008A15EA270A128A117B08013EF0007C085E
:100DF8000318013E003EF100831603173008F30084
:100E08002F08F2000A168A15EA270A128A117B08A7
:100E1800023EF0007C080318013E003EF1008316F4
:100E280003173208F3003108F2000A168A15EA2778
:100E38000A128A117B08033EF0007C080318013E61
:100E4800003EF100831603172C08F3002B08F2006C
:100E58000A168A15EA270A128A117C08F1007B080B
:100E6800F0000A168A1101200A128A11F930700658
:100E78007104031D402F412F892F7B08013EF0008C
:100E88007C080318013E003EF1000A168A11012071
:100E98000A128A113B3070067104031D542F552F16
:100EA800892F7B08073EF0007C080318013E003EAE
:100EB800F1007B08033EF2007C080318013E003E67
:100EC800F3000A168A15EA270A128A117B08033EDC
:100ED800F0007C080318013E003EF1000A168A1152
:100EE80001200A128A117008F4007108F500031035
:100EF800F40DF50D0310F40DF50D7B087407FB00D8
:100F08007C0803187C0A7507FC0078088A007708B3
:100F18008400760E8300FE0E7E0E090083120313F2
:100F2800AF01AB1F982F992FA02FAA09AB09AA0AC6
:100F38000319AB0AAF01AF0AAD1FA32FA42FAD2F22
:100F4800AC09AD09AC0A0319AD0A0130FF007F08EE
:100F5800AF06B001B1012A082B040319B42FB52F2D
:100F6800EC2FAE01AE0AC32F01300310AA0DAB0D52
:100F7800FF3E031DB92F0130FF007F08AE07AB1FEE
:100F8800C62FC72FB82F01300310B00DB10DFF3E8B
:100F9800031DC82F2B082D02031DD42F2A082C024D
:100FA800031CD72FD82FDF2F2A08AC022B08031CCD
:100FB800AD03AD02301401300310AB0CAA0CFF3E98
:100FC800031DE02F0130AE02031DEB2FEC2FC72FBE
:100FD8002F080319F02FF12FF62FB009B109B00A25
:100FE8000319B10A3108AB003008AA00080001341F
:020FF8000034C3
:1010100083120313A800A401A5012008A200A301C4
:101020002208A6002308A700281C172818281E2815
:101030002608A4070318A50A2708A50701300310EE
:10104000A60DA70DFF3E031D1F280310A80C28089E
:10105000031D2B282C2814282508A1002408A000F3
:101060000800831203133D088039C7003D08C20001
:101070004207CD00BC1F3D283E283F284D144D0897
:1010800003194328442853284D0A031D482849289A
:1010900051280030BD000030BC000030BB000030E3
:1010A000BA00BC175B280030BD000030BC00003027
:1010B000BB000030BA0041088039FF007F08C70636
:1010C0004108C2004207CC00C01F67286828692871
:1010D0004C144C0803196D286E287D284C0A031DFA
:1010E000722873287B280030C1000030C000003017
:1010F000BF000030BE00C01785280030C10000309E
:10110000C0000030BF000030BE004C080319892821
:101110008A288F284D08031D8E288F289828003094
:10112000BD000030BC000030BB000030BA00752BA1
:101130003A08A00040080A128A1508200A128A15E7
:10114000831203132108D3002008D2005208C200E2
:10115000C301C401C5014508CB004408CA004308C7
:10116000C9004208C8005308C200C301C401C50138
:101170004508D1004408D0004308CF004208CE0003
:101180003B08A0003F080A128A1508200A128A1597
:10119000831203132108D3002008D2005208C20092
:1011A000C301C401C5014208C8074308031103185D
:1011B000013E0319DC28C907440803110318013E46
:1011C0000319E328CA07450803110318013E031950
:1011D000EA28CB075308C200C301C401C501420875
:1011E000CE07430803110318013E0319F828CF075F
:1011F000440803110318013E0319FF28D0074508CE
:1012000003110318013E03190629D1073C08A00069
:101210003E080A128A1508200A128A15831203133F
:101220002108D3002008D2005208C200C301C40123
:10123000C5014208C807430803110318013E0319FA
:101240002229C907440803110318013E031929295B
:10125000CA07450803110318013E03193029CB07BB
:101260005308C200C301C401C5014208CE074308A8
:1012700003110318013E03193E29CF074408031147
:101280000318013E03194529D00745080311031827
:10129000013E03194C29D1070830C2000310C80DC4
:1012A000C90DCA0DCB0DC20B4E293B08A0003E084C
:1012B0000A128A1508200A128A15831203132108BC
:1012C000D3002008D2005208C2005308C300C40152
:1012D000C5014208C807430803110318013E03195A
:1012E0007229C907440803110318013E031979291B
:1012F000CA07450803110318013E03198029CB07CB
:101300003A08A0003F080A128A1508200A128A1516
:10131000831203132108D3002008D2005208C20010
:101320005308C300C401C5014208C807430803119C
:101330000318013E03199D29C90744080311031826
:10134000013E0319A429CA07450803110318013EE9
:101350000319AB29CB070830C2000310C80DC90D13
:10136000CA0DCB0DC20BAD293A08A0003E080A12E7
:101370008A1508200A128A15831203132108D30044
:101380002008D2005208C2005308C300C401C5019E
:101390004208C807430803110318013E0319D12965
:1013A000C907440803110318013E0319D829CA07C5
:1013B000450803110318013E0319DF29CB073B0839
:1013C000A00040080A128A1508200A128A15831202
:1013D00003132108D3002008D2005208C20053088A
:1013E000C300C401C5014208CE0743080311031816
:1013F000013E0319FC29CF07440803110318013EDD
:101400000319032AD007450803110318013E0319E5
:101410000A2AD1073C08A0003F080A128A150820B2
:101420000A128A15831203132108D3002008D20060
:101430005208C2005308C300C401C5014208CE07C8
:10144000430803110318013E0319272ACF07440854
:1014500003110318013E03192E2AD0074508031172
:101460000318013E0319352AD1073C08A0004008A3
:101470000A128A1508200A128A15831203132108FA
:10148000D3002008D2005208C2005308C300C40190
:10149000C50108300310C20DC30DC40DC50DFF3EBC
:1014A000031D4A2A4208CE07430803110318013ED0
:1014B00003195B2ACF07440803110318013E0319DF
:1014C000622AD007450803110318013E0319692A4F
:1014D000D1074808C2004908C3004A08C4004B08A5
:1014E000C50018300310C50CC40CC30CC20CFF3E61
:1014F000031D722A4208CE07430803110318013E58
:101500000319832ACF07440803110318013E031966
:101510008A2AD007450803110318013E0319912AAE
:10152000D1070830C2000310C80DC90DCA0DCB0D7C
:10153000C20B932A4D084C07C200C301C30D4208D9
:10154000823ED20043080318013EFF3ED300C52A65
:101550000130C2000310CE0DCF0DD00DD10DC20B46
:10156000AA2ACB1FB42AB52AB62A4E140130C200CB
:101570000310C80DC90DCA0DCB0DC20BB82AFF3020
:10158000D2070318D30AFF30D307D01FC82AC92AAD
:10159000A82ACC01CB1FCD2ACE2AEA2AFF30480543
:1015A000C200FF304905C300FF304A05C4007F3048
:1015B0004B05C50045084404430442040319E12ACD
:1015C000E22AE52ACC01CC0AEA2A4E1CE82AE92ABA
:1015D000EA2AE22A4C080319EE2AEF2A202B0130CE
:1015E000CE07003003180130CF0700300318013058
:1015F000D007003003180130D107511C002B012BFC
:10160000202B4E08C2004F08C3005008C4005108E8
:10161000C5000130C600450DC50CC40CC30CC20C7E
:10162000C60B0B2B4508D1004408D0004308CF005F
:101630004208CE000130D2070318D30A0030D30786
:101640005308803AFF0080307F02031D292BFF30B2
:101650005202031C2C2B2D2B382B7F3083120313AB
:10166000D1008030D0000030CF000030CE00692B98
:10167000831203135308803AFF0080307F02031D5A
:10168000432B013052020318462B472B532B0030BB
:1016900083120313D1000030D0000030CF0000309F
:1016A000CE00C701692B831203135208CD00FF300F
:1016B000CE05FF30CF057F30D0050030D1054D1C61
:1016C000622B632B642BD0174D08C2000310420C11
:1016D000D1004708FF007F08D1045108BD00500821
:1016E000BC004F08BB004E08BA0008000718792B51
:1016F0007A2BA42B83160317190883120313A30054
:1017000083160317180883120313A2008316031706
:10171000170883120313A1008316031716088312F8
:101720000313A0000A168A119B230A128A1583123A
:101730000313210D210C83160317A7008312031333
:10174000200C83160317A600443083120313BD0038
:101750007A30BC000030BB000030BA004430A30037
:101760008030A2000030A1000030A00083160317D3
:10177000190883120313A70083160317180883128E
:101780000313A60083160317170883120313A5007B
:1017900083160317160883120313A4000A168A116E
:1017A00031260A128A15831203132308C100220866
:1017B000C0002108BF002008BE000A128A1531208F
:1017C0000A128A15831203133D0883160313DD00E2
:1017D000831203133C0883160313DC0083120313E4
:1017E0003B0883160313DB00831203133A088316A6
:1017F0000313DA0083120313A401A40A02300A16A9
:101800008A11D8210A128A15343083120313A500D5
:101810009930A6000A168A1192210A128A1574308C
:1018200083120313AC009930AD00831603135D08D7
:1018300083120313A300831603135C08831203139C
:10184000A200831603135B0883120313A1008316FF
:1018500003135A0883120313A0000A168A119B234C
:101860000A128A15831203132108AF002008AE0064
:10187000EC300A128A11C5240A128A150A30831222
:101880000313A40002300A168A11D8210A128A15FD
:10189000EC3083120313A5000030A6000A168A114B
:1018A00092210A128A1583120313A401A40A01309B
:1018B0000A168A11D8210A128A157F30831203135F
:1018C000A5009930A6000A168A1192210A128A15DB
:1018D000523083120313AC009930AD008316031706
:1018E0001D0883120313AF00831603171C0883120D
:1018F0000313AE00831603171B0883120313B100F2
:10190000831603171A0883120313B00083160313F8
:10191000690883120313B300831603136808831244
:101920000313B200831603136B0883120313B5006D
:10193000831603136A0883120313B400CD300A120E
:101940008A11C5240A128A15053083120313A400D4
:1019500001300A168A11D8210A128A15CD30831255
:101960000313A5000030A6000A168A1192210A125C
:101970008A1583120313871CBE2CBF2CEC2C09186C
:10198000C22CC32CC72C091DC62CC72CEC2C8316CB
:101990000317AA01AA0A0D3083120313A400023010
:1019A0000A168A11D8210A128A155C308312031391
:1019B000A5009930A6000A168A1192210A128A15EA
:1019C0007A3083120313A1009930A2000A168A11FB
:1019D00006210A128A15D12E091DEF2CF02CF42CA9
:1019E0000918F32CF42CFC2C091DF72CF82C522D83
:1019F0008918FB2CFC2C522D0D30A40002300A1645
:101A00008A11D8210A128A153E3083120313A500C9
:101A10009930A6000A168A1192210A128A150330FB
:101A20008316031727022030031926020318192DE5
:101A30001A2DD12E5030A6070318A70A0030A70789
:101A400003302702213003192602031C282D292DDB
:101A50002D2D2030A6000330A7006E308312031313
:101A6000AC009930AD0083160317270883120313C7
:101A7000AF0083160317260883120313AE00BD3090
:101A80000A128A11C5240A128A15BD308312031363
:101A9000A1000030A2000A168A1106210A128A1536
:101AA000D12ED12E091C552D562D8D2D0D30A40073
:101AB00002300A168A11D8210A128A15E2308312DE
:101AC0000313A5009830A6000A168A1192210A1263
:101AD0008A156E3083120313AC009930AD00831663
:101AE0000317270883120313AF0083160317260872
:101AF00083120313AE005A300A128A11C5240A1247
:101B00008A155A3083120313A1000030A2000A166E
:101B10008A1106210A128A15D12E071D902D912DAA
:101B2000BE2D8918942D952D992D071C982D992D32
:101B3000BE2D83160317AA01AA0A0D3083120313C0
:101B4000A40002300A168A11D8210A128A156530BB
:101B500083120313A5009930A6000A168A11922158
:101B60000A128A157A3083120313A1009930A20059
:101B70000A168A1106210A128A15D12E071CC12DB8
:101B8000C22DC62D8918C52DC62DCE2D071CC92DD9
:101B9000CA2D5F2E0918CD2DCE2D5F2E0D30A4003D
:101BA00002300A168A11D8210A128A154830831287
:101BB0000313A5009930A6000A168A1192210A1271
:101BC0008A1583160317260983120313D40083167C
:101BD0000317270983120313D500D40A0319D50A62
:101BE000540883160317A4008312031355088316A1
:101BF0000317A5002508803AFF007C307F02031DF3
:101C0000032EE1302402031C062E072E512DB03086
:101C100083160317A4070318A50AFF30A507250894
:101C2000803AFF007C307F02031D182EE030240232
:101C300003181B2E1C2E222EE03083160317A4003F
:101C4000FC30A50083160317240983120313D40064
:101C500083160317250983120313D500D40A031929
:101C6000D50A540883160317A600831203135508D8
:101C700083160317A7006E3083120313AC0099304C
:101C8000AD0083160317250883120313AF008316D4
:101C90000317240883120313AE00C5300A128A11F9
:101CA000C5240A128A15C53083120313A10000301F
:101CB000A2000A168A1106210A128A15D12E891C41
:101CC000622E632EB32E0D30A40002300A168A1144
:101CD000D8210A128A15003083120313A500993007
:101CE000A6000A168A1192210A128A158316031772
:101CF000260983120313D4008316031727098312BE
:101D00000313D500D40A0319D50A54088316031700
:101D100090008312031355088316031791006E3049
:101D200083120313AC009930AD008316031711081A
:101D300083120313AF0083160317100883120313D3
:101D4000AE00A0300A128A11C5240A128A15A030EA
:101D500083120313A1000030A2000A168A11062183
:101D60000A128A15D12E0D30A40002300A168A11EB
:101D7000D8210A128A151C3083120313A50099304A
:101D8000A6000A168A1192210A128A157A30831245
:101D90000313A1009930A2000A168A1106210A1223
:101DA0008A1583120313871CD62ED72EE32E09180B
:101DB000DA2EDB2EDF2E091DDE2EDF2EE32E831220
:101DC00003130516F22E071DE62EE72EF02E8918B6
:101DD000EA2EEB2EDF2E071CEE2EEF2EF02EDF2E3E
:101DE0000512F22E0A168A11DF2D83120313871DA6
:101DF000FA2EFB2E512FA401A40A01300A168A11D3
:101E0000D8210A128A15373083120313A50098309F
:101E1000A6000A168A1192210A128A158312031348
:101E2000A401A40A02300A168A11D8210A128A15BE
:101E30001C3083120313A5009830A6000A168A11DD
:101E400092210A128A157A3083120313A100993065
:101E5000A2000A168A1106210A128A158312031398
:101E60000516063083120313D6001330D500AD30AB
:101E7000D400D40B392FD50B392FD60B392F831221
:101E800003130512103083120313D6003930D50026
:101E90000D30D400D40B4A2FD50B4A2FD60B4A2F26
:101EA000DF2E081C542F552F892F7A30A10099302E
:101EB000A2000A168A1106210A128A158312031338
:101EC000A401A40A01300A168A11D8210A128A151F
:101ED000693083120313A5009830A6000A168A11F0
:101EE00092210A128A1583120313A401A40A023054
:101EF0000A168A11D8210A128A1551308312031347
:101F0000A5009830A6000A168A1192210A128A1595
:101F10002E2F831603172A03031D8F2F902FF22EC7
:101F20007A3083120313A1009930A2000A168A1195
:101F300006210A128A1583120313A401A40A013090
:101F40000A168A11D8210A128A15813083120313C6
:101F5000A5009830A6000A168A1192210A128A1545
:101F600083120313A401A40A02300A168A11D8218D
:101F70000A128A15963083120313A5009830A60022
:101F80000A168A1192210A128A1583120313051662
:101F9000063083120313D6001330D500AD30D400C1
:101FA000D40BD02FD50BD02FD60BD02F83120313E9
:101FB0000512063083120313D6001330D500AD305E
:101FC000D400D40BE12FD50BE12FD60BE12F8312D8
:101FD00003130919EC2FED2FF22E0918F02FF12F12
:101FE000F22E0718F42FF52FF22E8918F82FF92F5B
:101FF000F22E83160317AA01F22E0A128A110E2856
:102002007008831203178D00831603170C148312B2
:1020120003170C08F200F3017208F0007308F100D4
:10202200080083120313A300861223080A168A11DA
:102032004A200A168A1183120313061606308312E7
:102042000313A2002F30A100A10B2528A20B2528E3
:102052002A2883120313061208008312031320088E
:10206200831203178D0083120313220883120317AE
:102072008C00831603170C158B1355308D00AA3074
:102082008D008C148B170C118C1848284928452870
:10209200080083120313A000201C50285128532843
:1020A200861554288611A01C572858285A28061528
:1020B2005B280611201D5E285F286128861462288D
:1020C2008610A01D6528662868280614692806104F
:1020D200080083120313A401A501201C7128722891
:1020E20078282208A4070318A50A2308A5070130A7
:1020F2000310A20DA30DFF3E031D7928013003102A
:10210200A10CA00CFF3E031D802820082104031D02
:102112008B288C286E282508A1002408A00008001E
:1021220083120313A40024080F39A2002408F039F3
:10213200A30086162308A10004300310A10CFF3E61
:10214200031D9E2821080A168A114A200A168A119E
:102152008312031306160C3083120313A100A10B82
:10216200B028000083120313061222080A168A11ED
:102172004A200A168A118312031306160C308312A0
:102182000313A100A10BC32800008312031306123C
:10219200080083120313270828040319D128D22820
:1021A2000129AB01AB0AE02801300310A70DA80DED
:1021B200FF3E031DD6280130FF007F08AB07A81F92
:1021C200E328E428D52828082A02031DEA2827083C
:1021D2002902031CED28EE28F4282708A902280862
:1021E200031CAA03AA0201300310A80CA70CFF3E8D
:1021F200031DF5280130AB02031D00290129E42843
:102202002A08A8002908A700080083120313A601C0
:10221200A7012F2926082107A4002208A3000318DA
:10222200A30AA61F1529A303831203132308A500DB
:102232002508FF00240884000A168A1500200A16C1
:102242008A110A168A15A3270A168A1101308312E7
:102252000313A6070318A70A0030A70726082107B9
:10226200A4002208A3000318A30AA61F3929A30366
:10227200831203132308A5002508FF002408840005
:102282000A168A1500200A168A11003A031D4A29E5
:102292004B290B29080083120313A401A50120086E
:1022A20021040319552956298D29A601A60A642954
:1022B20001300310A00DA10DFF3E031D5A2901306C
:1022C200FF007F08A607A11F672968295929013045
:1022D2000310A40DA50DFF3E031D69292108230249
:1022E200031D752920082202031C782979298029D7
:1022F2002008A2022108031CA303A3022414013014
:102302000310A10CA00CFF3E031D81290130A6027F
:10231200031D8C298D2968292508A1002408A00005
:10232200080083120313AA01AB01BB292A0825075F
:10233200A8002608A7000318A70AAA1FA129A70315
:10234200831203132708A9002908FF002808840024
:102352000A168A1500200A168A110A168A11912075
:102362000A168A11013083120313AA070318AB0A53
:102372000030AB072A082507A8002608A700031883
:10238200A70AAA1FC529A703831203132708A900B6
:102392002908FF00280884000A168A1500200A1658
:1023A2008A11003A031DD629D729972908008312DA
:1023B2000313A6002603031DDF29E029FF292408B1
:1023C2007F3EA9002908A50004300310A50CFF3E9A
:1023D200031DE6292508A70029080F39A8002708A8
:1023E2000A168A1112200A168A1183120313280868
:1023F2000A168A1112200A168A11232A0230260688
:10240200031D042A052A232A2408BF3EA9002908FD
:10241200A50004300310A50CFF3E031D0B2A25085E
:10242200A70029080F39A80027080A168A111220C6
:102432000A168A118312031328080A168A11122017
:102442000A168A1108000A168A1596270A168A1190
:1024520083120313AC01AD0183120313A401A40A76
:1024620001300A168A11D8210A168A11BF30831246
:102472000313A5009830A6000A168A1192210A16A3
:102482008A1183120313A401A40A02300A168A11C4
:10249200D8210A168A110E3083120313A50099302F
:1024A200A6000A168A1192210A168A1183120313B0
:1024B20005160130AC070318AD0A0030AD072D0830
:1024C200803AFF0080307F02031D692A0A302C0205
:1024D200031C6C2A6D2A2D2A0A168A1596270A16BB
:1024E2008A11831203130512080083120313AF012A
:1024F200AD1F7C2A7D2A842AAC09AD09AC0A0319D6
:10250200AD0AAF01AF0AAB1F872A882A8D2AAA0912
:10251200AB09AA0A0319AB0A2A082B040319922A47
:10252200932AC22AAE01AE0AA12A01300310AA0DD3
:10253200AB0DFF3E031D972A0130FF007F08AE0757
:10254200AB1FA42AA52A962A2B082D02031DAB2A0B
:102552002A082C02031CAE2AAF2AB52A2A08AC028A
:102562002B08031CAD03AD0201300310AB0CAA0C07
:10257200FF3E031DB62A0130AE02031DC12AC22A44
:10258200A52A2F080319C62AC72ACC2AAC09AD09E5
:10259200AC0A0319AD0A2D08AB002C08AA000800EA
:1025A20000300A168A114A200A168A111A3083123A
:1025B2000313A500F730A400A40BDD2AA50BDD2A26
:1025C200E22A03300A168A1112200A168A110730EB
:1025D20083120313A5007C30A400A40BEE2AA50BE2
:1025E200EE2A000003300A168A1112200A168A11F6
:1025F2000F3083120313A5004730A400A40BFF2A57
:10260200A50BFF2A03300A168A1112200A168A1114
:1026120002300A168A1112200A168A1102300A168C
:102622008A1112200A168A1108300A168A111220FB
:102632000A168A1100300A168A1112200A168A1105
:102642000C300A168A1112200A168A1100300A1654
:102652008A1112200A168A1106300A168A111220CD
:102662000A168A110800F2007208063E8400013040
:1026720083178007840A0318800A7208063E8400C2
:102682000008F000840A0008F100003071023C30BA
:1026920003197002031C4E2B4F2B9A2B7208063E15
:1026A20084008001840A80017208043E84000130A3
:1026B2008007840A0318800A7208043E8400000816
:1026C200F000840A0008F100003071023C30031966
:1026D2007002031C6D2B6E2B9A2B7208043E840031
:1026E2008001840A80017208023E84000130800762
:1026F200840A0318800A7208023E84000008F0006F
:10270200840A0008F10000307102FA3003197002E5
:10271200031C8C2B8D2B9A2B7208023E84008001A5
:10272200840A80017208840001308007840A031839
:10273200800A0800031083120313220D230DA9003F
:102742002908031DA52BA62BAF2B0030A3000030B8
:10275200A2000030A1000030A000122C2008A4002A
:102762002108A5002208A6002308A7001F30031095
:10277200A70CA60CA50CA40CFF3E031DB82B240825
:10278200A800A217FF30A005FF30A105FF30A20567
:102792000030A3059630A902A91FD02BD12BEB2B19
:1027A2002908803A973E0318D72BD82BD92BA62B72
:1027B20001300310A30CA20CA10CA00CFF3E031DC0
:1027C200DA2B0130FF007F08A907031DE92BEA2B52
:1027D200D92B022C20302902031CF02BF12BFD2BCC
:1027E200A62B0130A4000310A00DA10DA20DA30D74
:1027F200A40BF42B0130A9022908031D012C022C81
:10280200F22B28080319062C072C122CA009A10967
:10281200A209A309A00A0319A10A0319A20A03190A
:10282200A30A080083120313A800280803191A2C0C
:102832001B2C2F2CA31F1E2C1F2C2F2C2009AA006F
:102842002109AB002209AC002309AD00AA0A031931
:10285200AB0A0319AC0A0319AD0A372C2308AD00E1
:102862002208AC002108AB002008AA002308220499
:1028720021042004031D3E2C3F2C482C0030A300D1
:102882000030A2000030A1000030A000CC2C963015
:10289200A900582C0130FF007F08A907013003105E
:1028A200AD0CAC0CAB0CAA0CFF3E031D502CFE3041
:1028B2002D05031D5D2C5E2C4B2C7A2C0130FF0064
:1028C2007F08A9070130AA07003003180130AB07BF
:1028D200003003180130AC07003003180130AD0797
:1028E20001300310AD0CAC0CAB0CAA0CFF3E031D67
:1028F200722CFF302D05031D7F2C802C5F2C8C2C1D
:102902000130A9020130A4000310AA0DAB0DAC0DD9
:10291200AD0DA40B852CAC1B8F2C902C962C023069
:1029220029020318952C962C812C2918992C9A2C63
:10293200A22CFF30AA05FF30AB057F30AC05FF307B
:10294200AD050310A90C2908A400A501A601A70141
:1029520018300310A40DA50DA60DA70DFF3E031DF3
:10296200AA2C2408AA042508AB042608AC042708CC
:10297200AD0428080319BE2CBF2CC42CA31FC22CE3
:10298200C32CC42CAD172D08A3002C08A2002B08C1
:10299200A1002A08A000080083160313860105126D
:1029A20009148914871407150915071487150814C3
:1029B2008514051585150A168A11D1220A168A115F
:1029C2008316031307138717051085120712871240
:1029D20001308800023083120313D6000430D50080
:1029E200B930D400D40BF32CD50BF32CD60BF32C2B
:1029F200FA2C8312031305120130A6000030A7003F
:102A02000A168A15D5270A168A1183120313270874
:102A120083160317AE0083120313260883160317C7
:102A2200AD00023083120313A6000030A7000A167D
:102A32008A15D5270A168A118312031327088316CB
:102A42000317B00083120313260883160317AF007F
:102A5200033083120313A6000030A7000A168A155A
:102A6200D5270A168A118312031327088316031720
:102A7200B20083120313260883160317B100043031
:102A820083120313A6000030A7000A168A15D52761
:102A92000A168A1183120313270883160317AC0040
:102AA20083120313260883160317AB00831603133E
:102AB200811281110115811401148B170B178B16CA
:102AC2000A168A1596270A168A1183120313A4017D
:102AD200A40A01300A168A11D8210A168A11D230A4
:102AE20083120313A5009830A6000A168A119221B8
:102AF2000A168A1183120313A401A40A02300A16C9
:102B02008A11D8210A168A11F13083120313A50003
:102B12009830A6000A168A1192210A168A111130DB
:102B220083120313A40002300A168A11D8210A164E
:102B32008A11843083120313A5009930A6000A1665
:102B42008A1192210A168A11063083120313D600C3
:102B52001330D500AD30D400D40BAD2DD50BAD2D37
:102B6200D60BAD2D0A168A1596270A168A110C3035
:102B72008316031399000A168A15B1270A168A11B9
:102B820083160317A601A701831603139F171F08B5
:102B9200F03904389F00831203131F083F3980382D
:102BA2009F001F14871009110910071107108910BF
:102BB2000130831603179400003095008316031723
:102BC200A201A30183160317230883120313A7008C
:102BD20083160317220883120313A6000A168A1506
:102BE200D5270A168A1183120313270883160313A3
:102BF200E50083120313260883160313E400640A14
:102C02006504031D052E062E1A2E831603172308AC
:102C120083120313A10083160317220883120313DE
:102C2200A0000030A200A3000A168A112E200A1664
:102C32008A11013083160317A2070318A30A003072
:102C4200A3072308803AFF0080307F02031D2B2E4A
:102C5200FF302202031C302E0A128A113228E32D81
:102C62008312031327088039B1002708A800280718
:102C7200B800A61F3D2E3E2E3F2E381438080319E9
:102C8200432E442E542E380A031D482E492E512E0F
:102C92000030A7000030A6000030A5000030A400DC
:102CA200A617A7015C2E0030A7000030A600003056
:102CB200A5000030A40023088039FF007F08B10678
:102CC2002308A8002807B900A21F682E692E6A2EC1
:102CD2003914390803196E2E6F2E7F2E390A031DFF
:102CE200732E742E7C2E0030A3000030A200003020
:102CF200A1000030A000A217A301872E0030A3007C
:102D02000030A2000030A1000030A00023082204FD
:102D120021042004031D8E2E8F2EA82E0030A70022
:102D22000030A6000030A5000030A4008030A604C8
:102D32007F30A7043108FF007F08A7042708A300FB
:102D42002608A2002508A1002408A000FF2F3808A9
:102D5200031DAC2EAD2EB62E0030A3000030A20013
:102D62000030A1000030A000FF2F3808A800A90100
:102D72002908AB0039082802AA00031CAB032A0861
:102D82007F3EB2002B080318013E003EB300270825
:102D9200B0002608AF002508AE002408AD000030C0
:102DA200A7000030A6000030A5000030A4000030CB
:102DB200B7000030B6000030B5000030B400B901F1
:102DC2002C2F39080319E62EE72E072F0130A80011
:102DD2000310AD0DAE0DAF0DB00DA80BE92E0130F5
:102DE200A8000310A40DA50DA60DA70DA80BF22E89
:102DF200B71FFC2EFD2EFE2E24140130A800031056
:102E0200B40DB50DB60DB70DA80B002F2308300277
:102E1200031D152F22082F02031D152F21082E0234
:102E2200031D152F20082D02031C182F192F282FE0
:102E320037172008AD022108031C210FAE02220819
:102E4200031C220FAF022308031C230FB002013020
:102E5200FF007F08B9071A303902031C312F322FC5
:102E6200E22E30082F042E042D040319392F3A2F95
:102E7200592F3414592F0130A8000310A40DA50DA9
:102E8200A60DA70DA80B3E2FB71F482F492F4A2F7B
:102E920024140130A8000310B40DB50DB60DB70D02
:102EA200A80B4C2FFF30B2070318B30AFF30B30749
:102EB200A61F5C2F5D2F3C2FB901B71F612F622F18
:102EC2007E2FFF303405A800FF303505A900FF3002
:102ED2003605AA007F303705AB002B082A042904E7
:102EE20028040319752F762F792FB901B90A7E2F7D
:102EF200241C7C2F7D2F7E2F762F39080319822FD9
:102F0200832FB42F0130A407003003180130A50726
:102F1200003003180130A607003003180130A7075C
:102F2200271C942F952FB42F2408A8002508A90048
:102F32002608AA002708AB000130AC002B0DAB0C11
:102F4200AA0CA90CA80CAC0B9F2F2B08A7002A08CF
:102F5200A6002908A5002808A4000130B20703181A
:102F6200B30A0030B3073308803AFF0080307F0293
:102F7200031DBD2FFF303202031CC02FC12FCF2FE4
:102F8200FF3083120313B2000030B3000030A700F9
:102F92000030A6000030A5000030A4008312031305
:102FA2003308803AFF0080307F02031DDA2F0130A0
:102FB20032020318DD2FDE2FEB2F83120313B2012F
:102FC200B3010030A7000030A6000030A500003099
:102FD200A400B101831203133208B800381CF22F87
:102FE200F32FF52FA617F92F7F30FF007F08A605D4
:102FF2003808A8000310280CA7009B2E0800FF1B0E
:103002000A2883137F1883170008840A0319FF0A0A
:1030120008007F087F398A000408840A0319FF0A1E
:103022008200013400340A34003464340034E83459
:1030320003341034273420342034203449344C34BF
:10304200453452344C3445344D34453420344834BC
:1030520041345434413453344934203420342034FC
:1030620020342034203420342034003420342034DE
:1030720020344634453445344434203452344134C7
:103082005434453420344534523452344F3452345B
:1030920020342034203420342034203420340034AE
:1030A20020342034203444344F344E344D344534AB
:1030B2002034483441345434413453344934203474
:1030C200203420342034203420342034203400347E
:1030D20020342034203452344F3454344134543464
:1030E20049344F344E3420344534523452344F3400
:1030F200523420342034203420342034203400341C
:10310200533454344F3450342034443455345234CC
:1031120055344D3455344E344134203447344534DB
:1031220054344934523420340034503455345434F5
:10313200203449345434203449344E342034533406
:1031420054344F345034203453345434413454348E
:1031520045340034533454344F34503420344434DE
:103162005534523455344D3455344E344134203470
:103172004734453454344934523400345934413498
:1031820047342034423441344B3449344D34493489
:10319200203459344134503449344E3449345A3449
:1031A200003455345A344D3441344E344C34413465
:1031B200523420344D3441344B3449344E3441344A
:1031C20000342034463457344434203420342034FC
:1031D200203420342034203420342034203400346D
:1031E2007734773477342E3462346F3472347634F1
:1031F20065346B342E3463346F346D3400342034D0
:10320200523445345734203420342034203420348E
:10321200203420342034203400344F3449344C34A8
:10322200203454344834453420344734453441340E
:103232005234533400342034533454344F345034E1
:1032420020342034203420342034203420340034FC
:1032520025343534753468342034253430343234EE
:1032620075346D3400344634653465346434523414
:103272006134743465343A3400342034463457347B
:103282004434203431342E3436344B340034203438
:10329200523445345734203431342E3436344B349E
:1032A20000342534753425347534253475342E3480
:1032B20025347534003420344634573444342034B1
:1032C2004C344D3454340034203452344534573461
:1032D20020344C344D345434003473342534643443
:1032E2000D340A34003425343034303433347534F8
:1032F2000034733430340D340A34003452345034D0
:0C3302004D343A34003456343334003477
:103F2C0000300A168A1112200A168A1501300A1658
:103F3C008A1112200A168A15080083120313A00096
:103F4C0083160313981CAB2FAC2FA62F83120313CD
:103F5C002008990008002430831603139800903031
:103F6C008312031398000C308316031399008312E9
:103F7C0003139901080083120313A100A0013A3026
:103F8C0021020318CA2FCB2FD32F30302102031C50
:103F9C00D02FD12FD32FA001A00A200C0800831200
:103FAC0003132608831203178D00831603170C14B2
:103FBC00831203170C0883120313A800A901280805
:103FCC00A6002908A70008007008831203178D00AB
:103FDC0072088C00831603170C158B1355308D004B
:103FEC00AA308D008C148B170C118C18FE2FFF2F00
:043FFC00FB2F08008F
:02400E00793FF8
:00000001FF
