:060000000A128A110E280D
:10000800FE00030EF4000408F5000A08F6000A16BC
:100018008A111A2C0A128A111128F701F80183167D
:100028000317A401A501A601A701A801A901AA0116
:10003800AB0183010A168A11E22E83120313A4016D
:10004800A40A01300A128A11B2270A128A119630BC
:1000580083120313A5009030A6000A168A112723DD
:100068000A128A1183120313A401A40A02300A1285
:100078008A11B2270A128A11813083120313A5004C
:100088009030A6000A168A1127230A128A11033013
:1000980083120313D6008A30D5005530D400D40B10
:1000A8005328D50B5328D60B532883120313091949
:1000B8005E2861280A128A15B82C09186428652850
:1000C8005E280718682869285E2889186C286D2812
:1000D8005E28831603179001910183120313871971
:1000E800762879280A128A15232C08187C287D2856
:1000F80076280230A0000030A1000A168A11982143
:100108000A128A1183120313210883160313E500C8
:1001180083120313200883160313E40004308312A8
:100128000313A0000030A1000A168A1198210A12B0
:100138008A11831203132108A5002008A400FF30A8
:10014800A6000030A7000A168A11FF210A128A1198
:10015800831203132408D4002508D5000130A00019
:100168000030A1000A168A1198210A128A118312F6
:1001780003132008540783160317A00083120313E0
:1001880021080318210A550783160317A100143004
:1001980083120313AC009130AD00831603172108B6
:1001A80083120313AF008316031720088312031367
:1001B800AE0083160313650883120313B100831678
:1001C8000313640883120313B000B4300A128A11AF
:1001D800BB250A128A11F43083120313AA000130D6
:1001E800AB0083160317210883120313AD0083168F
:1001F8000317200883120313AC000A168A11BF23C1
:100208000A128A11831203132A082B04031D0D29CD
:100218000E2916298316031720082104031D152902
:1002280016296629F43083120313AA000130AB00A3
:1002380083160317210883120313AD0083160317CF
:10024800200883120313AC000A168A11BF230A126E
:100258008A11831203132A032B04031D3429352919
:100268003D298316031720032104031D3C293D293A
:100278006629F43083120313AA000130AB008316F9
:100288000317210883120313AD00831603172008F0
:1002980083120313AC000A168A11BF230A128A11AB
:1002A8000230831203132A062B04031D5C295D29DF
:1002B80071290230831603172006210403196529C2
:1002C8006629712928082904031D6B296C297129BD
:1002D8000A168A116D230A128A110A30831203132F
:1002E800A40001300A128A11B2270A128A11D930E1
:1002F80083120313A5009030A6000A168A1127233B
:100308000A128A110B3083120313A40001300A1257
:100318008A11B2270A128A11B43083120313A50076
:100328000030A6000A168A1127230A128A1183129E
:1003380003131F08C73910389F000F3083120313A7
:10034800D400D40BA529A829831203131F151F193C
:10035800AE29AF29AB29831603131E088312031392
:10036800D400D5011E08D600D7015608D700D601FB
:1003780054085604A00055085704A100A201A11B67
:10038800A2032208A30001300A168A1128260A129D
:100398008A1183120313230883160313D0008312D0
:1003A8000313220883160313CF00831203132108B3
:1003B80083160313CE008312031320088316031336
:1003C800CD00443083120313A3008030A200003014
:1003D800A1000030A00083160313500883120313F2
:1003E800A700831603134F0883120313A60083166E
:1003F80003134E0883120313A500831603134D0835
:1004080083120313A4000A128A152D200A128A11D6
:1004180083120313230883160313D40083120313D0
:10042800220883160313D3008312031321088316AB
:100438000313D20083120313200883160313D10079
:10044800831203131F08C73918389F000F3083120F
:100458000313D400D40B2E2A312A831203131F1539
:100468001F19372A382A342A1E0883160313E30073
:100478001E08E200540883120313BD0083160313F9
:10048800530883120313BC00831603135208831204
:100498000313BB0083160313510883120313BA0016
:1004A80083160313620883120313A0008316031331
:1004B800630883120313A1000030A11BFF30A200C0
:1004C800A30001300A168A1128260A128A118312FB
:1004D80003132308C1002208C0002108BF00200818
:1004E800BE000A128A15BB240A128A11831203134A
:1004F8003D0883160313DC00831203133C0883169C
:100508000313DB00831203133B0883160313DA007B
:10051800831203133A0883160313D9004030831259
:100528000313BD004030BC000030BB000030BA00EF
:10053800831603135C0883120313C1008316031385
:100548005B0883120313C000831603135A0883122F
:100558000313BF0083160313590883120313BE0045
:100568000A128A15BB240A128A11831203133D0842
:10057800831603179D00831203133C088316031781
:100588009C00831203133B08831603179B008312F6
:1005980003133A08831603179A00E83083120313EB
:1005A800AA000330AB00831603171D088312031338
:1005B800A300831603171C0883120313A2008316D3
:1005C80003171B0883120313A100831603171A08C5
:1005D80083120313A0000A168A11B0250A128A1181
:1005E800831203132108AD002008AC000A168A11F3
:1005F80047250A128A11831203132B08831603173F
:100608009900831203132A0883160317980064308D
:1006180083120313AA000030AB00831603171D08CA
:1006280083120313A300831603171C0883120313F2
:10063800A200831603171B0883120313A100831655
:1006480003171A0883120313A0000A168A11B0258B
:100658000A128A11831203132008D4002108D50036
:100668002208D6002308D700831603171908831217
:100678000313A50083160317180883120313A40095
:100688001830A600FC30A7000A168A11FF210A12AA
:100698008A118312031324085407AC002508031891
:1006A800250A5507AD000A168A1147250A128A112C
:1006B800831203132B08831603179700831203135F
:1006C8002A088316031796000A3083120313AA0018
:1006D8000030AB00831603171D0883120313A30011
:1006E800831603171C0883120313A200831603172B
:1006F8001B0883120313A100831603171A08831219
:100708000313A0000A168A11B0250A128A1183124F
:1007180003132008D4002108D5002208D600230896
:10072800D70083160317190883120313A50083162D
:100738000317180883120313A4001830A600FC300E
:10074800A7000A168A11FF210A128A1183120313BD
:1007580024085407D80025080318250A5507D90086
:1007680083160317170883120313A50083160317AC
:10077800160883120313A4009C30A600FF30A700BC
:100788000A168A11FF210A128A11831203132408F8
:100798005807AC0025080318250A5907AD000A16A2
:1007A8008A1147250A128A11831203132B0883160C
:1007B8000313E700831203132A0883160313E600C2
:1007C8000A3083120313AA000030AB008316031704
:1007D8001D0883120313A300831603171C08831232
:1007E8000313A200831603171B0883120313A10027
:1007F800831603171A0883120313A0000A168A1116
:10080800B0250A128A11831203132108AD002008AB
:10081800AC000A168A11BF230A128A118312031325
:100828002B0883160313E900831203132A0883167F
:100838000313E800831203131F08C73908389F0001
:100848000F3083120313D400D40B282C2B2C8312C3
:1008580003131F151F19312C322C2E2C831603134A
:100868001E0883120313D400D5011E08D600D70131
:100878005608D700D60154085604A0005508570456
:10088800A100A201A11BA2032208A30001300A169D
:100898008A1128260A128A11831203132308831641
:1008A8000317950083120313220883160317940075
:1008B800831203132108831603179300831203136B
:1008C80020088316031792008312031309196D2C4D
:1008D8006E2C9C2C0718712C722C9C2C83160317D9
:1008E800150883120313A300831603171408831231
:1008F8000313A20083160317130883120313A1001E
:1009080083160317120883120313A0000A168A110C
:10091800B0250A128A1183120313210D210C8316A4
:100928000317A30083120313200C83160317A200D6
:10093800443083120313BD007A30BC000030BB0082
:100948000030BA004430A3008030A2000030A1007B
:100958000030A00083160317150883120313A7009D
:1009680083160317140883120313A60083160317AC
:10097800130883120313A5008316031712088312A2
:100988000313A4000A128A152D200A128A11831251
:1009980003132308C1002208C0002108BF00200853
:1009A800BE000A128A15BB240A128A118312031385
:1009B8003D0883160313D800831203133C088316DB
:1009C8000313D700831203133B0883160313D600BF
:1009D800831203133A0883160313D50083120313F3
:1009E800A401A40A02300A128A11B2270A128A1133
:1009F8001F3083120313A5009130A6000A168A112E
:100A080027230A128A115F3083120313AC00913036
:100A1800AD0083160313580883120313A30083162B
:100A28000313570883120313A200831603135608EF
:100A380083120313A10083160313550883120313AB
:100A4800A0000A168A11B0250A128A11831203130C
:100A58002108AF002008AE00EC300A128A11BB252D
:100A68000A128A110A3083120313A40002300A12F0
:100A78008A11B2270A128A11EC3083120313A500D7
:100A88000030A6000A168A1127230A128A11831237
:100A98000313A401A40A01300A128A11B2270A1208
:100AA8008A116A3083120313A5009130A6000A1632
:100AB8008A1127230A128A113D3083120313AC00CE
:100AC8009130AD0083160317190883120313AF0082
:100AD80083160317180883120313AE00831603172F
:100AE800170883120313B10083160317160883121D
:100AF8000313B00083160313670883120313B300AC
:100B080083160313660883120313B20083160313B4
:100B1800690883120313B500831603136808831248
:100B28000313B400DD300A128A11BB250A128A1198
:100B3800053083120313A40001300A128A11B22768
:100B48000A128A11DD3083120313A5000030A600B3
:100B58000A168A1127230A128A1183120313871C83
:100B6800B82D0A128A15FC290A128A15232A83121B
:100B78000313C2002E30BB00972F253041060319FE
:100B8800C62DC72DD12D420884004108831380004B
:100B98000130FF007F08C207972FBF01C001BE01C7
:100BA800DC2D3E150130AC070318AD0A0030AD0747
:100BB8002D08FF002C0884000A168A1100200A124A
:100BC8008A11B600B7013708003A0319EC2DF12D48
:100BD8003608303A0319D52DF12D2D08FF002C08C1
:100BE80084000A168A1100200A128A110A168A112C
:100BF80084210A128A11031C022E032E4C2E831202
:100C08000313BF01C0010A3083120313A40000308C
:100C1800A5004008A7003F08A6000A168A11FF2170
:100C28000A128A11831203132508C0002408BF0082
:100C38002D08FF002C0884000A168A1100200A12C9
:100C48008A11D03EB600FF3003180030B7003608CE
:100C5800BF070318C00A3708C0070130AC070318DC
:100C6800AD0A0030AD072D08FF002C0884000A16D5
:100C78008A1100200A128A110A168A1184210A127E
:100C88008A110318482E492E072E4C2E3E17742E13
:100C9800831203132D08B7002C08B600AC0A0319F9
:100CA800AD0A3708FF00360884000A168A110020AA
:100CB8000A128A11C100B800B9013908003A0319AB
:100CC800662E972F3808003A0319AD2F643A031996
:100CD800742E0D3A0319742E1C3A03194A2E972FB5
:100CE8003E1B772E782E922E3B0884008313000833
:100CF800BC00840A0008BD000230FF007F08BB0763
:100D0800BD1F872E882E9E2E0330FF007F08BE044D
:100D1800BC09BD09BC0A0319BD0A9E2E3B08840004
:100D280083130008BC00840A0008BD000230FF00DD
:100D38007F08BB07C101C10A4108B6003607123E49
:100D4800840090300318013EFF000A168A11002023
:100D58000A128A11B7000A168A1100200A128A118B
:100D6800B80038083D02031DBB2E37083C020318A3
:100D7800BE2EBF2EC02ECA2E0130FF007F08C1072D
:100D880005304106031DC92ECA2EA02E3F08400477
:100D98000319CF2ED02EDC2E3E0803390319D52E89
:100DA800D62EDC2EFF30BF070318C00AFF30C0075D
:100DB8004008803A803C031DE32E3F084102031897
:100DC800E62EE72EF32E831203134108B600B7016F
:100DD8003608BF023708031CC003C002F72E83126F
:100DE8000313BF01C0013E1DFA2EFB2E262F3E081D
:100DF80003390319002F012F0A2F420884002D30D0
:100E0800831380000130FF007F08C2073F084004B9
:100E180003190F2F102F502F4208840030308313EE
:100E280080000130FF007F08C207FF30BF070318AA
:100E3800C00AFF30C0073F084004031D242F252F98
:100E4800102F502F3F08400403192B2F2C2F412F10
:100E5800420884002030831380000130FF007F089F
:100E6800C207FF30BF070318C00AFF30C0073F089A
:100E78004004031D402F412F2C2F3E08033903192E
:100E8800462F472F502F420884002D3083138000AF
:100E98000130FF007F08C2074108BA008E2F0A30D0
:100EA800A7000030A8003A08B6003607123E8400B2
:100EB80090300318013EFF000A168A1100200A121A
:100EC8008A11A0000A168A1100200A128A11A100AC
:100ED8003D08A3003C08A2000A168A11E1220A1262
:100EE8008A11831203132108AA002008A9000A16F0
:100EF8008A115F220A128A11831203132708303ECF
:100F0800C100420884004108831380000130FF00BB
:100F18007F08C207FF30FF007F08BA073A0A031D9F
:100F2800962F972F532F2D08B7002C08B600AC0A20
:100F38000319AD0A3708FF00360884000A168A111B
:100F480000200A128A11C1004108031DAC2FAD2FE1
:100F5800C12D420884008313800108008312031303
:100F6800A6002603031DB92FBA2FD92F24087F3EC8
:100F7800A9002908A50004300310A50CFF3E031D95
:100F8800C02F2508A70029080F39A80027080A1626
:100F98008A11C3210A128A118312031328080A1618
:100FA8008A11C3210A128A11FD2F02302606031D59
:100FB800DE2FDF2FFD2F2408BF3EA9002908A5003A
:100FC80004300310A50CFF3E031DE52F2508A700DC
:100FD80029080F39A80027080A168A11C3210A12FE
:100FE8008A118312031328080A168A11C3210A12C8
:040FF8008A11080052
:1010080083120313A800A401A5012008A200A301CC
:101018002208A6002308A700281C132814281A2829
:101028002608A4070318A50A2708A50701300310F6
:10103800A60DA70DFF3E031D1B280310A80C2808AA
:10104800031D2728282810282508A1002408A00007
:1010580008008312031327088039B1002708A80065
:101068002807B800A61F39283A283B28381438081A
:1010780003193F2840285028380A031D44284528CA
:101088004D280030A7000030A6000030A500003031
:10109800A400A617A70158280030A7000030A60012
:1010A8000030A5000030A40023088039FF007F0825
:1010B800B1062308A8002807B900A21F64286528DC
:1010C80066283914390803196A286B287B28390AD5
:1010D800031D6F28702878280030A3000030A20074
:1010E8000030A1000030A000A217A301832800301F
:1010F800A3000030A2000030A1000030A0002308A7
:10110800220421042004031D8A288B28A4280030E7
:10111800A7000030A6000030A5000030A4008030F1
:10112800A6047F30A7043108FF007F08A70427081A
:10113800A3002608A2002508A1002408A000FB2976
:101148003808031DA828A928B2280030A3000030B9
:10115800A2000030A1000030A000FB293808A80038
:10116800A9012908AB0039082802AA00031CAB030F
:101178002A087F3EB2002B080318013E003EB30048
:101188002708B0002608AF002508AE002408AD00E7
:101198000030A7000030A6000030A5000030A400F1
:1011A8000030B7000030B6000030B5000030B400A1
:1011B800B901282939080319E228E328032901304D
:1011C800A8000310AD0DAE0DAF0DB00DA80BE528AE
:1011D8000130A8000310A40DA50DA60DA70DA80B9E
:1011E800EE28B71FF828F928FA2824140130A80097
:1011F8000310B40DB50DB60DB70DA80BFC282308C8
:101208003002031D112922082F02031D112921086C
:101218002E02031D112920082D02031C142915294B
:10122800242937172008AD022108031C210FAE021C
:101238002208031C220FAF022308031C230FB0024D
:101248000130FF007F08B9071A303902031C2D2925
:101258002E29DE2830082F042E042D0403193529E1
:1012680036295529341455290130A8000310A40D36
:10127800A50DA60DA70DA80B3A29B71F4429452986
:10128800462924140130A8000310B40DB50DB60D7D
:10129800B70DA80B4829FF30B2070318B30AFF306F
:1012A800B307A61F582959293829B901B71F5D293D
:1012B8005E297A29FF303405A800FF303505A900DA
:1012C800FF303605AA007F303705AB002B082A040B
:1012D800290428040319712972297529B901B90A41
:1012E8007A29241C782979297A2972293908031935
:1012F8007E297F29B0290130A40700300318013066
:10130800A507003003180130A60700300318013084
:10131800A707271C90299129B0292408A800250887
:10132800A9002608AA002708AB000130AC002B0D45
:10133800AB0CAA0CA90CA80CAC0B9B292B08A7007A
:101348002A08A6002908A5002808A4000130B20729
:101358000318B30A0030B3073308803AFF0080301F
:101368007F02031DB929FF303202031CBC29BD29A5
:10137800CB29FF3083120313B2000030B3000030D2
:10138800A7000030A6000030A5000030A40083129A
:1013980003133308803AFF0080307F02031DD629EB
:1013A800013032020318D929DA29E72983120313F5
:1013B800B201B3010030A7000030A6000030A5003C
:1013C8000030A400B101831203133208B800381C9E
:1013D800EE29EF29F129A617F5297F30FF007F08AC
:1013E800A6053808A8000310280CA70097280800AD
:1013F8000918FF29002A042A091D032A042A232A76
:101408000D30A40002300A128A11B2270A128A1576
:10141800473083120313A5009130A6000A168A11DB
:1014280027230A128A15653083120313A10091300D
:10143800A2000A168A119B220A128A15022C091D7B
:10144800262A272A2B2A09182A2A2B2A332A091D51
:101458002E2A2F2A892A8918322A332A892A0D30D6
:10146800A40002300A128A11B2270A128A152930FA
:1014780083120313A5009130A6000A168A112723A8
:101488000A128A1503308316031723022030031922
:1014980022020318502A512A022C5030A20703189E
:1014A800A30A0030A30703302302213003192202C4
:1014B800031C5F2A602A642A2030A2000330A3009C
:1014C800593083120313AC009130AD008316031713
:1014D800230883120313AF0083160317220883120D
:1014E8000313AE00BD300A128A11BB250A128A15F1
:1014F800BD3083120313A1000030A2000A168A111E
:101508009B220A128A15022C022C091C8C2A8D2A6D
:10151800C42A0D30A40002300A128A11B2270A1216
:101528008A15CD3083120313A5009030A6000A1641
:101538008A1127230A128A15593083120313AC0023
:101548009130AD0083160317230883120313AF00ED
:1015580083160317220883120313AE005A300A12A7
:101568008A11BB250A128A155A3083120313A10067
:101578000030A2000A168A119B220A128A15022C30
:10158800071DC72AC82AEF2A8918CB2ACC2AD02AAD
:10159800071CCF2AD02AEF2A0D30A40002300A12E5
:1015A8008A11B2270A128A15503083120313A50034
:1015B8009130A6000A168A1127230A128A15653067
:1015C80083120313A1009130A2000A168A119B22EC
:1015D8000A128A15022C071CF22AF32AF72A8918FC
:1015E800F62AF72AFF2A071CFA2AFB2A902B091841
:1015F800FE2AFF2A902B0D30A40002300A128A110D
:10160800B2270A128A15333083120313A5009130CA
:10161800A6000A168A1127230A128A1583160317A9
:10162800220983120313D400831603172309831294
:101638000313D500D40A0319D50A540883160317CF
:101648009E00831203135508831603179F001F0873
:10165800803AFF007C307F02031D342BE1301E02EC
:10166800031C372B382B882AB030831603179E07A4
:1016780003189F0AFF309F071F08803AFF007C303D
:101688007F02031D492BE0301E0203184C2B4D2B03
:10169800532BE030831603179E00FC309F008316FF
:1016A80003171E0983120313D400831603171F0997
:1016B80083120313D500D40A0319D50A54088316D4
:1016C8000317A20083120313550883160317A300F8
:1016D800593083120313AC009130AD008316031701
:1016E8001F0883120313AF00831603171E08831203
:1016F8000313AE00C5300A128A11BB250A128A15D7
:10170800C53083120313A1000030A2000A168A1103
:101718009B220A128A15022C891C932B942BE42BEA
:101728000D30A40002300A128A11B2270A128A1553
:10173800EB3083120313A5009030A6000A168A1115
:1017480027230A128A158316031722098312031303
:10175800D40083160317230983120313D500D40A70
:101768000319D50A540883160313EA0083120313D6
:10177800550883160313EB00593083120313AC008A
:101788009130AD00831603136B0883120313AF0067
:10179800831603136A0883120313AE00A0300A12DB
:1017A8008A11BB250A128A15A03083120313A100DF
:1017B8000030A2000A168A119B220A128A15022CEE
:1017C8000D30A40002300A128A11B2270A128A15B3
:1017D800073083120313A5009130A6000A168A1158
:1017E80027230A128A15653083120313A10091304A
:1017F800A2000A168A119B220A128A158312031361
:10180800871C072C082C142C09180B2C0C2C102CBA
:10181800091D0F2C102C142C831203130516B52C3C
:10182800071D172C182C212C89181B2C1C2C102C4C
:10183800071C1F2C202C212C102C0512B52C871DC1
:10184800262C272C7D2CA401A40A01300A128A1107
:10185800B2270A128A15373083120313A500903075
:10186800A6000A168A1127230A128A15831203135F
:10187800A401A40A02300A128A11B2270A128A1590
:101888001C3083120313A5009030A6000A168A1193
:1018980027230A128A15653083120313A100913099
:1018A800A2000A168A119B220A128A1583120313B0
:1018B8000516063083120313D6001330D500AD3059
:1018C800D400D40B652CD50B652CD60B652C831254
:1018D80003130512103083120313D6003930D500D4
:1018E8000D30D400D40B762CD50B762CD60B762C59
:1018F800102C081C802C812CB52C6530A10091304F
:10190800A2000A168A119B220A128A15831203134F
:10191800A401A40A01300A128A11B2270A128A15F0
:10192800693083120313A5009030A6000A168A11A5
:1019380027230A128A1583120313A401A40A02306A
:101948000A128A11B2270A128A1551308312031318
:10195800A5009030A6000A168A1127230A128A15B4
:101968005A2C0A168A11F42F0A128A110E28831289
:1019780003133D088039C7003D08C2004207CD0067
:10198800BC1FC72CC82CC92C4D144D080319CD2CCD
:10199800CE2CDD2C4D0A031DD22CD32CDB2C003091
:1019A800BD000030BC000030BB000030BA00BC17DE
:1019B800E52C0030BD000030BC000030BB0000301A
:1019C800BA0041088039FF007F08C7064108C200F5
:1019D8004207CC00C01FF12CF22CF32C4C144C08FD
:1019E8000319F72CF82C072D4C0A031DFC2CFD2C91
:1019F800052D0030C1000030C0000030BF000030AD
:101A0800BE00C0170F2D0030C1000030C0000030EC
:101A1800BF000030BE004C080319132D142D192DDA
:101A28004D08031D182D192D222D0030BD00003042
:101A3800BC000030BB000030BA00FF2F3A08A000FD
:101A480040080A128A1504200A128A158312031301
:101A58002108D3002008D2005208C200C301C401E3
:101A6800C5014508CB004408CA004308C90042081C
:101A7800C8005308C200C301C401C5014508D1000C
:101A88004408D0004308CF004208CE003B08A0001D
:101A98003F080A128A1504200A128A1583120313B2
:101AA8002108D3002008D2005208C200C301C40193
:101AB800C5014208C807430803110318013E03196A
:101AC800662DC907440803110318013E03196D2D3B
:101AD800CA07450803110318013E0319742DCB07E3
:101AE8005308C200C301C401C5014208CE07430818
:101AF80003110318013E0319822DCF07440803116F
:101B08000318013E0319892DD0074508031103184E
:101B1800013E0319902DD1073C08A0003E080A1287
:101B28008A1504200A128A15831203132108D30088
:101B38002008D2005208C200C301C401C5014208EE
:101B4800C807430803110318013E0319AC2DC90740
:101B5800440803110318013E0319B32DCA074508A9
:101B680003110318013E0319BA2DCB075308C2000D
:101B7800C301C401C5014208CE0743080311031875
:101B8800013E0319C82DCF07440803110318013E6D
:101B98000319CF2DD007450803110318013E031977
:101BA800D62DD1070830C2000310C80DC90DCA0DC3
:101BB800CB0DC20BD82D3B08A0003E080A128A158F
:101BC80004200A128A15831203132108D30020085F
:101BD800D2005208C2005308C300C401C50142081C
:101BE800C807430803110318013E0319FC2DC90750
:101BF800440803110318013E0319032ECA074508B8
:101C080003110318013E03190A2ECB073A08A00056
:101C18003F080A128A1504200A128A158312031330
:101C28002108D3002008D2005208C2005308C3007C
:101C3800C401C5014208C807430803110318013E3F
:101C48000319272EC907440803110318013E031975
:101C58002E2ECA07450803110318013E0319352E15
:101C6800CB070830C2000310C80DC90DCA0DCB0D33
:101C7800C20B372E3A08A0003E080A128A15042023
:101C88000A128A15831203132108D3002008D200F0
:101C98005208C2005308C300C401C5014208C8075E
:101CA800430803110318013E03195B2EC9074408B2
:101CB80003110318013E0319622ECA0745080311D0
:101CC8000318013E0319692ECB073B08A000400802
:101CD8000A128A1504200A128A158312031321088E
:101CE800D3002008D2005208C2005308C300C40120
:101CF800C5014208CE07430803110318013E031922
:101D0800862ECF07440803110318013E03198D2EB0
:101D1800D007450803110318013E0319942ED10773
:101D28003C08A0003F080A128A1504200A128A15E6
:101D3800831203132108D3002008D2005208C200DE
:101D48005308C300C401C5014208CE074308031164
:101D58000318013E0319B12ECF07440803110318D5
:101D6800013E0319B82ED007450803110318013E98
:101D78000319BF2ED1073C08A00040080A128A1593
:101D880004200A128A15831203132108D30020089D
:101D9800D2005208C2005308C300C401C50108306C
:101DA8000310C20DC30DC40DC50DFF3E031DD42E77
:101DB8004208CE07430803110318013E0319E52E14
:101DC800CF07440803110318013E0319EC2ED0076E
:101DD800450803110318013E0319F32ED1074808DB
:101DE800C2004908C3004A08C4004B08C50018309F
:101DF8000310C50CC40CC30CC20CFF3E031DFC2E03
:101E08004208CE07430803110318013E03190D2F9A
:101E1800CF07440803110318013E0319142FD007F4
:101E2800450803110318013E03191B2FD107083079
:101E3800C2000310C80DC90DCA0DCB0DC20B1D2F52
:101E48004D084C07C200C301C30D4208823ED200B0
:101E580043080318013EFF3ED3004F2F0130C20054
:101E68000310CE0DCF0DD00DD10DC20B342FCB1FCB
:101E78003E2F3F2F402F4E140130C2000310C80DD3
:101E8800C90DCA0DCB0DC20B422FFF30D207031864
:101E9800D30AFF30D307D01F522F532F322FCC0134
:101EA800CB1F572F582F742FFF304805C200FF3023
:101EB8004905C300FF304A05C4007F304B05C50003
:101EC800450844044304420403196B2F6C2F6F2FF9
:101ED800CC01CC0A742F4E1C722F732F742F6C2FC9
:101EE8004C080319782F792FAA2F0130CE0700301C
:101EF80003180130CF07003003180130D007003035
:101F080003180130D107511C8A2F8B2FAA2F4E0896
:101F1800C2004F08C3005008C4005108C500013072
:101F2800C600450DC50CC40CC30CC20CC60B952FBE
:101F38004508D1004408D0004308CF004208CE002D
:101F48000130D2070318D30A0030D3075308803A68
:101F5800FF0080307F02031DB32FFF305202031CA5
:101F6800B62FB72FC22F7F3083120313D1008030D2
:101F7800D0000030CF000030CE00F32F83120313BF
:101F88005308803AFF0080307F02031DCD2F0130B7
:101F980052020318D02FD12FDD2F003083120313E4
:101FA800D1000030D0000030CF000030CE00C70193
:101FB800F32F831203135208CD00FF30CE05FF30F4
:101FC800CF057F30D0050030D1054D1CEC2FED2F0B
:101FD800EE2FD0174D08C2000310420CD10047085D
:101FE800FF007F08D1045108BD005008BC004F080D
:101FF800BB004E08BA000800FF1B0A2883137F188D
:1020080083170008840A0319FF0A08007F087F392C
:102018008A000408840A0319FF0A82000134003484
:102028000A34003464340034E83403341034273478
:1020380020342034203449344C34453452344C3420
:1020480045344D34453420344834413454344134D3
:10205800533449342034203420342034203420347C
:10206800203420340034203420342034463445349D
:1020780045344434203452344134543445342034C3
:102088004534523452344F345234203420342034BE
:1020980020342034203420340034203420342034B8
:1020A80044344F344E344D3445342034483441346C
:1020B80054344134533449342034203420342034C7
:1020C8002034203420342034003420342034203488
:1020D80052344F3454344134543449344F344E34E8
:1020E80020344534523452344F345234203420345E
:1020F80020342034203420340034503455345434BF
:10210800203449345434203449344E342034533440
:1021180054344F34503420345334543441345434C8
:1021280045340034533454344F3450342034443418
:102138005534523455344D3455344E3441342034AA
:1021480047344534543449345234003459344134D2
:1021580047342034423441344B3449344D344934C3
:10216800203459344134503449344E3449345A3483
:10217800003455345A344D3441344E344C3441349F
:10218800523420344D3441344B3449344E34413484
:102198000034203446345734443420342034203436
:1021A80020342034203420342034203420340034A7
:1021B8007734773477342E3462346F34723476342B
:1021C80065346B342E3463346F346D34003420340A
:1021D80052344534573420342034203420342034C9
:1021E800203420342034203400344F3449344C34E3
:1021F8002034543448344534203447344534413449
:102208005234533400342034533454344F3450341B
:102218002034203420342034203420342034003436
:102228002534353475346834203425343034323428
:1022380075346D340034463465346534643452344E
:102248006134743465343A340034203446345734B5
:102258004434203431342E3436344B340034203472
:10226800523445345734203431342E3436344B34D8
:1022780000342534753425347534253475342E34BA
:1022880025347534003420344634573444342034EB
:102298004C344D345434003420345234453457349B
:1022A80020344C344D34543400347334253464347D
:1022B8000D340A3400342534303430343334753432
:1022C8000034733430340D340A340034523450340A
:0C22D8004D343A340034563433340034B2
:1022E8002430831603139800903083120313980048
:1022F8000C30831603139900831203139901080005
:1023080083120313A100A0013A30210203188D297A
:102318008E29962930302102031C93299429962965
:10232800A001A00A200C08008312031320088312BE
:1023380003178D00831603170C14831203170C0858
:1023480083120313A200A3012208A0002308A100FE
:1023580008007008831203178D0072088C0083161A
:1023680003170C158B1355308D00AA308D008C1473
:102378008B170C118C18C129C229BE290800831299
:102388000313A300861223080A168A11DF210A16EE
:102398008A11831203130616063083120313A20050
:1023A8002F30A100A10BD629A20BD629DB29831235
:1023B80003130612080083120313A000201CE5294A
:1023C800E629E8298615E9298611A01CEC29ED29BA
:1023D800EF290615F0290611201DF329F429F629FD
:1023E8008614F7298610A01DFA29FB29FD29061451
:1023F800FE290610080083120313A801A901241C52
:10240800062A072A0D2A2608A8070318A90A270852
:10241800A90701300310A60DA70DFF3E031D0E2AC4
:1024280001300310A50CA40CFF3E031D152A240837
:102438002504031D202A212A032A2908A500280883
:10244800A400080083120313A40024080F39A20073
:102458002408F039A30086162308A10004300310CD
:10246800A10CFF3E031D332A21080A168A11DF2119
:102478000A168A118312031306160C3083120313EB
:10248800A100A10B452A000083120313061222089B
:102498000A168A11DF210A168A11831203130616F7
:1024A8000C3083120313A100A10B582A00008312D9
:1024B80003130612080083120313270828040319BC
:1024C800662A672A962AAB01AB0A752A01300310DF
:1024D800A70DA80DFF3E031D6B2A0130FF007F08E2
:1024E800AB07A81F782A792A6A2A28082A02031D16
:1024F8007F2A27082902031C822A832A892A270877
:10250800A9022808031CAA03AA0201300310A80C78
:10251800A70CFF3E031D8A2A0130AB02031D952A32
:10252800962A792A2A08A8002908A70008008312F1
:102538000313A601A701C42A26082107A40022081C
:10254800A3000318A30AA61FAA2AA303831203132E
:102558002308A5002508FF00240884000A168A110C
:1025680000200A168A110A168A15F2270A168A11F5
:10257800013083120313A6070318A70A0030A70720
:1025880026082107A4002208A3000318A30AA61FEF
:10259800CE2AA303831203132308A5002508FF00EE
:1025A800240884000A168A1100200A168A11003AA3
:1025B800031DDF2AE02AA02A080083120313A501BD
:1025C800A601200821040319EA2AEB2A222BA401D8
:1025D800A40AF92A01300310A00DA10DFF3E031D26
:1025E800EF2A0130FF007F08A407A11FFC2AFD2A5B
:1025F800EE2A01300310A50DA60DFF3E031DFE2A8D
:1026080021082302031D0A2B20082202031C0D2B7C
:102618000E2B152B2008A2022108031CA303A302DA
:10262800251401300310A10CA00CFF3E031D162B2E
:102638000130A402031D212B222BFD2A2608A1000C
:102648002508A000080083120313AA01AB01502B30
:102658002A082507A8002608A7000318A70AAA1F02
:10266800362BA703831203132708A9002908FF00A4
:10267800280884000A168A1100200A168A110A16E8
:102688008A1126220A168A11013083120313AA0717
:102698000318AB0A0030AB072A082507A80026084C
:1026A800A7000318A70AAA1F5A2BA703831203130C
:1026B8002708A9002908FF00280884000A168A119B
:1026C80000200A168A11003A031D6B2B6C2B2C2B49
:1026D80008000A168A15E5270A168A1183120313B9
:1026E800AC01AD0183120313A401A40A01300A123C
:1026F8008A11B2270A168A11AA3083120313A50079
:102708009030A6000A168A1127230A168A11831206
:102718000313A401A40A02300A128A11B2270A1666
:102728008A11F93083120313A5009030A6000A1607
:102738008A1127230A168A118312031305160130FA
:10274800AC070318AD0A0030AD072D08803AFF002A
:1027580080307F02031DB22B0A302C02031CB52BDC
:10276800B62B762B0A168A15E5270A168A118312C4
:1027780003130512080083120313AF01AD1FC52B05
:10278800C62BCD2BAC09AD09AC0A0319AD0AAF01B4
:10279800AF0AAB1FD02BD12BD62BAA09AB09AA0A9B
:1027A8000319AB0A2A082B040319DB2BDC2B0B2C8F
:1027B800AE01AE0AEA2B01300310AA0DAB0DFF3EA5
:1027C800031DE02B0130FF007F08AE07AB1FED2B88
:1027D800EE2BDF2B2B082D02031DF42B2A082C02CD
:1027E800031CF72BF82BFE2B2A08AC022B08031C22
:1027F800AD03AD0201300310AB0CAA0CFF3E031D64
:10280800FF2B0130AE02031D0A2C0B2CEE2B2F08D8
:1028180003190F2C102C152CAC09AD09AC0A03199F
:10282800AD0A2D08AB002C08AA0008000B1D1D2CB2
:102838001E2C742C0B113D308312031381000130C0
:10284800F7070318F80A0030F807143077067804F9
:10285800031D2F2C302C742CF701F801A4300A1614
:102868008A11E0240A168A110130F0000030F100C4
:10287800831603172708F3002608F2000A168A11A0
:10288800AD210A168A110230F0000030F1008316DB
:1028980003172908F3002808F2000A168A11AD2147
:1028A8000A168A110330F0000030F100831603176E
:1028B8002B08F3002A08F2000A168A11AD210A161D
:1028C8008A110430F0000030F10083160317250840
:1028D800F3002408F2000A168A11AD210A168A119B
:1028E80076088A0075088400740E8300FE0E7E0E3A
:1028F800090000300A168A11DF210A168A111A30D7
:1029080083120313A500F730A400A40B892CA50B90
:10291800892C8E2C03300A168A11C3210A168A11B3
:10292800073083120313A5007C30A400A40B9A2C53
:10293800A50B9A2C000003300A168A11C3210A1627
:102948008A110F3083120313A5004730A400A40B8B
:10295800AB2CA50BAB2C03300A168A11C3210A161F
:102968008A1102300A168A11C3210A168A11023006
:102978000A168A11C3210A168A1108300A168A1102
:10298800C3210A168A1100300A168A11C3210A16B1
:102998008A110C300A168A11C3210A168A110030CE
:1029A8000A168A11C3210A168A1106300A168A11D4
:1029B800C3210A168A110800F2007208063E840034
:1029C800013083178007840A0318800A7208063EBC
:1029D80084000008F000840A0008F1000030710249
:1029E8003C3003197002031CFA2CFB2C462D72088C
:1029F800063E84008001840A80017208043E840037
:102A080001308007840A0318800A7208043E840093
:102A18000008F000840A0008F100003071023C3020
:102A280003197002031C192D1A2D462D7208043E35
:102A380084008001840A80017208023E840001300B
:102A48008007840A0318800A7208023E840000087E
:102A5800F000840A0008F10000307102FF30031909
:102A68007002031C382D392D462D7208023E840051
:102A78008001840A80017208840001308007840A7A
:102A88000318800A080083120313AF01AB1F4D2DF2
:102A98004E2D552DAA09AB09AA0A0319AB0AAF0195
:102AA800AF0AAD1F582D592D622DAC09AD09AC0ADE
:102AB8000319AD0A0130FF007F08AF06B001B1016C
:102AC8002A082B040319692D6A2DA12DAE01AE0A1F
:102AD800782D01300310AA0DAB0DFF3E031D6E2D9E
:102AE8000130FF007F08AE07AB1F7B2D7C2D6D2DBD
:102AF80001300310B00DB10DFF3E031D7D2D2B08D5
:102B08002D02031D892D2A082C02031C8C2D8D2DC6
:102B1800942D2A08AC022B08031CAD03AD02301417
:102B280001300310AB0CAA0CFF3E031D952D01309C
:102B3800AE02031DA02DA12D7C2D2F080319A52D54
:102B4800A62DAB2DB009B109B00A0319B10A310895
:102B5800AB003008AA000800031083120313220DEB
:102B6800230DA9002908031DBA2DBB2DC42D003043
:102B7800A3000030A2000030A1000030A000272EE2
:102B88002008A4002108A5002208A6002308A70001
:102B98001F300310A70CA60CA50CA40CFF3E031DA8
:102BA800CD2D2408A800A217FF30A005FF30A105ED
:102BB800FF30A2050030A3059630A902A91FE52D14
:102BC800E62D002E2908803A973E0318EC2DED2DAE
:102BD800EE2DBB2D01300310A30CA20CA10CA00CF0
:102BE800FF3E031DEF2D0130FF007F08A907031DDD
:102BF800FE2DFF2DEE2D172E20302902031C052E49
:102C0800062E122EBB2D0130A4000310A00DA10D1D
:102C1800A20DA30DA40B092E0130A9022908031D3A
:102C2800162E172E072E280803191B2E1C2E272EAA
:102C3800A009A109A209A309A00A0319A10A031955
:102C4800A20A0319A30A080083120313A80028087C
:102C580003192F2E302E442EA31F332E342E442E2C
:102C68002009AA002109AB002209AC002309AD0004
:102C7800AA0A0319AB0A0319AC0A0319AD0A4C2EA8
:102C88002308AD002208AC002108AB002008AA00E8
:102C98002308220421042004031D532E542E5D2EE4
:102CA8000030A3000030A2000030A1000030A000D6
:102CB800E12E9630A9006D2E0130FF007F08A9078C
:102CC80001300310AD0CAC0CAB0CAA0CFF3E031D7D
:102CD800652EFE302D05031D722E732E602E8F2E4D
:102CE8000130FF007F08A9070130AA070030031848
:102CF8000130AB07003003180130AC07003003186F
:102D08000130AD0701300310AD0CAC0CAB0CAA0CB4
:102D1800FF3E031D872EFF302D05031D942E952E93
:102D2800742EA12E0130A9020130A4000310AA0DAF
:102D3800AB0DAC0DAD0DA40B9A2EAC1BA42EA52E7D
:102D4800AB2E023029020318AA2EAB2E962E291874
:102D5800AE2EAF2EB72EFF30AA05FF30AB057F3061
:102D6800AC05FF30AD050310A90C2908A400A50186
:102D7800A601A70118300310A40DA50DA60DA70DD7
:102D8800FF3E031DBF2E2408AA042508AB0426080D
:102D9800AC042708AD0428080319D32ED42ED92E45
:102DA800A31FD72ED82ED92EAD172D08A3002C0877
:102DB800A2002B08A1002A08A0000800831603130C
:102DC80086010512091489148714071509150714B3
:102DD800871508148514051585150A168A117D248A
:102DE8000A168A118316031307138717051085120D
:102DF8000712871201308800023083120313D600AD
:102E08000430D500B930D400D40B082FD50B082FC7
:102E1800D60B082F0F2F8312031305120130A000C1
:102E28000030A1000A168A1198210A168A11831205
:102E38000313210883160317A7008312031320081E
:102E480083160317A600023083120313A000003074
:102E5800A1000A168A1198210A168A1183120313EF
:102E6800210883160317A900831203132008831669
:102E78000317A800033083120313A0000030A10039
:102E88000A168A1198210A168A1183120313210837
:102E980083160317AB008312031320088316031746
:102EA800AA00043083120313A0000030A1000A1600
:102EB8008A1198210A168A1183120313210883168E
:102EC8000317A50083120313200883160317A40011
:102ED80083160313811281110115811401148B17B4
:102EE8000B178B160A168A15E5270A168A118312FC
:102EF8000313A401A40A01300A128A11B2270A1680
:102F08008A11BD3083120313A5009030A6000A165B
:102F18008A1127230A168A1183120313A401A40A0B
:102F280002300A128A11B2270A168A11DC3083127B
:102F38000313A5009030A6000A168A1127230A1643
:102F48008A11113083120313A40002300A128A1165
:102F5800B2270A168A116F3083120313A500913025
:102F6800A6000A168A1127230A168A110630831228
:102F78000313D6001330D500AD30D400D40BC22FC4
:102F8800D50BC22FD60BC22F0A168A15E5270A16AB
:102F98008A110C308316031399000A168A117421BA
:102FA8000A168A1183160317A201A30183160313B5
:102FB8009F171F08F03904389F00831203131F0856
:102FC8003F3980389F001F14871009110910071115
:102FD8000710891001308316031790000030910004
:102FE80083160317100811040319FD2F0A128A11FA
:082FF80021280A128A11712838
:103FCA0000300A168A11C3210A168A1501300A1608
:103FDA008A11C3210A168A15080083120313A00046
:103FEA0083160313981CFA2FFB2FF52F8312031342
:063FFA00200899000800F8
:02400E00793FF8
:00000001FF
