:060000000A128A110E280D
:10000800FE00030EF3000408F4000A08F5000A16BF
:100018008A112D2B0A128A111128F601F70183166D
:1000280003179E019F01A001A101A201A301830161
:100038000A128A11DF2ED1301E06073003191F0657
:100048000319272828283128D2301E06073003191B
:100058001F06031D302831288C2820082104031D81
:10006800362837288C280A168A1196220A128A11ED
:1000780083160317920193011308803AFF0080301A
:100088007F02031D49280A301202031C4C284D2800
:100098004E28842883120313A401A40A01300A16E7
:1000A8008A110A250A128A11813083120313A500C6
:1000B8009830A6000A168A11F0230A128A118312B0
:1000C8000313A401A40A02300A168A110A250A1287
:1000D8008A11C13083120313A5009830A6000A16AE
:1000E8008A11F0230A128A118312031305160130AC
:1000F8008316031792070318930A003093074028C2
:100108000A168A1196220A128A11831203130512FB
:10011800C430831603171E06093003191F06031976
:1001280096289728A928C5301E06093003191F06E6
:1001380003199F28A028A928C6301E0609300319CC
:100148001F06031DA828A928042920082104031D27
:10015800AE28AF2804290A168A1196220A128A1193
:1001680083160317940195011508803AFF00803023
:100178007F02031DC1280A301402031CC428C528A5
:10018800C628FC2883120313A401A40A01300A1606
:100198008A110A250A128A11813083120313A500D5
:1001A8009830A6000A168A11F0230A128A118312BF
:1001B8000313A401A40A02300A168A110A250A1296
:1001C8008A11C13083120313A5009830A6000A16BD
:1001D8008A11F0230A128A118312031305160130BB
:1001E8008316031794070318950A00309507B82853
:1001F8000A168A1196220A128A118312031305120B
:10020800E73083120313B2009830B3008316031744
:100218001F0883120313B500831603171E088312E1
:100228000313B40083160317210883120313B700BE
:1002380083160317200883120313B600B4300A127A
:100248008A15C4220A128A110A3083120313A400E1
:1002580001300A168A110A250A128A1134308312CB
:100268000313A5009830A6000A168A11F0230A1273
:100278008A110B3083120313A40001300A168A1165
:100288000A250A128A11B43083120313A50000301C
:10029800A6000A168A11F0230A128A110030831266
:1002A8000313A000A100831603171F08831203136A
:1002B800A300831603171E0883120313A2000A164D
:1002C8008A11F1220A128A11013083120313A00045
:1002D8000030A10083160317210883120313A3001B
:1002E80083160317200883120313A2000A168A1123
:1002F800F1220A128A11023083120313A00000307F
:10030800A10083160317230883120313A30083167F
:100318000317220883120313A2000A168A11F12276
:100328000A128A11831203131F08C73918389F004D
:100338001F151F19A029A1299D291E08831603131B
:10034800D7001E08D600570883120313A10083168E
:100358000313560883120313A0000330A2000030D1
:10036800A3000A168A1154230A128A11831203134E
:100378002108831603179900831203132008831694
:1003880003179800E83083120313A6000330A70070
:1003980083160317190883120313A900831603177A
:1003A800180883120313A8000A168A117C240A125B
:1003B8008A118312031327088316031797008312E1
:1003C8000313260883160317960064308312031359
:1003D800A6000030A700831603171708831203131B
:1003E800A10083160317160883120313A000183000
:1003F800A200FC30A3000A168A1154230A128A119B
:10040800831603171808831203132007A8008316FE
:10041800031719080318190A831203132107A900DF
:100428000A168A117C240A128A11831203132708D8
:1004380083160313E9008312031326088316031394
:10044800E8000A3083120313A6000030A7008316C1
:100458000317170883120313A1008316031716083E
:1004680083120313A0001830A200FC30A3000A1660
:100478008A1154230A128A11831203132008D40004
:100488002108D50083160313690883120313A100FA
:1004980083160313680883120313A0009C30A2007C
:1004A800FF30A3000A168A1154230A128A118312F4
:1004B800031320085407D60021080318210A5507FA
:1004C800D700831603171808831203135607A800CA
:1004D8008316031719080318190A831203135707F9
:1004E800A9000A168A117C240A128A11831203139E
:1004F800270883160313DB008312031326088316C9
:100508000313DA000A3083120313AD000030AE0083
:1005180083160317190883120313B00083160317F1
:10052800180883120313AF000A168A11B4230A129B
:100538008A11831203132E0883160313DD00831216
:1005480003132D0883160313DC00831203131F08FB
:10055800C73908389F000F3083120313D400D40B17
:10056800B32AB62A831203131F151F19BC2ABD2AE2
:10057800B92A831603131E0883120313D400D50166
:100588001E08D600D7015608D700D60154085604CD
:10059800A00055085704A100A201A11BA20322082C
:1005A800A30001300A128A152F200A128A11831219
:1005B8000313230883160313E70083120313220887
:1005C80083160313E600831203132108831603130B
:1005D800E50083120313200883160313E400670859
:1005E80083120313A30083160313660883120313ED
:1005F800A20083160313650883120313A100831650
:100608000313640883120313A0000A168A11B9257C
:100618000A128A1183120313210D210C8316031762
:100628009B0083120313200C831603179A0044308F
:1006380083120313BD007A30BC000030BB000030C9
:10064800BA004430A3008030A2000030A10000307E
:10065800A00083160313670883120313A7008316E9
:100668000313660883120313A60083160313650891
:1006780083120313A500831603136408831203135C
:10068800A4000A168A1131260A128A11831203134A
:100698002308C1002208C0002108BF002008BE00AE
:1006A8000A128A15BB240A128A11831203133D0801
:1006B80083160313D000831203133C088316031315
:1006C800CF00831203133B0883160313CE00831253
:1006D80003133A0883160313CD00831203131F086C
:1006E800C73910389F001F151F197B2B7C2B782BBF
:1006F8001E0883160313D9001E08D8005908831250
:100708000313D50083160313580883120313D40068
:100718000310D50CD40C5408EC005508ED00A401C6
:10072800A40A02300A168A110A250A128A11F2301E
:1007380083120313A5009830A6000A168A11F02325
:100748000A128A11323083120313B2009930B300AF
:1007580083160313500883120313A300831603138D
:100768004F0883120313A200831603134E08831243
:100778000313A100831603134D0883120313A0006B
:100788000A168A11B9250A128A118312031321083D
:10079800B5002008B400E0300A128A15C4220A12F3
:1007A8008A110A3083120313A40002300A168A1130
:1007B8000A250A128A11E03083120313A5000030BB
:1007C800A6000A168A11F0230A128A11831203134B
:1007D800A401A40A01300A168A110A250A128A11EC
:1007E8003D3083120313A5009930A6000A168A111A
:1007F800F0230A128A11103083120313B2009930C1
:10080800B30083160317170883120313B500831662
:100818000317160883120313B40083160313690819
:1008280083120313B7008316031368088312031394
:10083800B600831603135B0883120313B9008316EB
:1008480003135A0883120313B800831603135D08B1
:1008580083120313BB00831603135C08831203136C
:10086800BA00D1300A128A15C4220A128A11053038
:1008780083120313A40001300A168A110A250A12EA
:100888008A11D13083120313A5000030A6000A167E
:100898008A11F0230A128A1183120313871C552C1C
:1008A800562C7D2C0918592C5A2C5E2C091D5D2CB0
:1008B8005E2C7D2C0D30A40002300A168A110A2500
:1008C8000A128A111A3083120313A5009930A60060
:1008D8000A168A11F0230A128A1138308312031378
:1008E800A1009930A2000A168A1136240A128A1128
:1008F800262E091D802C812C852C0918842C852CEA
:100908008D2C091D882C892CE32C89188C2C8D2C76
:10091800E32C0D30A40002300A168A110A250A12A7
:100928008A11FC3083120313A5009830A6000A161A
:100938008A11F0230A128A110330831603171B0247
:10094800203003191A020318AA2CAB2C262E50307B
:100958009C0703189D0A00309D0703301D022130B3
:1009680003191C02031CB92CBA2CBE2C20309C0085
:1009780003309D002C3083120313B2009930B3006A
:10098800831603171D0883120313B5008316031774
:100998001C0883120313B400BD300A128A15C4223E
:1009A8000A128A11BD3083120313A1000030A2007D
:1009B8000A168A1136240A128A11262E262E091C96
:1009C800E62CE72C1E2D0D30A40002300A168A11E1
:1009D8000A250A128A11DC3083120313A500983005
:1009E800A6000A168A11F0230A128A112C308312E3
:1009F8000313B2009930B300831603171B08831240
:100A08000313B500831603171A0883120313B400DF
:100A180058300A128A15C4220A128A1158308312D1
:100A28000313A1000030A2000A168A1136240A1204
:100A38008A11262E071D212D222D492D8918252D95
:100A4800262D2A2D071C292D2A2D492D0D30A400CD
:100A580002300A168A110A250A128A1123308312D3
:100A68000313A5009930A6000A168A11F0230A126A
:100A78008A11383083120313A1009930A2000A1694
:100A88008A1136240A128A11262E071C4C2D4D2D48
:100A9800512D8918502D512D592D071C542D552D88
:100AA800AE2D0918582D592DAE2D0D30A400023049
:100AB8000A168A110A250A128A11063083120313AC
:100AC800A5009930A6000A168A11F0230A128A1185
:100AD800FC30831603171B02E03003191A020318AF
:100AE800762D772DE22C50309C020030031C9D039C
:100AF8009D02FC301D02E03003191C020318852DED
:100B0800862D8A2DE0309C00FC309D002C3083120D
:100B18000313B2009930B300831603171D0883121C
:100B28000313B500831603171C0883120313B400BC
:100B3800C5300A128A15C4220A128A11C5308312D6
:100B48000313A1000030A2000A168A1136240A12E3
:100B58008A11262E891CB12DB22D022E0D30A4002B
:100B680002300A168A110A250A128A11CF30831216
:100B78000313A5009830A6000A168A11F0230A125A
:100B88008A11831603171A0983120313D4008316D4
:100B980003171B0983120313D500D40A0319D50AB6
:100BA800540883160313DE008312031355088316B3
:100BB8000313DF002C3083120313B2009930B30003
:100BC800831603135F0883120313B50083160313F8
:100BD8005E0883120313B400A0300A128A15C422D7
:100BE8000A128A11A03083120313A1000030A20058
:100BF8000A168A1136240A128A11262E831603171A
:100C08009C019D010D3083120313A40002300A16C3
:100C18008A110A250A128A11B33083120313A50018
:100C28009830A6000A168A11F0230A128A11383061
:100C380083120313A1009930A2000A168A113624E0
:100C48000A128A1183120313871C2B2E2C2E382E7E
:100C580009182F2E302E342E091D332E342E382EFF
:100C6800831203130516D92E071D3B2E3C2E452E45
:100C780089183F2E402E342E071C432E442E452E15
:100C8800342E0512D92E871D4A2E4B2EA12EA401D3
:100C9800A40A01300A168A110A250A128A11373065
:100CA80083120313A5009830A6000A168A11F023B0
:100CB8000A128A1183120313A401A40A02300A1625
:100CC8008A110A250A128A111C3083120313A500FF
:100CD8009830A6000A168A11F0230A128A113830B1
:100CE80083120313A1009930A2000A168A11362430
:100CF8000A128A118312031305160630831203138E
:100D0800D6001330D500AD30D400D40B892ED50BC6
:100D1800892ED60B892E83120313051210308312E5
:100D28000313D6003930D5000D30D400D40B9A2ED9
:100D3800D50B9A2ED60B9A2E342E081CA42EA52E2F
:100D4800D92E3830A1009930A2000A168A1136240B
:100D58000A128A1183120313A401A40A01300A1685
:100D68008A110A250A128A11693083120313A50011
:100D78009830A6000A168A11F0230A128A118312E3
:100D88000313A401A40A02300A168A110A250A12BA
:100D98008A11513083120313A5009830A6000A1651
:100DA8008A11F0230A128A117E2E0A128A11C52F7F
:100DB8000A128A110E2883160313061086100611CC
:100DC800861106128612051209148914871407154C
:100DD800091507148715081485140A168A1156254B
:100DE8000A128A1183160313071387178230831296
:100DF8000313D500DD30D400D40B002FD50B002F02
:100E08008312031305120030A000A1000A128A11F0
:100E1800E6270A128A11831203132108831603177F
:100E28009F00831203132008831603179E000130C6
:100E380083120313A0000030A1000A128A11E627CA
:100E48000A128A1183120313210883160317A100BB
:100E580083120313200883160317A000023083129D
:100E68000313A0000030A1000A128A11E6270A1213
:100E78008A1183120313210883160317A300831210
:100E88000313200883160317A20083160313811285
:100E980081110115811401148B170B178B160A1673
:100EA8008A1196220A128A1183120313A401A40A32
:100EB80001300A168A110A250A128A1194308312FF
:100EC8000313A5009830A6000A168A11F0230A1207
:100ED8008A1183120313A401A40A02300A168A1184
:100EE8000A250A128A11A43083120313A500983028
:100EF800A6000A168A11F0230A128A1111308312E9
:100F08000313A40002300A168A110A250A128A114C
:100F1800423083120313A5009930A6000A168A11DD
:100F2800F0230A128A11063083120313D6001330F5
:100F3800D500AD30D400D40B9F2FD50B9F2FD60BE7
:100F48009F2F0A168A1196220A128A110C308316CC
:100F5800031399000A168A11B1220A128A118316FC
:100F680003139F171F08F03904389F0083120313D7
:100F78001F083F3980389F001F14831603179C01F0
:100F88009D01831203138719CA2FCD2F0A128A11C4
:100F9800472E0818D02FD12FCA2F831603171E08E3
:100FA8001F040319D82FDB2F0A128A15F228F530EF
:100FB8001E06031DE22F1F030319E52F0A128A15C7
:100FC800E928D82F831203132008831203178D00F2
:100FD800831603170C14831203170C0883120313C8
:0E0FE800A200A3012208A0002308A100080017
:10100C0083120313A800A401A5012008A200A301C8
:10101C002208A6002308A700281C152816281C281F
:10102C002608A4070318A50A2708A50701300310F2
:10103C00A60DA70DFF3E031D1D280310A80C2808A4
:10104C00031D29282A2812282508A1002408A000FD
:10105C00080083120313A800280803193628372820
:10106C004B28A31F3A283B284B282009AA0021090A
:10107C00AB002209AC002309AD00AA0A0319AB0A84
:10108C000319AC0A0319AD0A53282308AD00220832
:10109C00AC002108AB002008AA002308220421047C
:1010AC002004031D5A285B2864280030A30000305C
:1010BC00A2000030A1000030A000E8289630A90062
:1010CC0074280130FF007F08A90701300310AD0C14
:1010DC00AC0CAB0CAA0CFF3E031D6C28FE302D058E
:1010EC00031D79287A28672896280130FF007F088D
:1010FC00A9070130AA07003003180130AB070030F4
:10110C0003180130AC07003003180130AD07013073
:10111C000310AD0CAC0CAB0CAA0CFF3E031D8E28BF
:10112C00FF302D05031D9B289C287B28A828013007
:10113C00A9020130A4000310AA0DAB0DAC0DAD0D2E
:10114C00A40BA128AC1BAB28AC28B2280230290276
:10115C000318B128B2289D282918B528B628BE280E
:10116C00FF30AA05FF30AB057F30AC05FF30AD0575
:10117C000310A90C2908A400A501A601A701183089
:10118C000310A40DA50DA60DA70DFF3E031DC6282B
:10119C002408AA042508AB042608AC042708AD04CF
:1011AC0028080319DA28DB28E028A31FDE28DF280B
:1011BC00E028AD172D08A3002C08A2002B08A100D5
:1011CC002A08A0000800F6301E06031DF1281F0394
:1011DC00031DF128F2284D2920032104031DF728B3
:1011EC00F8284D290A168A1196220A128A15831696
:1011FC000313EA01EB016B08803AFF0080307F0299
:10120C00031D0A290A306A02031C0D290E290F2915
:10121C00452983120313A401A40A01300A168A116A
:10122C000A250A128A15813083120313A5009830FF
:10123C00A6000A168A11F0230A128A1583120313C8
:10124C00A401A40A02300A168A110A250A128A1568
:10125C00C13083120313A5009830A6000A168A1118
:10126C00F0230A128A158312031305160130831614
:10127C000313EA070318EB0A0030EB0701290A16DF
:10128C008A1196220A128A15831203130512F4305E
:10129C00831603171E06031D58291F03031957290C
:1012AC0058296A29F5301E06031D61291F030319ED
:1012BC00602961296A29F6301E06031D69291F035E
:1012CC00031D69296A29C52920082104031D6F29DA
:1012DC007029C5290A168A1196220A128A158316B4
:1012EC000313EC01ED016D08803AFF0080307F02A2
:1012FC00031D82290A306C02031C85298629872943
:10130C00BD2983120313A401A40A01300A168A1101
:10131C000A250A128A15813083120313A50098300E
:10132C00A6000A168A11F0230A128A1583120313D7
:10133C00A401A40A02300A168A110A250A128A1577
:10134C00C13083120313A5009830A6000A168A1127
:10135C00F0230A128A158312031305160130831623
:10136C000313EC070318ED0A0030ED0779290A1670
:10137C008A1196220A128A15831203130512E83079
:10138C00831603171E06033003191F060319CF29F2
:10139C00D029E229E9301E06033003191F06031970
:1013AC00D829D929E229EA301E06033003191F0671
:1013BC00031DE129E2293D2A20082104031DE72908
:1013CC00E8293D2A0A168A1196220A128A158316D2
:1013DC000313EE01EF016F08803AFF0080307F02AB
:1013EC00031DFA290A306E02031CFD29FE29FF2970
:1013FC00352A83120313A401A40A01300A168A1198
:10140C000A250A128A15813083120313A50098301D
:10141C00A6000A168A11F0230A128A1583120313E6
:10142C00A401A40A02300A168A110A250A128A1586
:10143C00C13083120313A5009830A6000A168A1136
:10144C00F0230A128A158312031305160130831632
:10145C000313EE070318EF0A0030EF07F1290A1601
:10146C008A1196220A128A15831203130512DC3094
:10147C00831603171E06053003191F060319472A86
:10148C00482A5A2ADD301E06053003191F06031997
:10149C00502A512A5A2ADE301E06053003191F061F
:1014AC00031D592A5A2AB52A20082104031D5F2A34
:1014BC00602AB52A0A168A1196220A128A158316F0
:1014CC000317900191011108803AFF0080307F02D0
:1014DC00031D722A0A301002031C752A762A772AF9
:1014EC00AD2A83120313A401A40A01300A168A112F
:1014FC000A250A128A15813083120313A50098302D
:10150C00A6000A168A11F0230A128A1583120313F5
:10151C00A401A40A02300A168A110A250A128A1595
:10152C00C13083120313A5009830A6000A168A1145
:10153C00F0230A128A158312031305160130831641
:10154C00031790070318910A00309107692A0A16AD
:10155C008A1196220A128A15831203130512D030AF
:10156C00831603171E06073003191F060319C12A19
:10157C000A128A111F280A128A11312883120313A6
:10158C00C8003430C100A02C253047060319CF2ADF
:10159C00D02ADA2A480884004708831380000130D7
:1015AC00FF007F08C807A02CC501C601C401E52AAD
:1015BC0044150130B2070318B30A0030B3073308DF
:1015CC00FF00320884000A168A1500200A128A15B8
:1015DC00BC00BD013D08003A0319F52AFA2A3C0863
:1015EC00303A0319DE2AFA2A3308FF003208840045
:1015FC000A168A1500200A128A150A168A11C122A7
:10160C000A128A15031C0B2B0C2B552B831203135C
:10161C00C501C6010A3083120313A0000030A100DB
:10162C004608A3004508A2000A168A1154230A1280
:10163C008A15831203132108C6002008C50033083D
:10164C00FF00320884000A168A1500200A128A1537
:10165C00D03EBC00FF3003180030BD003C08C5076D
:10166C000318C60A3D08C6070130B2070318B30AAF
:10167C000030B3073308FF00320884000A168A15BD
:10168C0000200A128A150A168A11C1220A128A151A
:10169C000318512B522B102B552B44177D2B8312D7
:1016AC0003133308BD003208BC00B20A0319B30A95
:1016BC003D08FF003C0884000A168A1500200A1217
:1016CC008A15C700BE00BF013F08003A03196F2BF3
:1016DC00A02C3E08003A0319B62C643A03197D2B52
:1016EC000D3A03197D2B1C3A0319532BA02C441BC8
:1016FC00802B812B9B2B4108840083130008C20094
:10170C00840A0008C3000230FF007F08C107C31F12
:10171C00902B912BA72B0330FF007F08C404C20928
:10172C00C309C20A0319C30AA72B410884008313F7
:10173C000008C200840A0008C3000230FF007F08C2
:10174C00C107C701C70A4708BC003C07123E84000A
:10175C0098300318013EFF000A168A1500200A1261
:10176C008A15BD000A168A1500200A128A15BE00B9
:10177C003E084302031DC42B3D0842020318C72B2D
:10178C00C82BC92BD32B0130FF007F08C7070530AE
:10179C004706031DD22BD32BA92B4508460403194E
:1017AC00D82BD92BE52B440803390319DE2BDF2B5F
:1017BC00E52BFF30C5070318C60AFF30C6074608DD
:1017CC00803A803C031DEC2B450847020318EF2B95
:1017DC00F02BFC2B831203134708BC00BD013C0803
:1017EC00C5023D08031CC603C602002C831203135A
:1017FC00C501C601441D032C042C2F2C44080339AD
:10180C000319092C0A2C132C480884002D3083133F
:10181C0080000130FF007F08C80745084604031903
:10182C00182C192C592C4808840030308313800054
:10183C000130FF007F08C807FF30C5070318C60A30
:10184C00FF30C60745084604031D2D2C2E2C192CE1
:10185C00592C450846040319342C352C4A2C4808BD
:10186C0084002030831380000130FF007F08C807FC
:10187C00FF30C5070318C60AFF30C60745084604E3
:10188C00031D492C4A2C352C4408033903194F2CC1
:10189C00502C592C480884002D30831380000130C3
:1018AC00FF007F08C8074708C000972C0A30AD001E
:1018BC000030AE004008BC003C07123E840098305B
:1018CC000318013EFF000A168A1500200A128A1519
:1018DC00A6000A168A1500200A128A15A7004308CA
:1018EC00A9004208A8000A168A117C240A128A153B
:1018FC00831203132708B0002608AF000A168A11BA
:10190C00B4230A128A15831203132D08303EC70024
:10191C00480884004708831380000130FF007F08CB
:10192C00C807FF30FF007F08C007400A031D9F2C2B
:10193C00A02C5C2C3308BD003208BC00B20A031981
:10194C00B30A3D08FF003C0884000A168A150020E3
:10195C000A128A15C7004708031DB52CB62CCA2AD3
:10196C0048088400831380010800831203133D0888
:10197C008039C7003D08C2004207CD00BC1FC72CF0
:10198C00C82CC92C4D144D080319CD2CCE2CDD2C94
:10199C004D0A031DD22CD32CDB2C0030BD000030A3
:1019AC00BC000030BB000030BA00BC17E52C003086
:1019BC00BD000030BC000030BB000030BA00410854
:1019CC008039FF007F08C7064108C2004207C800E3
:1019DC00C01FF12CF22CF32C481448080319F72CD7
:1019EC00F82C072D480A031DFC2CFD2C052D00306E
:1019FC00C1000030C0000030BF000030BE00C01776
:101A0C000F2D0030C1000030C0000030BF0000308E
:101A1C00BE0048080319132D142D192D4D08031D54
:101A2C00182D192D222D0030BD000030BC000030C7
:101A3C00BB000030BA00FF2F3A08A00040080A1281
:101A4C008A1506200A128A15831203132108D30063
:101A5C002008D2005208C200C301C401C5014508C8
:101A6C00CC004408CB004308CA004208C900530804
:101A7C00C200C301C401C5014508D1004408D0000F
:101A8C004308CF004208CE003B08A0003F080A12D2
:101A9C008A1506200A128A15831203132108D30013
:101AAC002008D2005208C200C301C401C50142087B
:101ABC00C907430803110318013E0319662DCA0711
:101ACC00440803110318013E03196D2DCB0745087B
:101ADC0003110318013E0319742DCC075308C200DF
:101AEC00C301C401C5014208CE0743080311031802
:101AFC00013E0319822DCF07440803110318013E40
:101B0C000319892DD007450803110318013E031949
:101B1C00902DD1073C08A0003E080A128A15062019
:101B2C000A128A15831203132108D3002008D2004D
:101B3C005208C200C301C401C5014208C9074308C9
:101B4C0003110318013E0319AC2DCA0744080311F5
:101B5C000318013E0319B32DCB07450803110318D5
:101B6C00013E0319BA2DCC075308C200C301C401AE
:101B7C00C5014208CE07430803110318013E03199F
:101B8C00C82DCF07440803110318013E0319CF2DAC
:101B9C00D007450803110318013E0319D62DD107B0
:101BAC000830C2000310C90DCA0DCB0DCC0DC20BF1
:101BBC00D82D3B08A0003E080A128A1506200A12EE
:101BCC008A15831203132108D3002008D20052086F
:101BDC00C2005308C300C401C5014208C907430829
:101BEC0003110318013E0319FC2DCA074408031105
:101BFC000318013E0319032ECB07450803110318E4
:101C0C00013E03190A2ECC073A08A0003F080A121D
:101C1C008A1506200A128A15831203132108D30091
:101C2C002008D2005208C2005308C300C401C501E9
:101C3C004208C907430803110318013E0319272E54
:101C4C00CA07440803110318013E03192E2ECB07B3
:101C5C00450803110318013E0319352ECC07083033
:101C6C00C2000310C90DCA0DCB0DCC0DC20B372E03
:101C7C003A08A0003E080A128A1506200A128A1594
:101C8C00831203132108D3002008D2005208C2008B
:101C9C005308C300C401C5014208C9074308031116
:101CAC000318013E03195B2ECA07440803110318DD
:101CBC00013E0319622ECB07450803110318013EA0
:101CCC000319692ECC073B08A00040080A128A159C
:101CDC0006200A128A15831203132108D300200848
:101CEC00D2005208C2005308C300C401C501420807
:101CFC00CE07430803110318013E0319862ECF07A4
:101D0C00440803110318013E03198D2ED007450812
:101D1C0003110318013E0319942ED1073C08A000AF
:101D2C003F080A128A1506200A128A158312031319
:101D3C002108D3002008D2005208C2005308C30067
:101D4C00C401C5014208CE07430803110318013E24
:101D5C000319B12ECF07440803110318013E0319D0
:101D6C00B82ED007450803110318013E0319BF2EE6
:101D7C00D1073C08A00040080A128A1506200A1256
:101D8C008A15831203132108D3002008D2005208AD
:101D9C00C2005308C300C401C50108300310C20DB2
:101DAC00C30DC40DC50DFF3E031DD42E4208CE0736
:101DBC00430803110318013E0319E52ECF0744080D
:101DCC0003110318013E0319EC2ED007450803112B
:101DDC000318013E0319F32ED1074908C2004A0823
:101DEC00C3004B08C4004C08C50018300310C50CC8
:101DFC00C40CC30CC20CFF3E031DFC2E4208CE07C4
:101E0C00430803110318013E03190D2FCF07440893
:101E1C0003110318013E0319142FD00745080311B1
:101E2C000318013E03191B2FD1070830C200031001
:101E3C00C90DCA0DCB0DCC0DC20B1D2F4D0848077B
:101E4C00C200C301C30D4208823ED20043080318EE
:101E5C00013EFF3ED3004F2F0130C2000310CE0DC8
:101E6C00CF0DD00DD10DC20B342FCC1F3E2F3F2FD9
:101E7C00402F4E140130C2000310C90DCA0DCB0DFA
:101E8C00CC0DC20B422FFF30D2070318D30AFF3000
:101E9C00D307D01F522F532F322FC801CC1F572FCF
:101EAC00582F742FFF304905C200FF304A05C3007C
:101EBC00FF304B05C4007F304C05C5004508440479
:101ECC004304420403196B2F6C2F6F2FC801C80AEF
:101EDC00742F4E1C722F732F742F6C2F48080319FC
:101EEC00782F792FAA2F0130CE070030031801303C
:101EFC00CF07003003180130D00700300318013031
:101F0C00D107511C8A2F8B2FAA2F4E08C2004F08C5
:101F1C00C3005008C4005108C5000130C600450D6F
:101F2C00C50CC40CC30CC20CC60B952F4508D100B4
:101F3C004408D0004308CF004208CE000130D2073D
:101F4C000318D30A0030D3075308803AFF008030BF
:101F5C007F02031DB32FFF305202031CB62FB72F85
:101F6C00C22F7F3083120313D1008030D000003099
:101F7C00CF000030CE00F32F831203135308803AA6
:101F8C00FF0080307F02031DCD2F01305202031859
:101F9C00D02FD12FDD2F003083120313D10000304E
:101FAC00D0000030CF000030CE00C701F32F8312D9
:101FBC0003135208CD00FF30CE05FF30CF057F3024
:101FCC00D0050030D1054D1CEC2FED2FEE2FD01786
:101FDC004D08C2000310420CD1004708FF007F08D7
:101FEC00D1045108BD005008BC004F08BB004E087E
:041FFC00BA0008001F
:10252C0000300A168A11D5220A168A1101300A16B1
:10253C008A11D5220A168A11080083120313A000EF
:10254C0083160313981CAB2AAC2AA62A83120313F6
:10255C00200899000800243083160313980090304B
:10256C008312031398000C30831603139900831203
:10257C0003139901080083120313A100A0013A3040
:10258C0021020318CA2ACB2AD32A30302102031C79
:10259C00D02AD12AD32AA001A00A200C0800831229
:1025AC000313A300861223080A168A110D230A1698
:1025BC008A11831203130616063083120313A2002A
:1025CC002F30A100A10BE82AA20BE82AED2A8312D6
:1025DC000313061208008312031320088312031737
:1025EC008D00831203132208831203178C008316A9
:1025FC0003170C158B1355308D00AA308D008C14DD
:10260C008B170C118C180B2B0C2B082B080083121E
:10261C000313A000201C132B142B162B8615172B21
:10262C008611A01C1A2B1B2B1D2B06151E2B0611FD
:10263C00201D212B222B242B8614252B8610A01D2C
:10264C00282B292B2B2B06142C2B061008000B1DCA
:10265C00302B312B4B2B0B113D308312031381008C
:10266C000130F6070318F70A0030F7071430760626
:10267C007704031D422B432B4B2BF601F7019E30A5
:10268C000A168A11C2240A168A1175088A0074085F
:10269C008400730E8300FE0E7E0E0900831203135A
:1026AC00A401A501201C5B2B5C2B622B2208A40728
:1026BC000318A50A2308A50701300310A20DA30DCA
:1026CC00FF3E031D632B01300310A10CA00CFF3E39
:1026DC00031D6A2B20082104031D752B762B582B08
:1026EC002508A1002408A000080083120313A400ED
:1026FC0024080F39A2002408F039A30086162308F9
:10270C00A10004300310A10CFF3E031D882B2108EF
:10271C000A168A110D230A168A1183120313061640
:10272C000C3083120313A100A10B9A2B000083120F
:10273C000313061222080A168A110D230A168A118F
:10274C008312031306160C3083120313A100A10B82
:10275C00AD2B00008312031306120800831203131F
:10276C002D082E040319BB2BBC2BEB2BB101B10A8A
:10277C00CA2B01300310AD0DAE0DFF3E031DC02B57
:10278C000130FF007F08B107AE1FCD2BCE2BBF2B26
:10279C002E083002031DD42B2D082F02031CD72B1F
:1027AC00D82BDE2B2D08AF022E08031CB003B00271
:1027BC0001300310AE0CAD0CFF3E031DDF2B0130BE
:1027CC00B102031DEA2BEB2BCE2B3008AE002F08E9
:1027DC00AD00080083120313AA01AB01192C2A08BF
:1027EC002507A8002608A7000318A70AAA1FFF2B75
:1027FC00A703831203132708A9002908FF00280840
:10280C0084000A168A1500200A168A110A168A11E3
:10281C007B230A168A11013083120313AA070318AB
:10282C00AB0A0030AB072A082507A8002608A7002A
:10283C000318A70AAA1F232CA70383120313270824
:10284C00A9002908FF00280884000A168A15002010
:10285C000A168A11003A031D342C352CF52B08006E
:10286C0083120313A601A7015F2C26082107A400DD
:10287C002208A3000318A30AA61F452CA303831246
:10288C0003132308A5002508FF00240884000A165A
:10289C008A1500200A168A110A168A11A3220A1612
:1028AC008A11013083120313A6070318A70A0030FC
:1028BC00A70726082107A4002208A3000318A30ACF
:1028CC00A61F692CA303831203132308A500250854
:1028DC00FF00240884000A168A1500200A168A11A3
:1028EC00003A031D7A2C7B2C3B2C0800831203131B
:1028FC00AA01AB01260827040319852C862CBD2CB4
:10290C00AC01AC0A942C01300310A60DA70DFF3EB0
:10291C00031D8A2C0130FF007F08AC07A71F972CE2
:10292C00982C892C01300310AA0DAB0DFF3E031D12
:10293C00992C27082902031DA52C26082802031C04
:10294C00A82CA92CB02C2608A8022708031CA90324
:10295C00A9022A1401300310A70CA60CFF3E031D7C
:10296C00B12C0130AC02031DBC2CBD2C982C2B08B7
:10297C00A7002A08A6000800F2007208043E840092
:10298C00013083178007840A0318800A7208043EFA
:10299C0084000008F000840A0008F1000030710285
:1029AC003C3003197002031CDC2CDD2C092D720841
:1029BC00043E84008001840A80017208023E840077
:1029CC0001308007840A0318800A7208023E8400D2
:1029DC000008F000840A0008F100003071023C305D
:1029EC0003197002031CFB2CFC2C092D7208023EEF
:1029FC0084008001840A8001720884000130800701
:102A0C00840A0318800A080083120313A600260305
:102A1C00031D112D122D312D24087F3EA9002908EC
:102A2C00A50004300310A50CFF3E031D182D25082E
:102A3C00A70029080F39A80027080A168A11D522E1
:102A4C000A168A118312031328080A168A11D52232
:102A5C000A168A11552D02302606031D362D372DE8
:102A6C00552D2408BF3EA9002908A50004300310E9
:102A7C00A50CFF3E031D3D2D2508A70029080F3985
:102A8C00A80027080A168A11D5220A168A11831261
:102A9C00031328080A168A11D5220A168A1108006F
:102AAC0000300A168A110D230A168A111A30831265
:102ABC000313A500F730A400A40B622DA50B622D07
:102ACC00672D03300A168A11D5220A168A1107308F
:102ADC0083120313A5007C30A400A40B732DA50B4B
:102AEC00732D000003300A168A11D5220A168A119A
:102AFC000F3083120313A5004730A400A40B842DC0
:102B0C00A50B842D03300A168A11D5220A168A11B8
:102B1C0002300A168A11D5220A168A1102300A16B8
:102B2C008A11D5220A168A1108300A168A11D52262
:102B3C000A168A1100300A168A11D5220A168A1131
:102B4C000C300A168A11D5220A168A1100300A1680
:102B5C008A11D5220A168A1106300A168A11D52234
:102B6C000A168A110800031083120313220D230D79
:102B7C00A9002908031DC32DC42DCD2D0030A300A1
:102B8C000030A2000030A1000030A000302E200840
:102B9C00A4002108A5002208A6002308A7001F30C6
:102BAC000310A70CA60CA50CA40CFF3E031DD62DE0
:102BBC002408A800A217FF30A005FF30A105FF30A4
:102BCC00A2050030A3059630A902A91FEE2DEF2D0A
:102BDC00092E2908803A973E0318F52DF62DF72D6E
:102BEC00C42D01300310A30CA20CA10CA00CFF3EB1
:102BFC00031DF82D0130FF007F08A907031D072EC8
:102C0C00082EF72D202E20302902031C0E2E0F2EFD
:102C1C001B2EC42D0130A4000310A00DA10DA20D7C
:102C2C00A30DA40B122E0130A9022908031D1F2E7F
:102C3C00202E102E28080319242E252E302EA00904
:102C4C00A109A209A309A00A0319A10A0319A20A3E
:102C5C000319A30A08008312031327088039B10053
:102C6C002708A8002807B800A61F3D2E3E2E3F2E91
:102C7C00381438080319432E442E542E380A031DD9
:102C8C00482E492E512E0030A7000030A6000030EF
:102C9C00A5000030A400A617A7015C2E0030A700E9
:102CAC000030A6000030A5000030A40023088039B5
:102CBC00FF007F08B1062308A8002807B900A21F4F
:102CCC00682E692E6A2E3914390803196E2E6F2E50
:102CDC007F2E390A031D732E742E7C2E0030A30018
:102CEC000030A2000030A1000030A000A217A30108
:102CFC00872E0030A3000030A2000030A10000306D
:102D0C00A0002308220421042004031D8E2E8F2EE4
:102D1C00A82E0030A7000030A6000030A50000301F
:102D2C00A4008030A6047F30A7043108FF007F0880
:102D3C00A7042708A3002608A2002508A100240840
:102D4C00A000FF2F3808031DAC2EAD2EB62E003080
:102D5C00A3000030A2000030A1000030A000FF2F23
:102D6C003808A800A9012908AB0039082802AA00D4
:102D7C00031CAB032A087F3EB2002B080318013E4C
:102D8C00003EB3002708B0002608AF002508AE00AF
:102D9C002408AD000030A7000030A6000030A500CC
:102DAC000030A4000030B7000030B6000030B50091
:102DBC000030B400B9012C2F39080319E62EE72E88
:102DCC00072F0130A8000310AD0DAE0DAF0DB00DE7
:102DDC00A80BE92E0130A8000310A40DA50DA60D1B
:102DEC00A70DA80BF22EB71FFC2EFD2EFE2E2414C1
:102DFC000130A8000310B40DB50DB60DB70DA80B1E
:102E0C00002F23083002031D152F22082F02031D4B
:102E1C00152F21082E02031D152F20082D02031C2F
:102E2C00182F192F282F37172008AD022108031C43
:102E3C00210FAE022208031C220FAF022308031C31
:102E4C00230FB0020130FF007F08B9071A30390296
:102E5C00031C312F322FE22E30082F042E042D04A8
:102E6C000319392F3A2F592F3414592F0130A80038
:102E7C000310A40DA50DA60DA70DA80B3E2FB71F73
:102E8C00482F492F4A2F24140130A8000310B40DE9
:102E9C00B50DB60DB70DA80B4C2FFF30B2070318AC
:102EAC00B30AFF30B307A61F5C2F5D2F3C2FB9016F
:102EBC00B71F612F622F7E2FFF303405A800FF3023
:102ECC003505A900FF303605AA007F303705AB0069
:102EDC002B082A04290428040319752F762F792F1F
:102EEC00B901B90A7E2F241C7C2F7D2F7E2F762FC3
:102EFC0039080319822F832FB42F0130A407003017
:102F0C0003180130A507003003180130A607003064
:102F1C0003180130A707271C942F952FB42F2408D2
:102F2C00A8002508A9002608AA002708AB00013034
:102F3C00AC002B0DAB0CAA0CA90CA80CAC0B9F2F46
:102F4C002B08A7002A08A6002908A5002808A40019
:102F5C000130B2070318B30A0030B3073308803AC4
:102F6C00FF0080307F02031DBD2FFF303202031C97
:102F7C00C02FC12FCF2FFF3083120313B2000030AC
:102F8C00B3000030A7000030A6000030A5000030D0
:102F9C00A400831203133308803AFF0080307F02B1
:102FAC00031DDA2F013032020318DD2FDE2FEB2F39
:102FBC0083120313B201B3010030A7000030A60046
:102FCC000030A5000030A400B101831203133208B5
:102FDC00B800381CF22FF32FF52FA617F92F7F30DE
:102FEC00FF007F08A6053808A8000310280CA700CE
:102FFC009B2E0800FF1B0A2883137F1883170008D9
:10300C00840A0319FF0A08007F087F398A00040824
:10301C00840A0319FF0A8200013400340A34003494
:10302C0064340034E834033410342734203420342E
:10303C00203449344C34453452344C3445344D34BA
:10304C0045342034483441345434413453344934B5
:10305C0020342034203420342034203420342034C4
:10306C000034203420342034463445344534443440
:10307C0020345234413454344534203445345234A1
:10308C0052344F3452342034203420342034203401
:10309C0020342034003420342034203444344F3451
:1030AC004E344D3445342034483441345434413456
:1030BC005334493420342034203420342034203408
:1030CC0020342034003420342034203452344F3413
:1030DC0054344134543449344F344E342034453410
:1030EC00523452344F34523420342034203420346F
:1030FC0020342034003459344134473420344234A1
:10310C0041344B3449344D344934203459344134EE
:10311C00503449344E3449345A34003455345A34CA
:10312C004D3441344E344C344134523420344D34CB
:10313C0041344B3449344E34413400347734773491
:10314C0077342E3462346F347234763465346B34A5
:10315C002E3463346F346D3400342034533454348F
:10316C004F34503420342034203420342034203454
:10317C002034203400344F3449344C34203454340B
:10318C004834453420344734453441345234533474
:10319C000034203452344534573420342034203415
:1031AC00203420342034203420340034203446346D
:1031BC005734443420342034203420342034203408
:1031CC0000342534353475346834203425343034A7
:1031DC00323475346D3400344634653465346434BB
:1031EC0052346134743465343A3400342034463407
:1031FC0057344434203431342E3436344B34003488
:10320C002034523445345734203431342E3436344F
:10321C004B340034253475342534753425347534E9
:10322C002E34253475340034203446345734443429
:10323C0020344C344D34543400342034523445341E
:10324C00573420344C344D345434003473342534D6
:10325C0064340D340A34003425343034303433348F
:10326C0075340034733430340D340A340034523431
:0E327C0050344D343A34003456343234003479
:02400E00793FF8
:00000001FF
