:060000000A128A110E280D
:10000800FE00030EF4000408F5000A08F6000A16BC
:100018008A111A2C0A128A111128F701F80183167D
:100028000317A401A501A601A701A801A901AA0116
:10003800AB0183010A168A11E22E831603131E08E8
:1000480083120313D400D5011E08D600D701560821
:10005800D700D60154085604A00055085704A1003B
:10006800A201A11BA2032208A30001300A168A11CB
:1000780028260A128A1183120313230883160317EA
:100088009500831203132208831603179400831222
:100098000313210883160317930083120313200800
:1000A8008316031792008312031309195C285D282D
:1000B8008B280718602861288B28831603171508D2
:1000C80083120313A3008316031714088312031360
:1000D800A20083160317130883120313A1008316C3
:1000E8000317120883120313A0000A168A11B025F9
:1000F8000A128A1183120313210D210C8316031788
:10010800A30083120313200C83160317A2004430A4
:1001180083120313BD007A30BC000030BB000030EE
:10012800BA004430A3008030A2000030A1000030A3
:10013800A00083160317150883120313A70083165C
:100148000317140883120313A60083160317130852
:1001580083120313A50083160317120883120313CF
:10016800A4000A128A1527200A128A11831203137F
:100178002308C1002208C0002108BF002008BE00D3
:100188000A128A1165240A128A11831203133D0880
:1001980083160313D800831203133C088316031332
:1001A800D700831203133B0883160313D600831268
:1001B80003133A0883160313D50083120313A4010B
:1001C800A40A02300A168A1173230A128A111F30F0
:1001D80083120313A5009130A6000A168A112D2355
:1001E8000A128A115F3083120313AC009130AD00FC
:1001F80083160313580883120313A30083160313EB
:10020800570883120313A200831603135608831298
:100218000313A10083160313550883120313A000C8
:100228000A168A11B0250A128A11831203132108AB
:10023800AF002008AE00EC300A128A15F6210A1227
:100248008A110A3083120313A40002300A168A1195
:1002580073230A128A11EC3083120313A5000030AD
:10026800A6000A168A112D230A128A118312031373
:10027800A401A40A01300A168A1173230A128A11EA
:100288006A3083120313A5009130A6000A168A115A
:100298002D230A128A113D3083120313AC009130CA
:1002A800AD0083160317190883120313AF008316D2
:1002B8000317180883120313AE00831603171708D1
:1002C80083120313B100831603171608831203134E
:1002D800B00083160313670883120313B300831651
:1002E8000313660883120313B20083160313690805
:1002F80083120313B50083160313680883120313CC
:10030800B400DD300A128A15F6210A128A11053066
:1003180083120313A40001300A168A1173230A12E8
:100328008A11DD3083120313A5000030A6000A16D7
:100338008A112D230A128A1183120313871CA529F7
:10034800A629CD290918A929AA29AE29091DAD2947
:10035800AE29CD290D30A40002300A168A11732364
:100368000A128A11473083120313A5009130A600A0
:100378000A168A112D230A128A1165308312031373
:10038800A1009130A2000A168A11A1220A128A112C
:10039800AC2B091DD029D129D5290918D429D5294B
:1003A800DD29091DD829D929332A8918DC29DD290D
:1003B800332A0D30A40002300A168A1173230A1258
:1003C8008A11293083120313A5009130A6000A165A
:1003D8008A112D230A128A11033083160317230268
:1003E8002030031922020318FA29FB29AC2B5030BC
:1003F800A2070318A30A0030A30703302302213001
:1004080003192202031C092A0A2A0E2A2030A200F4
:100418000330A300593083120313AC009130AD00B0
:1004280083160317230883120313AF0083160317D9
:10043800220883120313AE00BD300A128A15F62172
:100448000A128A11BD3083120313A1000030A200E2
:100458000A168A11A1220A128A11AC2BAC2B091C8C
:10046800362A372A6E2A0D30A40002300A168A115D
:1004780073230A128A11CD3083120313A50090301A
:10048800A6000A168A112D230A128A1159308312DE
:100498000313AC009130AD008316031723088312B1
:1004A8000313AF0083160317220883120313AE0049
:1004B8005A300A128A15F6210A128A115A30831202
:1004C8000313A1000030A2000A168A11A1220A1201
:1004D8008A11AC2B071D712A722A992A8918752A44
:1004E800762A7A2A071C792A7A2A992A0D30A400B2
:1004F80002300A168A1173230A128A1150308312A5
:100508000313A5009130A6000A168A112D230A129A
:100518008A11653083120313A1009130A2000A16D4
:100528008A11A1220A128A11AC2B071C9C2A9D2A27
:10053800A12A8918A02AA12AA92A071CA42AA52A1F
:100548003A2B0918A82AA92A3A2B0D30A400023000
:100558000A168A1173230A128A113330831203137D
:10056800A5009130A6000A168A112D230A128A11B5
:1005780083160317220983120313D4008316031763
:10058800230983120313D500D40A0319D50A540882
:10059800831603179E008312031355088316031747
:1005A8009F001F08803AFF007C307F02031DDE2A6F
:1005B800E1301E02031CE12AE22A322AB0308316F7
:1005C80003179E0703189F0AFF309F071F08803AEA
:1005D800FF007C307F02031DF32AE0301E0203185F
:1005E800F62AF72AFD2AE030831603179E00FC300E
:1005F8009F00831603171E0983120313D400831662
:1006080003171F0983120313D500D40A0319D50A47
:10061800540883160317A200831203135508831680
:100628000317A300593083120313AC009130AD00B7
:10063800831603171F0883120313AF0083160317CB
:100648001E0883120313AE00C5300A128A15F6215C
:100658000A128A11C53083120313A1000030A200C8
:100668000A168A11A1220A128A11AC2B891C3D2B69
:100678003E2B8E2B0D30A40002300A168A117323EC
:100688000A128A11EB3083120313A5009030A600DA
:100698000A168A112D230A128A11831603172209B2
:1006A80083120313D4008316031723098312031339
:1006B800D500D40A0319D50A540883160313EA008F
:1006C80083120313550883160313EB005930831262
:1006D8000313AC009130AD00831603136B0883122B
:1006E8000313AF00831603136A0883120313AE00C3
:1006F800A0300A128A15F6210A128A11A030831234
:100708000313A1000030A2000A168A11A1220A12BE
:100718008A11AC2B0D30A40002300A168A117323FB
:100728000A128A11073083120313A5009130A6001C
:100738000A168A112D230A128A11653083120313AF
:10074800A1009130A2000A168A11A1220A128A1168
:1007580083120313871CB12BB22BBE2B0918B52BA0
:10076800B62BBA2B091DB92BBA2BBE2B8312031338
:1007780005165F2C071DC12BC22BCB2B8918C52B47
:10078800C62BBA2B071CC92BCA2BCB2BBA2B05128D
:100798005F2C871DD02BD12B272CA401A40A013054
:1007A8000A168A1173230A128A1137308312031327
:1007B800A5009030A6000A168A112D230A128A1164
:1007C80083120313A401A40A02300A168A117323A0
:1007D8000A128A111C3083120313A5009030A60058
:1007E8000A168A112D230A128A11653083120313FF
:1007F800A1009130A2000A168A11A1220A128A11B8
:10080800831203130516063083120313D600133020
:10081800D500AD30D400D40B0F2CD50B0F2CD60B34
:100828000F2C831203130512103083120313D60002
:100838003930D5000D30D400D40B202CD50B202C0A
:10084800D60B202CBA2B081C2A2C2B2C5F2C65309D
:10085800A1009130A2000A168A11A1220A128A1157
:1008680083120313A401A40A01300A168A11732300
:100878000A128A11693083120313A5009030A6006A
:100888000A168A112D230A128A1183120313A4014E
:10089800A40A02300A168A1173230A128A115130E7
:1008A80083120313A5009030A6000A168A112D237F
:1008B8000A128A11042C0A168A11F42F0A128A11B4
:1008C8000E28831203133D088039C7003D08C20073
:1008D8004207CD00BC1F712C722C732C4D144D088F
:1008E8000319772C782C872C4D0A031D7C2C7D2C22
:1008F800852C0030BD000030BC000030BB0000304B
:10090800BA00BC178F2C0030BD000030BC0000308E
:10091800BB000030BA0041088039FF007F08C706D5
:100928004108C2004207CC00C01F9B2C9C2C9D2C68
:100938004C144C080319A12CA22CB12C4C0A031DF1
:10094800A62CA72CAF2C0030C1000030C00000300E
:10095800BF000030BE00C017B92C0030C100003005
:10096800C0000030BF000030BE004C080319BD2C89
:10097800BE2CC32C4D08031DC22CC32CCC2C00301C
:10098800BD000030BC000030BB000030BA00A92F09
:100998003A08A00040080A168A1103220A128A118E
:1009A800831203132108D3002008D2005208C20082
:1009B800C301C401C5014508CB004408CA00430867
:1009C800C9004208C8005308C200C301C401C501D8
:1009D8004508D1004408D0004308CF004208CE00A3
:1009E8003B08A0003F080A168A1103220A128A113E
:1009F800831203132108D3002008D2005208C20032
:100A0800C301C401C5014208C807430803110318FC
:100A1800013E0319102DC907440803110318013EAC
:100A28000319172DCA07450803110318013E0319B6
:100A38001E2DCB075308C200C301C401C5014208DB
:100A4800CE07430803110318013E03192C2DCF07C5
:100A5800440803110318013E0319332DD007450834
:100A680003110318013E03193A2DD1073C08A000D1
:100A78003E080A168A1103220A128A1183120313E6
:100A88002108D3002008D2005208C200C301C401C3
:100A9800C5014208C807430803110318013E03199A
:100AA800562DC907440803110318013E03195D2D8B
:100AB800CA07450803110318013E0319642DCB0723
:100AC8005308C200C301C401C5014208CE07430848
:100AD80003110318013E0319722DCF0744080311AF
:100AE8000318013E0319792DD0074508031103188F
:100AF800013E0319802DD1070830C2000310C80D2C
:100B0800C90DCA0DCB0DC20B822D3B08A0003E08B3
:100B18000A168A1103220A128A1183120313210862
:100B2800D3002008D2005208C2005308C300C401F1
:100B3800C5014208C807430803110318013E0319F9
:100B4800A62DC907440803110318013E0319AD2D4A
:100B5800CA07450803110318013E0319B42DCB0732
:100B68003A08A0003F080A168A1103220A128A11BD
:100B7800831203132108D3002008D2005208C200B0
:100B88005308C300C401C5014208C807430803113C
:100B98000318013E0319D12DC9074408031103188E
:100BA800013E0319D82DCA07450803110318013E51
:100BB8000319DF2DCB070830C2000310C80DC90D7B
:100BC800CA0DCB0DC20BE12D3A08A0003E080A164B
:100BD8008A1103220A128A11831203132108D300EF
:100BE8002008D2005208C2005308C300C401C5013E
:100BF8004208C807430803110318013E0319052ECC
:100C0800C907440803110318013E03190C2ECA072B
:100C1800450803110318013E0319132ECB073B089F
:100C2800A00040080A168A1103220A128A118312A8
:100C380003132108D3002008D2005208C200530829
:100C4800C300C401C5014208CE07430803110318B5
:100C5800013E0319302ECF07440803110318013E43
:100C68000319372ED007450803110318013E03194D
:100C78003E2ED1073C08A0003F080A168A1103221D
:100C88000A128A11831203132108D3002008D20004
:100C98005208C2005308C300C401C5014208CE0768
:100CA800430803110318013E03195B2ECF074408BC
:100CB80003110318013E0319622ED00745080311DA
:100CC8000318013E0319692ED1073C08A00040080B
:100CD8000A168A1103220A128A11831203132108A1
:100CE800D3002008D2005208C2005308C300C40130
:100CF800C50108300310C20DC30DC40DC50DFF3E5C
:100D0800031D7E2E4208CE07430803110318013E37
:100D180003198F2ECF07440803110318013E031946
:100D2800962ED007450803110318013E03199D2E7E
:100D3800D1074808C2004908C3004A08C4004B0844
:100D4800C50018300310C50CC40CC30CC20CFF3E00
:100D5800031DA62E4208CE07430803110318013EBF
:100D68000319B72ECF07440803110318013E0319CE
:100D7800BE2ED007450803110318013E0319C52EDE
:100D8800D1070830C2000310C80DC90DCA0DCB0D1C
:100D9800C20BC72E4D084C07C200C301C30D420841
:100DA800823ED20043080318013EFF3ED300F92ECD
:100DB8000130C2000310CE0DCF0DD00DD10DC20BE6
:100DC800DE2ECB1FE82EE92EEA2E4E140130C2008B
:100DD8000310C80DC90DCA0DCB0DC20BEC2EFF3088
:100DE800D2070318D30AFF30D307D01FFC2EFD2EDD
:100DF800DC2ECC01CB1F012F022F1E2FFF30480500
:100E0800C200FF304905C300FF304A05C4007F30E7
:100E18004B05C50045084404430442040319152F33
:100E2800162F192FCC01CC0A1E2F4E1C1C2F1D2F3C
:100E38001E2F162F4C080319222F232F542F013051
:100E4800CE07003003180130CF07003003180130F7
:100E5800D007003003180130D107511C342F352F2B
:100E6800542F4E08C2004F08C3005008C400510850
:100E7800C5000130C600450DC50CC40CC30CC20C1E
:100E8800C60B3F2F4508D1004408D0004308CF00C7
:100E98004208CE000130D2070318D30A0030D30726
:100EA8005308803AFF0080307F02031D5D2FFF301A
:100EB8005202031C602F612F6C2F7F3083120313A3
:100EC800D1008030D0000030CF000030CE009D2F00
:100ED800831203135308803AFF0080307F02031DFA
:100EE800772F0130520203187A2F7B2F872F00307B
:100EF80083120313D1000030D0000030CF0000303F
:100F0800CE00C7019D2F831203135208CD00FF3076
:100F1800CE05FF30CF057F30D0050030D1054D1C00
:100F2800962F972F982FD0174D08C2000310420C08
:100F3800D1004708FF007F08D1045108BD005008C0
:100F4800BC004F08BB004E08BA0008000A168A15F4
:100F5800E5270A128A1183120313AC01AD0183122B
:100F68000313A401A40A01300A168A1173230A1272
:100F78008A11AA3083120313A5009030A6000A161E
:100F88008A112D230A128A1183120313A401A40AB9
:100F980002300A168A1173230A128A11F930831251
:100FA8000313A5009030A6000A168A112D230A12F1
:100FB8008A118312031305160130AC070318AD0A12
:100FC8000030AD072D08803AFF0080307F02031DF6
:100FD800EF2F0A302C02031CF22FF32FB32F0A161F
:100FE8008A15E5270A128A118312031305120800CD
:1010000083120313A801A901241C072808280E280D
:101010002608A8070318A90A2708A9070130031002
:10102000A60DA70DFF3E031D0F2801300310A50CD0
:10103000A40CFF3E031D162824082504031D2128A7
:10104000222804282908A5002808A40008008312E3
:10105000031327088039B1002708A8002807B80023
:10106000A61F33283428352838143808031939289E
:101070003A284A28380A031D3E283F2847280030CE
:10108000A7000030A6000030A5000030A400A6177D
:10109000A70152280030A7000030A6000030A500AC
:1010A0000030A40023088039FF007F08B106230820
:1010B000A8002807B900A21F5E285F2860283914FD
:1010C00039080319642865287528390A031D692819
:1010D0006A2872280030A3000030A2000030A1006E
:1010E0000030A000A217A3017D280030A30000302B
:1010F000A2000030A1000030A00023082204210437
:101100002004031D842885289E280030A700003075
:10111000A6000030A5000030A4008030A6047F3077
:10112000A7043108FF007F08A7042708A3002608AA
:10113000A2002508A1002408A000F5293808031DF5
:10114000A228A328AC280030A3000030A200003061
:10115000A1000030A000F5293808A800A90129083D
:10116000AB0039082802AA00031CAB032A087F3E03
:10117000B2002B080318013E003EB3002708B00060
:101180002608AF002508AE002408AD000030A700F7
:101190000030A6000030A5000030A4000030B700E9
:1011A0000030B6000030B5000030B400B90122298B
:1011B00039080319DC28DD28FD280130A8000310B8
:1011C000AD0DAE0DAF0DB00DA80BDF280130A8009E
:1011D0000310A40DA50DA60DA70DA80BE828B71F99
:1011E000F228F328F42824140130A8000310B40DC9
:1011F000B50DB60DB70DA80BF62823083002031D58
:101200000B2922082F02031D0B2921082E02031D82
:101210000B2920082D02031C0E290F291E29371720
:101220002008AD022108031C210FAE022208031C76
:10123000220FAF022308031C230FB0020130FF006E
:101240007F08B9071A303902031C27292829D82812
:1012500030082F042E042D0403192F2930294F297B
:1012600034144F290130A8000310A40DA50DA60DBC
:10127000A70DA80B3429B71F3E293F294029241464
:101280000130A8000310B40DB50DB60DB70DA80BB5
:101290004229FF30B2070318B30AFF30B307A61F75
:1012A000522953293229B901B71F572958297429BE
:1012B000FF303405A800FF303505A900FF303605A2
:1012C000AA007F303705AB002B082A042904280424
:1012D00003196B296C296F29B901B90A7429241CD7
:1012E0007229732974296C293908031978297929F5
:1012F000AA290130A407003003180130A5070030E7
:1013000003180130A607003003180130A707271C77
:101310008A298B29AA292408A8002508A9002608BB
:10132000AA002708AB000130AC002B0DAB0CAA0CB7
:10133000A90CA80CAC0B95292B08A7002A08A6001D
:101340002908A5002808A4000130B2070318B30A31
:101350000030B3073308803AFF0080307F02031D5E
:10136000B329FF303202031CB629B729C529FF3043
:1013700083120313B2000030B3000030A700003026
:10138000A6000030A5000030A40083120313330828
:10139000803AFF0080307F02031DD02901303202E5
:1013A0000318D329D429E12983120313B201B3010D
:1013B0000030A7000030A6000030A5000030A400D7
:1013C000B101831203133208B800381CE829E92957
:1013D000EB29A617EF297F30FF007F08A605380804
:1013E000A8000310280CA7009128080083120313FB
:1013F000C2002E30BB00D22B253041060319012A32
:10140000022A0C2A4208840041088313800001301C
:10141000FF007F08C207D22BBF01C001BE01172AFF
:101420003E150130AC070318AD0A0030AD072D089A
:10143000FF002C0884000A168A1100200A128A155F
:10144000B600B7013708003A0319272A2C2A3608B4
:10145000303A0319102A2C2A2D08FF002C0884008A
:101460000A168A1100200A128A150A168A11882182
:101470000A128A15031C3D2A3E2A872A8312031367
:10148000BF01C0010A3083120313A4000030A5007D
:101490004008A7003F08A6000A128A1500200A1279
:1014A0008A15831203132508C0002408BF002D08E5
:1014B000FF002C0884000A168A1100200A128A15DF
:1014C000D03EB600FF3003180030B7003608BF0723
:1014D0000318C00A3708C0070130AC070318AD0A6B
:1014E0000030AD072D08FF002C0884000A168A1171
:1014F00000200A128A150A168A1188210A128A15F2
:101500000318832A842A422A872A3E17AF2A831285
:1015100003132D08B7002C08B600AC0A0319AD0A56
:101520003708FF00360884000A168A1100200A12C4
:101530008A15C100B800B9013908003A0319A12A77
:10154000D22B3808003A0319E82B643A0319AF2A62
:101550000D3A0319AF2A1C3A0319852AD22B3E1BD8
:10156000B22AB32ACD2A3B08840083130008BC00AA
:10157000840A0008BD000230FF007F08BB07BD1FC2
:10158000C22AC32AD92A0330FF007F08BE04BC093F
:10159000BD09BC0A0319BD0AD92A3B08840083137C
:1015A0000008BC00840A0008BD000230FF007F086C
:1015B000BB07C101C10A4108B6003607123E8400CC
:1015C00090300318013EFF000A168A1100200A120B
:1015D0008A15B7000A168A1100200A128A15B80067
:1015E00038083D02031DF62A37083C020318F92A81
:1015F000FA2AFB2A052B0130FF007F08C1070530BE
:101600004106031D042B052BDB2A3F084004031968
:101610000A2B0B2B172B3E0803390319102B112B08
:10162000172BFF30BF070318C00AFF30C007400860
:10163000803A803C031D1E2B3F0841020318212BDA
:10164000222B2E2B831203134108B600B701360854
:10165000BF023708031CC003C002322B83120313DE
:10166000BF01C0013E1D352B362B612B3E080339CF
:1016700003193B2B3C2B452B420884002D30831350
:1016800080000130FF007F08C2073F0840040319B3
:101690004A2B4B2B8B2B4208840030308313800065
:1016A0000130FF007F08C207FF30BF070318C00AE0
:1016B000FF30C0073F084004031D5F2B602B4B2BFE
:1016C0008B2B3F0840040319662B672B7C2B4208A9
:1016D00084002030831380000130FF007F08C207A0
:1016E000FF30BF070318C00AFF30C0073F0840049F
:1016F000031D7B2B7C2B672B3E0803390319812BA1
:10170000822B8B2B420884002D3083138000013004
:10171000FF007F08C2074108BA00C92B0A30A700A2
:101720000030A8003A08B6003607123E8400903018
:101730000318013EFF000A168A1100200A128A15BA
:10174000A0000A168A1100200A128A15A1003D087D
:10175000A3003C08A2000A168A11E7220A128A1581
:10176000831203132108AA002008A9000A168A116F
:1017700065220A128A15831203132708303EC1001E
:10178000420884004108831380000130FF007F0875
:10179000C207FF30FF007F08BA073A0A031DD12BAA
:1017A000D22B8E2B2D08B7002C08B600AC0A0319DB
:1017B000AD0A3708FF00360884000A168A11002097
:1017C0000A128A15C1004108031DE72BE82BFC29EA
:1017D000420884008313800108008312031309194F
:1017E000F22BF32B042C0918F62BF72B042C0718DB
:1017F000FA2BFB2B042C8918FE2BFF2B042C8316B1
:101800000317900191013D2CA401A40A01300A168E
:101810008A1173230A128A15963083120313A500C6
:101820009030A6000A168A112D230A128A158312F7
:101830000313A401A40A02300A168A1173230A12A0
:101840008A15813083120313A5009030A6000A1672
:101850008A112D230A128A15033083120313D6002E
:101860008A30D5005530D400D40B342CD50B342C11
:10187000D60B342C0A128A11622C83120313871997
:10188000422C452C0A128A11CD2B0818482C492CC1
:10189000422C0230A0000030A1000A168A119C21BF
:1018A0000A128A1583120313210883160313E50015
:1018B00083120313200883160313E40004308312F9
:1018C0000313A0000030A1000A168A119C210A12FD
:1018D0008A15831203132108A5002008A400FF30F5
:1018E000A6000030A7000A128A1500200A128A15E5
:1018F000831203132408D4002508D5000130A0006A
:101900000030A1000A168A119C210A128A1583123E
:1019100003132008540783160317A0008312031330
:1019200021080318210A550783160317A100143054
:1019300083120313AC009130AD0083160317210806
:1019400083120313AF0083160317200883120313B7
:10195000AE0083160313650883120313B1008316C8
:101960000313640883120313B000B4300A128A15FB
:10197000F6210A128A150A3083120313A4000130DB
:101980000A168A1173230A128A15D9308312031397
:10199000A5009030A6000A168A112D230A128A1576
:1019A0000B3083120313A40001300A168A1173232B
:1019B0000A128A15B43083120313A5000030A60062
:1019C0000A168A112D230A128A15F4308312031382
:1019D000AA000130AB0083160317210883120313FA
:1019E000AD0083160317200883120313AC000A16F8
:1019F0008A11BF230A128A15831203132A082B04A3
:101A0000031D032D042D0C2D83160317200821041C
:101A1000031D0B2D0C2D5C2DF43083120313AA0033
:101A20000130AB0083160317210883120313AD00A6
:101A300083160317200883120313AC000A168A11B9
:101A4000BF230A128A15831203132A032B04031DD2
:101A50002A2D2B2D332D8316031720032104031D5C
:101A6000322D332D5C2DF43083120313AA00013084
:101A7000AB0083160317210883120313AD008316EE
:101A80000317200883120313AC000A168A11BF2320
:101A90000A128A150230831203132A062B04031D2F
:101AA000522D532D672D0230831603172006210473
:101AB00003195B2D5C2D672D28082904031D612D5A
:101AC000622D672D0A128A11AA270A128A1583121B
:101AD00003131F08C73910389F000F3083120313F8
:101AE000D400D40B712D742D831203131F151F19ED
:101AF0007A2D7B2D772D831603131E088312031373
:101B0000D400D5011E08D600D7015608D700D6014B
:101B100054085604A00055085704A100A201A11BB7
:101B2000A2032208A30001300A168A1128260A12ED
:101B30008A1583120313230883160313D00083121C
:101B40000313220883160313CF0083120313210803
:101B500083160313CE008312031320088316031386
:101B6000CD00443083120313A3008030A200003064
:101B7000A1000030A0008316031350088312031342
:101B8000A700831603134F0883120313A6008316BE
:101B900003134E0883120313A500831603134D0885
:101BA00083120313A4000A128A1527200A128A1529
:101BB00083120313230883160313D4008312031321
:101BC000220883160313D3008312031321088316FC
:101BD0000313D20083120313200883160313D100CA
:101BE000831203131F08C73918389F000F30831260
:101BF0000313D400D40BFA2DFD2D831203131F15EC
:101C00001F19032E042E002E1E0883160313E30053
:101C10001E08E200540883120313BD008316031349
:101C2000530883120313BC00831603135208831254
:101C30000313BB0083160313510883120313BA0066
:101C400083160313620883120313A0008316031381
:101C5000630883120313A1000030A11BFF30A20010
:101C6000A30001300A168A1128260A128A15831247
:101C700003132308C1002208C0002108BF00200868
:101C8000BE000A128A1165240A128A1583120313F0
:101C90003D0883160313DC00831203133C088316EC
:101CA0000313DB00831203133B0883160313DA00CC
:101CB000831203133A0883160313D90040308312AA
:101CC0000313BD004030BC000030BB000030BA0040
:101CD000831603135C0883120313C10083160313D6
:101CE0005B0883120313C000831603135A08831280
:101CF0000313BF0083160313590883120313BE0096
:101D00000A128A1165240A128A15831203133D08E8
:101D1000831603179D00831203133C0883160317D1
:101D20009C00831203133B08831603179B00831246
:101D300003133A08831603179A00E830831203133B
:101D4000AA000330AB00831603171D088312031388
:101D5000A300831603171C0883120313A200831623
:101D600003171B0883120313A100831603171A0815
:101D700083120313A0000A168A11B0250A128A15CD
:101D8000831203132108AD002008AC000A168A1143
:101D900047250A128A15831203132B08831603178B
:101DA0009900831203132A088316031798006430DE
:101DB00083120313AA000030AB00831603171D081B
:101DC00083120313A300831603171C088312031343
:101DD000A200831603171B0883120313A1008316A6
:101DE00003171A0883120313A0000A168A11B025DC
:101DF0000A128A15831203132008D4002108D50083
:101E00002208D6002308D700831603171908831267
:101E10000313A50083160317180883120313A400E5
:101E20001830A600FC30A7000A128A1500200A12FA
:101E30008A158312031324085407AC0025080318DD
:101E4000250A5507AD000A168A1147250A128A1578
:101E5000831203132B0883160317970083120313AF
:101E60002A088316031796000A3083120313AA0068
:101E70000030AB00831603171D0883120313A30061
:101E8000831603171C0883120313A200831603177B
:101E90001B0883120313A100831603171A08831269
:101EA0000313A0000A168A11B0250A128A1583129C
:101EB00003132008D4002108D5002208D6002308E7
:101EC000D70083160317190883120313A50083167E
:101ED0000317180883120313A4001830A600FC305F
:101EE000A7000A128A1500200A128A15831203130A
:101EF00024085407D80025080318250A5507D900D7
:101F000083160317170883120313A50083160317FC
:101F1000160883120313A4009C30A600FF30A7000C
:101F20000A128A1500200A128A1583120313240844
:101F30005807AC0025080318250A5907AD000A16F2
:101F40008A1147250A128A15831203132B08831658
:101F50000313E700831203132A0883160313E60012
:101F60000A3083120313AA000030AB008316031754
:101F70001D0883120313A300831603171C08831282
:101F80000313A200831603171B0883120313A10077
:101F9000831603171A0883120313A0000A168A1166
:101FA000B0250A128A15831203132108AD002008F8
:101FB000AC000A168A11BF230A128A158312031372
:101FC0002B0883160313E900831203132A088316D0
:101FD0000313E800831203131F08C73908389F0052
:101FE0000F3083120313D400D40BF42FF72F831276
:101FF00003131F151F19FF2F0A128A112128FA2F08
:10200000FF1B0A2883137F1883170008840A03190B
:10201000FF0A08007F087F398A000408840A031930
:10202000FF0A8200013400340A340034643400347E
:10203000E834033410342734203420342034493435
:102040004C34453452344C3445344D3445342034CA
:1020500048344134543441345334493420342034E6
:1020600020342034203420342034203400342034F0
:1020700020342034463445344534443420345234FA
:1020800041345434453420344534523452344F347E
:10209000523420342034203420342034203420346E
:1020A000003420342034203444344F344E344D3402
:1020B0004534203448344134543441345334493461
:1020C0002034203420342034203420342034203470
:1020D000003420342034203452344F3454344134CA
:1020E000543449344F344E3420344534523452340D
:1020F0004F345234203420342034203420342034DF
:102100000034503455345434203449345434203459
:1021100049344E342034533454344F345034203402
:1021200053345434413454344534003453345434E7
:102130004F345034203444345534523455344D34B3
:1021400055344E34413420344734453454344934C2
:102150005234003459344134473420344234413409
:102160004B3449344D34493420345934413450349B
:1021700049344E3449345A34003455345A344D3489
:1021800041344E344C344134523420344D34413493
:102190004B3449344E3441340034203446345734BF
:1021A000443420342034203420342034203420346B
:1021B00020342034203400347734773477342E348C
:1021C00062346F347234763465346B342E34633455
:1021D0006F346D3400342034523445345734203455
:1021E000203420342034203420342034203420344F
:1021F00000344F3449344C3420345434483445345A
:10220000203447344534413452345334003420347C
:10221000533454344F345034203420342034203458
:102220002034203420340034253435347534683477
:10223000203425343034323475346D34003446342F
:1022400065346534643452346134743465343A34FA
:1022500000342034463457344434203431342E345E
:1022600036344B340034203452344534573420341F
:1022700031342E3436344B3400342534753425341F
:102280007534253475342E342534753400342034B7
:1022900046345734443420344C344D3454340034B0
:1022A000203452344534573420344C344D34543473
:1022B00000347334253464340D340A340034253446
:1022C00030343034333475340034733430340D34B6
:1022D0000A340034523450344D343A3400345634D5
:0422E000333400345F
:1022F0002430831603139800903083120313980040
:102300000C308316031399008312031399010800FC
:1023100083120313A100A0013A302102031891296E
:1023200092299A2930302102031C972998299A2949
:10233000A001A00A200C08008312031320088312B6
:1023400003178D00831603170C14831203170C0850
:1023500083120313A200A3012208A0002308A100F6
:1023600008007008831203178D0072088C00831612
:1023700003170C158B1355308D00AA308D008C146B
:102380008B170C118C18C529C629C2290800831285
:102390000313A300861223080A168A11E3210A16E2
:1023A0008A11831203130616063083120313A20048
:1023B0002F30A100A10BDA29A20BDA29DF29831221
:1023C00003130612080083120313A000201CE9293E
:1023D000EA29EC298615ED298611A01CF029F1299E
:1023E000F3290615F4290611201DF729F829FA29E1
:1023F0008614FB298610A01DFE29FF29012A061438
:10240000022A0610080083120313A800A401A501E4
:102410002008A200A3012208A6002308A700281C68
:10242000122A132A192A2608A4070318A50A27081E
:10243000A50701300310A60DA70DFF3E031D1A2AA4
:102440000310A80C2808031D262A272A0F2A25086E
:10245000A1002408A000080083120313A40024088C
:102460000F39A2002408F039A30086162308A10022
:1024700004300310A10CFF3E031D392A21080A165F
:102480008A11E3210A168A118312031306160C30EF
:1024900083120313A100A10B4B2A00008312031324
:1024A000061222080A168A11E3210A168A118312DB
:1024B000031306160C3083120313A100A10B5E2A2E
:1024C0000000831203130612080083120313270867
:1024D000280403196C2A6D2A9C2AAB01AB0A7B2ABB
:1024E00001300310A70DA80DFF3E031D712A013016
:1024F000FF007F08AB07A81F7E2A7F2A702A2808C2
:102500002A02031D852A27082902031C882A892AF2
:102510008F2A2708A9022808031CAA03AA0201304F
:102520000310A80CA70CFF3E031D902A0130AB023C
:10253000031D9B2A9C2A7F2A2A08A8002908A70095
:10254000080083120313A601A701CA2A260821073F
:10255000A4002208A3000318A30AA61FB02AA303FD
:10256000831203132308A5002508FF002408840014
:102570000A168A1100200A168A110A168A15F227ED
:102580000A168A11013083120313A6070318A70A3B
:102590000030A70726082107A4002208A30003187B
:1025A000A30AA61FD42AA303831203132308A5009A
:1025B0002508FF00240884000A168A1100200A1644
:1025C0008A11003A031DE52AE62AA62A080083128A
:1025D0000313A501A601200821040319F02AF12AFA
:1025E000282BA401A40AFF2A01300310A00DA10D7D
:1025F000FF3E031DF52A0130FF007F08A407A11F3D
:10260000022B032BF42A01300310A50DA60DFF3E6B
:10261000031D042B21082302031D102B2008220276
:10262000031C132B142B1B2B2008A2022108031CB4
:10263000A303A302251401300310A10CA00CFF3E3C
:10264000031D1C2B0130A402031D272B282B032B59
:102650002608A1002508A000080083120313AA0180
:10266000AB01562B2A082507A8002608A700031847
:10267000A70AAA1F3C2BA703831203132708A9004C
:102680002908FF00280884000A168A1100200A166B
:102690008A110A168A112C220A168A110130831215
:1026A0000313AA070318AB0A0030AB072A08250753
:1026B000A8002608A7000318A70AAA1F602BA703D3
:1026C000831203132708A9002908FF0028088400A3
:1026D0000A168A1100200A168A11003A031D712B6E
:1026E000722B322B080083120313A6002603031D4E
:1026F0007A2B7B2B9A2B24087F3EA9002908A50062
:1027000004300310A50CFF3E031D812B2508A700F4
:1027100029080F39A80027080A168A11C7210A16A6
:102720008A118312031328080A168A11C7210A1670
:102730008A11BE2B02302606031D9F2BA02BBE2B19
:102740002408BF3EA9002908A50004300310A50CE9
:10275000FF3E031DA62B2508A70029080F39A80056
:1027600027080A168A11C7210A168A118312031331
:1027700028080A168A11C7210A168A11080083122E
:102780000313AF01AD1FC52BC62BCD2BAC09AD0973
:10279000AC0A0319AD0AAF01AF0AAB1FD02BD12B86
:1027A000D62BAA09AB09AA0A0319AB0A2A082B04DB
:1027B0000319DB2BDC2B0B2CAE01AE0AEA2B01300C
:1027C0000310AA0DAB0DFF3E031DE02B0130FF00EF
:1027D0007F08AE07AB1FED2BEE2BDF2B2B082D0256
:1027E000031DF42B2A082C02031CF72BF82BFE2BBD
:1027F0002A08AC022B08031CAD03AD020130031004
:10280000AB0CAA0CFF3E031DFF2B0130AE02031DD3
:102810000A2C0B2CEE2B2F0803190F2C102C152C27
:10282000AC09AD09AC0A0319AD0A2D08AB002C08A0
:10283000AA0008000B1D1D2C1E2C742C0B113D3002
:102840008312031381000130F7070318F80A0030E0
:10285000F807143077067804031D2F2C302C742CC5
:10286000F701F801A4300A168A11E0240A168A1129
:102870000130F0000030F100831603172708F30041
:102880002608F2000A168A11B1210A168A110230AE
:10289000F0000030F100831603172908F300280820
:1028A000F2000A168A11B1210A168A110330F000CB
:1028B0000030F100831603172B08F3002A08F200FA
:1028C0000A168A11B1210A168A110430F00000306C
:1028D000F100831603172508F3002408F2000A16F6
:1028E0008A11B1210A168A1176088A0075088400B7
:1028F000740E8300FE0E7E0E090000300A168A1147
:10290000E3210A168A111A3083120313A500F73047
:10291000A400A40B892CA50B892C8E2C03300A163D
:102920008A11C7210A168A11073083120313A500E2
:102930007C30A400A40B9A2CA50B9A2C0000033029
:102940000A168A11C7210A168A110F30831203133F
:10295000A5004730A400A40BAB2CA50BAB2C033077
:102960000A168A11C7210A168A1102300A168A111C
:10297000C7210A168A1102300A168A11C7210A16BF
:102980008A1108300A168A11C7210A168A110030E6
:102990000A168A11C7210A168A110C300A168A11E2
:1029A000C7210A168A1100300A168A11C7210A1691
:1029B0008A1106300A168A11C7210A168A110800E0
:1029C000F2007208063E8400013083178007840AF3
:1029D0000318800A7208063E84000008F000840A8A
:1029E0000008F100003071023C3003197002031C32
:1029F000FA2CFB2C462D7208063E84008001840AC6
:102A000080017208043E840001308007840A0318A4
:102A1000800A7208043E84000008F000840A00085E
:102A2000F100003071023C3003197002031C192DB3
:102A30001A2D462D7208043E84008001840A80010C
:102A40007208023E840001308007840A0318800A5D
:102A50007208023E84000008F000840A0008F100B9
:102A600000307102FF3003197002031C382D392D1C
:102A7000462D7208023E84008001840A800172089B
:102A8000840001308007840A0318800A080083123A
:102A90000313AF01AB1F4D2D4E2D552DAA09AB09C8
:102AA000AA0A0319AB0AAF01AF0AAD1F582D592D61
:102AB000622DAC09AD09AC0A0319AD0A0130FF0063
:102AC0007F08AF06B001B1012A082B040319692D54
:102AD0006A2DA12DAE01AE0A782D01300310AA0D8A
:102AE000AB0DFF3E031D6E2D0130FF007F08AE07CA
:102AF000AB1F7B2D7C2D6D2D01300310B00DB10D62
:102B0000FF3E031D7D2D2B082D02031D892D2A0854
:102B10002C02031C8C2D8D2D942D2A08AC022B0821
:102B2000031CAD03AD02301401300310AB0CAA0C32
:102B3000FF3E031D952D0130AE02031DA02DA12DDA
:102B40007C2D2F080319A52DA62DAB2DB009B10999
:102B5000B00A0319B10A3108AB003008AA00080016
:102B6000031083120313220D230DA9002908031D4E
:102B7000BA2DBB2DC42D0030A3000030A2000030C0
:102B8000A1000030A000272E2008A4002108A500E5
:102B90002208A6002308A7001F300310A70CA60CCC
:102BA000A50CA40CFF3E031DCD2D2408A800A217E0
:102BB000FF30A005FF30A105FF30A2050030A305BE
:102BC0009630A902A91FE52DE62D002E2908803A8E
:102BD000973E0318EC2DED2DEE2DBB2D013003108B
:102BE000A30CA20CA10CA00CFF3E031DEF2D013085
:102BF000FF007F08A907031DFE2DFF2DEE2D172EC8
:102C000020302902031C052E062E122EBB2D01306A
:102C1000A4000310A00DA10DA20DA30DA40B092E5D
:102C20000130A9022908031D162E172E072E280889
:102C300003191B2E1C2E272EA009A109A209A309E6
:102C4000A00A0319A10A0319A20A0319A30A08007A
:102C500083120313A800280803192F2E302E442EA8
:102C6000A31F332E342E442E2009AA002109AB00C5
:102C70002209AC002309AD00AA0A0319AB0A031903
:102C8000AC0A0319AD0A4C2E2308AD002208AC0093
:102C90002108AB002008AA002308220421042004F4
:102CA000031D532E542E5D2E0030A3000030A200D1
:102CB0000030A1000030A000E12E9630A9006D2E5A
:102CC0000130FF007F08A90701300310AD0CAC0CE8
:102CD000AB0CAA0CFF3E031D652EFE302D05031D17
:102CE000722E732E602E8F2E0130FF007F08A907F1
:102CF0000130AA07003003180130AB070030031879
:102D00000130AC07003003180130AD07013003106B
:102D1000AD0CAC0CAB0CAA0CFF3E031D872EFF3094
:102D20002D05031D942E952E742EA12E0130A9027F
:102D30000130A4000310AA0DAB0DAC0DAD0DA40B1A
:102D40009A2EAC1BA42EA52EAB2E023029020318FE
:102D5000AA2EAB2E962E2918AE2EAF2EB72EFF30F0
:102D6000AA05FF30AB057F30AC05FF30AD05031081
:102D7000A90C2908A400A501A601A7011830031079
:102D8000A40DA50DA60DA70DFF3E031DBF2E240803
:102D9000AA042508AB042608AC042708AD042808BB
:102DA0000319D32ED42ED92EA31FD72ED82ED92E29
:102DB000AD172D08A3002C08A2002B08A1002A089B
:102DC000A000080083160313860105120914891454
:102DD0008714071509150714871508148514051598
:102DE00085150A168A117D240A168A118316031383
:102DF0000713871705108512071287120130880004
:102E0000023083120313D6000430D500B930D40049
:102E1000D40B082FD50B082FD60B082F0F2F83129A
:102E2000031305120130A0000030A1000A168A1118
:102E30009C210A168A118312031321088316031793
:102E4000A70083120313200883160317A60002307D
:102E500083120313A0000030A1000A168A119C21DE
:102E60000A168A1183120313210883160317A90077
:102E700083120313200883160317A800033083125C
:102E80000313A0000030A1000A168A119C210A1623
:102E90008A1183120313210883160317AB008312D0
:102EA0000313200883160317AA00043083120313A8
:102EB000A0000030A1000A168A119C210A168A116E
:102EC00083120313210883160317A500831203132B
:102ED000200883160317A40083160313811281119F
:102EE0000115811401148B170B178B160A168A15FE
:102EF000E5270A168A1183120313A401A40A0130DC
:102F00000A168A1173230A168A11BD30831203131D
:102F1000A5009030A6000A168A112D230A168A11E0
:102F200083120313A401A40A02300A168A11732320
:102F30000A168A11DC3083120313A5009030A60014
:102F40000A168A112D230A168A11113083120313CF
:102F5000A40002300A168A1173230A168A116F30F0
:102F600083120313A5009130A6000A168A112D239F
:102F70000A168A11063083120313D6001330D500C7
:102F8000AD30D400D40BC22FD50BC22FD60BC22F1D
:102F90000A168A15E5270A168A110C3083160313C0
:102FA00099000A168A1178210A168A1183160317C6
:102FB000A201A301831603139F171F08F0390438D9
:102FC0009F00831203131F083F3980389F001F148E
:102FD0008710091109100711071089100130831695
:102FE0000317900000309100831603171008110496
:102FF0000319FD2F0A128A15ED2B0A128A153D2C92
:103FCA0000300A168A11C7210A168A1501300A1604
:103FDA008A11C7210A168A15080083120313A00042
:103FEA0083160313981CFA2FFB2FF52F8312031342
:063FFA00200899000800F8
:02400E00793FF8
:00000001FF
