:060000000A128A110E280D
:10000800FE00030EF4000408F5000A08F6000A16BC
:100018008A11F62C0A128A111128F701F801F90140
:10002800FA0183160317A801A901AA01AB01AC01C3
:10003800AD01AE01AF0183010A168A119C2E831609
:1000480003131E0883120313D400D5011E08D6001B
:10005800D7015608D700D60154085604A000550801
:100068005704A100A201A11BA2032208A30001308A
:100078000A168A11E2250A128A1183120313230829
:100088008316031797008312031322088316031796
:100098009600831203132108831603179500831211
:1000A80003132008831603179400831203130919F6
:1000B8005E285F288D280718622863288D288316F4
:1000C8000317170883120313A300831603171608D0
:1000D80083120313A2008316031715088312031350
:1000E800A10083160317140883120313A0000A162D
:1000F8008A116A250A128A1183120313210D210C11
:1001080083160317A70083120313200C8316031703
:10011800A600443083120313BD007A30BC000030BF
:10012800BB000030BA004430A3008030A200003089
:10013800A1000030A00083160317170883120313C9
:10014800A70083160317160883120313A600831645
:100158000317150883120313A50083160317140841
:1001680083120313A4000A128A151F200A128A1187
:10017800831203132308C1002208C0002108BF000E
:100188002008BE000A128A1167240A128A118312F3
:1001980003133D0883160313D800831203133C0886
:1001A80083160313D700831203133B088316031324
:1001B800D600831203133A0883160313D50083125B
:1001C8000313A401A40A02300A168A111C230A1276
:1001D8008A111F3083120313A5009130A6000A1656
:1001E8008A11D6220A128A115F3083120313AC00D7
:1001F8009130AD0083160313580883120313A3002C
:1002080083160313570883120313A20083160313DC
:10021800560883120313A10083160313550883128B
:100228000313A0000A168A116A250A128A1183127A
:1002380003132108AF002008AE00EC300A128A151B
:10024800EE210A128A110A3083120313A400023025
:100258000A168A111C230A128A11EC30831203131E
:10026800A5000030A6000A168A11D6220A128A11A1
:1002780083120313A401A40A01300A168A111C234D
:100288000A128A116A3083120313A5009130A6005E
:100298000A168A11D6220A128A113D3083120313D4
:1002A800AC009130AD00831603171B0883120313AB
:1002B800AF00831603171A0883120313AE008316C0
:1002C8000317190883120313B100831603171808BC
:1002D80083120313B00083160313690883120313F0
:1002E800B30083160313680883120313B20083163E
:1002F80003136B0883120313B500831603136A08EC
:1003080083120313B400DD300A128A15EE210A1293
:100318008A11053083120313A40001300A168A11CA
:100328001C230A128A11DD3083120313A500003042
:10033800A6000A168A11D6220A128A1183120313FA
:10034800871CA729A829CF290918AB29AC29B029C6
:10035800091DAF29B029CF290D30A40002300A1693
:100368008A111C230A128A11473083120313A5002D
:100378009130A6000A168A11D6220A128A1165300F
:1003880083120313A1009130A2000A168A114A228F
:100398000A128A11AE2B091DD229D329D729091887
:1003A800D629D729DF29091DDA29DB29352A891811
:1003B800DE29DF29352A0D30A40002300A168A11F9
:1003C8001C230A128A11293083120313A5009130C5
:1003D800A6000A168A11D6220A128A110330831639
:1003E800031727022030031926020318FC29FD29C8
:1003F800AE2B5030A6070318A70A0030A707033012
:100408002702213003192602031C0B2A0C2A102A62
:100418002030A6000330A700593083120313AC0024
:100428009130AD0083160317270883120313AF001A
:1004380083160317260883120313AE00BD300A1271
:100448008A15EE210A128A11BD3083120313A10006
:100458000030A2000A168A114A220A128A11AE2B0B
:10046800AE2B091C382A392A702A0D30A400023014
:100478000A168A111C230A128A11CD30831203131B
:10048800A5009030A6000A168A11D6220A128A11EF
:10049800593083120313AC009130AD008316031753
:1004A800270883120313AF00831603172608831245
:1004B8000313AE005A300A128A15EE210A128A1165
:1004C8005A3083120313A1000030A2000A168A11C1
:1004D8004A220A128A11AE2B071D732A742A9B2AF4
:1004E8008918772A782A7C2A071C7B2A7C2A9B2A47
:1004F8000D30A40002300A168A111C230A128A1130
:10050800503083120313A5009130A6000A168A11F1
:10051800D6220A128A11653083120313A100913082
:10052800A2000A168A114A220A128A11AE2B071C47
:100538009E2A9F2AA32A8918A22AA32AAB2A071C23
:10054800A62AA72A3C2B0918AA2AAB2A3C2B0D302D
:10055800A40002300A168A111C230A128A113330A9
:1005680083120313A5009130A6000A168A11D62219
:100578000A128A1183160317260983120313D4005B
:1005880083160317270983120313D500D40A031906
:10059800D50A540883160317A200831203135508BB
:1005A80083160317A3002308803AFF007C307F02DC
:1005B800031DE02AE1302202031CE32AE42A342A3C
:1005C800B03083160317A2070318A30AFF30A30746
:1005D8002308803AFF007C307F02031DF52AE030B3
:1005E80022020318F82AF92AFF2AE0308316031793
:1005F800A200FC30A30083160317220983120313F9
:10060800D40083160317230983120313D500D40AD1
:100618000319D50A540883160317A6008312031377
:10062800550883160317A700593083120313AC002B
:100638009130AD0083160317230883120313AF000C
:1006480083160317220883120313AE00C5300A125B
:100658008A15EE210A128A11C53083120313A100EC
:100668000030A2000A168A114A220A128A11AE2BF9
:10067800891C3F2B402B902B0D30A40002300A160A
:100688008A111C230A128A11EB3083120313A50066
:100698009030A6000A168A11D6220A128A118316E9
:1006A8000317260983120313D40083160317270997
:1006B80083120313D500D40A0319D50A54088316E4
:1006C800031790008312031355088316031791002C
:1006D800593083120313AC009130AD008316031711
:1006E800110883120313AF0083160317100883122F
:1006F8000313AE00A0300A128A15EE210A128A11DD
:10070800A03083120313A1000030A2000A168A1138
:100718004A220A128A11AE2B0D30A40002300A16A2
:100728008A111C230A128A11073083120313A500A9
:100738009130A6000A168A11D6220A128A1165304B
:1007480083120313A1009130A2000A168A114A22CB
:100758000A128A1183120313871CB32BB42BC02BE4
:100768000918B72BB82BBC2B091DBB2BBC2BC02BD6
:10077800831203130516612C071DC32BC42BCD2B25
:100788008918C72BC82BBC2B071CCB2BCC2BCD2BEC
:10079800BC2B0512612C871DD22BD32B292CA4012D
:1007A800A40A01300A168A111C230A128A1137304A
:1007B80083120313A5009030A6000A168A11D622C8
:1007C8000A128A1183120313A401A40A02300A161A
:1007D8008A111C230A128A111C3083120313A500E4
:1007E8009030A6000A168A11D6220A128A1165309C
:1007F80083120313A1009130A2000A168A114A221B
:100808000A128A1183120313051606308312031382
:10081800D6001330D500AD30D400D40B112CD50B35
:10082800112CD60B112C83120313051210308312CE
:100838000313D6003930D5000D30D400D40B222C48
:10084800D50B222CD60B222CBC2B081C2C2C2D2C87
:10085800612C6530A1009130A2000A168A114A2243
:100868000A128A1183120313A401A40A01300A167A
:100878008A111C230A128A11693083120313A500F6
:100888009030A6000A168A11D6220A128A118312FB
:100898000313A401A40A02300A168A111C230A129F
:1008A8008A11513083120313A5009030A6000A164E
:1008B8008A11D6220A128A11062C0A168A11AE2F1C
:1008C8000A128A110E28831203133D088039C700C3
:1008D8003D08C2004207CD00BC1F732C742C752C38
:1008E8004D144D080319792C7A2C892C4D0A031DB7
:1008F8007E2C7F2C872C0030BD000030BC000030DF
:10090800BB000030BA00BC17912C0030BD0000308D
:10091800BC000030BB000030BA0041088039FF003D
:100928007F08C7064108C2004207CC00C01F9D2CA3
:100938009E2C9F2C4C144C080319A32CA42CB32CCC
:100948004C0A031DA82CA92CB12C0030C100003082
:10095800C0000030BF000030BE00C017BB2C003004
:10096800C1000030C0000030BF000030BE004C089D
:100978000319BF2CC02CC52C4D08031DC42CC52C35
:10098800CE2C0030BD000030BC000030BB00003071
:10099800BA00AB2F3A08A00040080A168A11AC2109
:1009A8000A128A11831203132108D3002008D200E7
:1009B8005208C200C301C401C5014508CB00440860
:1009C800CA004308C9004208C8005308C200C3014E
:1009D800C401C5014508D1004408D0004308CF0030
:1009E8004208CE003B08A0003F080A168A11AC2135
:1009F8000A128A11831203132108D3002008D20097
:100A08005208C200C301C401C5014208C80743080F
:100A180003110318013E0319122DC90744080311D5
:100A28000318013E0319192DCA07450803110318B5
:100A3800013E0319202DCB075308C200C301C4018E
:100A4800C5014208CE07430803110318013E0319E4
:100A58002E2DCF07440803110318013E0319352D25
:100A6800D007450803110318013E03193C2DD1078F
:100A78003C08A0003E080A168A11AC210A128A1105
:100A8800831203132108D3002008D2005208C200A1
:100A9800C301C401C5014208C8074308031103186C
:100AA800013E0319582DC907440803110318013ED4
:100AB80003195F2DCA07450803110318013E0319DE
:100AC800662DCB075308C200C301C401C501420803
:100AD800CE07430803110318013E0319742DCF07ED
:100AE800440803110318013E03197B2DD00745085C
:100AF80003110318013E0319822DD1070830C200E3
:100B08000310C80DC90DCA0DCB0DC20B842D3B08AF
:100B1800A0003E080A168A11AC210A128A11831213
:100B280003132108D3002008D2005208C20053083A
:100B3800C300C401C5014208C807430803110318CC
:100B4800013E0319A82DC907440803110318013EE3
:100B58000319AF2DCA07450803110318013E0319ED
:100B6800B62DCB073A08A0003F080A168A11AC2117
:100B78000A128A11831203132108D3002008D20015
:100B88005208C2005308C300C401C5014208C8077F
:100B9800430803110318013E0319D32DC90744085C
:100BA80003110318013E0319DA2DCA07450803117A
:100BB8000318013E0319E12DCB070830C2000310CA
:100BC800C80DC90DCA0DCB0DC20BE32D3A08A00004
:100BD8003E080A168A11AC210A128A1183120313DD
:100BE8002108D3002008D2005208C2005308C300CD
:100BF800C401C5014208C807430803110318013E90
:100C08000319072EC907440803110318013E0319E5
:100C18000E2ECA07450803110318013E0319152EA5
:100C2800CB073B08A00040080A168A11AC210A121B
:100C38008A11831203132108D3002008D200520816
:100C4800C2005308C300C401C5014208CE074308C7
:100C580003110318013E0319322ECF07440803116C
:100C68000318013E0319392ED0074508031103184C
:100C7800013E0319402ED1073C08A0003F080A1680
:100C88008A11AC210A128A11831203132108D30096
:100C98002008D2005208C2005308C300C401C5018D
:100CA8004208CE07430803110318013E03195D2EBD
:100CB800CF07440803110318013E0319642ED00717
:100CC800450803110318013E03196B2ED1073C0890
:100CD800A00040080A168A11AC210A128A11831250
:100CE80003132108D3002008D2005208C200530879
:100CF800C300C401C50108300310C20DC30DC40DE3
:100D0800C50DFF3E031D802E4208CE074308031180
:100D18000318013E0319912ECF0744080311031845
:100D2800013E0319982ED007450803110318013E08
:100D380003199F2ED1074808C2004908C3004A0872
:100D4800C4004B08C50018300310C50CC40CC30CF4
:100D5800C20CFF3E031DA82E4208CE07430803110C
:100D68000318013E0319B92ECF07440803110318CD
:100D7800013E0319C02ED007450803110318013E90
:100D88000319C72ED1070830C2000310C80DC90DBA
:100D9800CA0DCB0DC20BC92E4D084C07C200C301AA
:100DA800C30D4208823ED20043080318013EFF3EAD
:100DB800D300FB2E0130C2000310CE0DCF0DD00D95
:100DC800D10DC20BE02ECB1FEA2EEB2EEC2E4E14CB
:100DD8000130C2000310C80DC90DCA0DCB0DC20BDE
:100DE800EE2EFF30D2070318D30AFF30D307D01FE7
:100DF800FE2EFF2EDE2ECC01CB1F032F042F202F1B
:100E0800FF304805C200FF304905C300FF304A05DE
:100E1800C4007F304B05C500450844044304420420
:100E28000319172F182F1B2FCC01CC0A202F4E1C6B
:100E38001E2F1F2F202F182F4C080319242F252F62
:100E4800562F0130CE07003003180130CF0700308D
:100E580003180130D007003003180130D107511CA6
:100E6800362F372F562F4E08C2004F08C3005008A0
:100E7800C4005108C5000130C600450DC50CC40C9E
:100E8800C30CC20CC60B412F4508D1004408D00042
:100E98004308CF004208CE000130D2070318D30A16
:100EA8000030D3075308803AFF0080307F02031DCB
:100EB8005F2FFF305202031C622F632F6E2F7F308B
:100EC80083120313D1008030D0000030CF000030EF
:100ED800CE009F2F831203135308803AFF008030FF
:100EE8007F02031D792F0130520203187C2F7D2FBA
:100EF800892F003083120313D1000030D000003056
:100F0800CF000030CE00C7019F2F83120313520871
:100F1800CD00FF30CE05FF30CF057F30D005003043
:100F2800D1054D1C982F992F9A2FD0174D08C20024
:100F38000310420CD1004708FF007F08D104510874
:100F4800BD005008BC004F08BB004E08BA0008009E
:100F58000A168A156A270A128A1183120313AC012A
:100F6800AD0183120313A401A40A01300A168A11E1
:100F78001C230A128A11AA3083120313A500903089
:100F8800A6000A168A11D6220A128A11831203139E
:100F9800A401A40A02300A168A111C230A128A1113
:100FA800F93083120313A5009030A6000A168A119F
:100FB800D6220A128A118312031305160130AC07D0
:100FC8000318AD0A0030AD072D08803AFF008030C5
:100FD8007F02031DF12F0A302C02031CF42FF52F7A
:100FE800B52F0A168A156A270A128A118312031363
:040FF80005120800D6
:10100600831203132008831203178D008312031320
:101016002208831203178C00831603170C158B13F3
:1010260055308D00AA308D008C148B170C118C183E
:101036001D281E281A280800831203132708803942
:10104600B1002708A8002807B800A61F2B282C28BF
:101056002D28381438080319312832284228380A2E
:10106600031D362837283F280030A7000030A60089
:101076000030A5000030A400A617A7014A280030BA
:10108600A7000030A6000030A5000030A400230809
:101096008039FF007F08B1062308A8002807B90099
:1010A600A21F5628572858283914390803195C28CE
:1010B6005D286D28390A031D612862286A280030D8
:1010C600A3000030A2000030A1000030A000A2174B
:1010D600A30175280030A3000030A2000030A10053
:1010E6000030A0002308220421042004031D7C28CC
:1010F6007D2896280030A7000030A6000030A50005
:101106000030A4008030A6047F30A7043108FF0019
:101116007F08A7042708A3002608A2002508A10027
:101126002408A000ED293808031D9A289B28A42826
:101136000030A3000030A2000030A1000030A00063
:10114600ED293808A800A9012908AB0039082802AA
:10115600AA00031CAB032A087F3EB2002B08031823
:10116600013E003EB3002708B0002608AF00250860
:10117600AE002408AD000030A7000030A600003005
:10118600A5000030A4000030B7000030B6000030E3
:10119600B5000030B400B9011A2939080319D4285A
:1011A600D528F5280130A8000310AD0DAE0DAF0D02
:1011B600B00DA80BD7280130A8000310A40DA50D6B
:1011C600A60DA70DA80BE028B71FEA28EB28EC28E8
:1011D60024140130A8000310B40DB50DB60DB70DDB
:1011E600A80BEE2823083002031D032922082F022C
:1011F600031D032921082E02031D032920082D02A1
:10120600031C06290729162937172008AD022108CD
:10121600031C210FAE022208031C220FAF02230873
:10122600031C230FB0020130FF007F08B9071A30F4
:101236003902031C1F292029D02830082F042E0428
:101246002D04031927292829472934144729013051
:10125600A8000310A40DA50DA60DA70DA80B2C29FB
:10126600B71F36293729382924140130A80003105E
:10127600B40DB50DB60DB70DA80B3A29FF30B20760
:101286000318B30AFF30B307A61F4A294B292A2998
:10129600B901B71F4F2950296C29FF303405A80022
:1012A600FF303505A900FF303605AA007F30370527
:1012B600AB002B082A04290428040319632964298E
:1012C6006729B901B90A6C29241C6A296B296C297A
:1012D60064293908031970297129A2290130A40744
:1012E600003003180130A507003003180130A607A7
:1012F600003003180130A707271C82298329A22959
:101306002408A8002508A9002608AA002708AB007B
:101316000130AC002B0DAB0CAA0CA90CA80CAC0B25
:101326008D292B08A7002A08A6002908A500280849
:10133600A4000130B2070318B30A0030B30733081C
:10134600803AFF0080307F02031DAB29FF30320256
:10135600031CAE29AF29BD29FF3083120313B20047
:101366000030B3000030A7000030A6000030A50012
:101376000030A400831203133308803AFF00803044
:101386007F02031DC829013032020318CB29CC295C
:10139600D92983120313B201B3010030A70000302C
:1013A600A6000030A5000030A400B101831203138B
:1013B6003208B800381CE029E129E329A617E729F5
:1013C6007F30FF007F08A6053808A8000310280C08
:1013D600A7008928080083120313C2002E30BB0021
:1013E600CA2B253041060319F929FA29042A42088D
:1013F60084004108831380000130FF007F08C20784
:10140600CA2BBF01C001BE010F2A3E150130AC0731
:101416000318AD0A0030AD072D08FF002C08840024
:101426000A168A1100200A128A15B600B701370873
:10143600003A03191F2A242A3608303A0319082AC3
:10144600242A2D08FF002C0884000A168A11002081
:101456000A128A150A168A1585270A128A15031C86
:10146600352A362A7F2A83120313BF01C0010A30A8
:1014760083120313A4000030A5004008A7003F080C
:10148600A6000A168A1185210A128A1583120313E9
:101496002508C0002408BF002D08FF002C08840082
:1014A6000A168A1100200A128A15D03EB600FF30AD
:1014B60003180030B7003608BF070318C00A3708FC
:1014C600C0070130AC070318AD0A0030AD072D0880
:1014D600FF002C0884000A168A1100200A128A15B9
:1014E6000A168A1585270A128A1503187B2A7C2A6A
:1014F6003A2A7F2A3E17A72A831203132D08B7001C
:101506002C08B600AC0A0319AD0A3708FF003608E6
:1015160084000A168A1100200A128A15C100B80032
:10152600B9013908003A0319992ACA2B3808003A32
:101536000319E02B643A0319A72A0D3A0319A72ABF
:101546001C3A03197D2ACA2B3E1BAA2AAB2AC52A96
:101556003B08840083130008BC00840A0008BD0011
:101566000230FF007F08BB07BD1FBA2ABB2AD12A5B
:101576000330FF007F08BE04BC09BD09BC0A03197D
:10158600BD0AD12A3B08840083130008BC00840AE4
:101596000008BD000230FF007F08BB07C101C10A79
:1015A6004108B6003607123E840090300318013E0B
:1015B600FF000A168A1100200A128A15B7000A16B9
:1015C6008A1100200A128A15B80038083D02031D48
:1015D600EE2A37083C020318F12AF22AF32AFD2ADA
:1015E6000130FF007F08C10705304106031DFC2AB4
:1015F600FD2AD32A3F0840040319022B032B0F2B85
:101606003E0803390319082B092B0F2BFF30BF07A0
:101616000318C00AFF30C0074008803A803C031D0B
:10162600162B3F0841020318192B1A2B262B83125F
:1016360003134108B600B7013608BF023708031C7A
:10164600C003C0022A2B83120313BF01C0013E1D33
:101656002D2B2E2B592B3E0803390319332B342BF4
:101666003D2B420884002D30831380000130FF009B
:101676007F08C2073F0840040319422B432B832BE4
:10168600420884003030831380000130FF007F0859
:10169600C207FF30BF070318C00AFF30C0073F0864
:1016A6004004031D572B582B432B832B3F08400424
:1016B60003195E2B5F2B742B4208840020308313A2
:1016C60080000130FF007F08C207FF30BF07031804
:1016D600C00AFF30C0073F084004031D732B742B5C
:1016E6005F2B3E0803390319792B7A2B832B42088B
:1016F60084002D30831380000130FF007F08C2076D
:101706004108BA00C12B0A30A7000030A8003A08E9
:10171600B6003607123E840090300318013EFF00E3
:101726000A168A1100200A128A15A0000A168A11C2
:1017360000200A128A15A1003D08A3003C08A20059
:101746000A168A1190220A128A1583120313210897
:10175600AA002008A9000A168A110E220A128A1562
:10176600831203132708303EC10042088400410853
:10177600831380000130FF007F08C207FF30FF009F
:101786007F08BA073A0A031DC92BCA2B862B2D08D8
:10179600B7002C08B600AC0A0319AD0A3708FF00DB
:1017A600360884000A168A1100200A128A15C1001A
:1017B6004108031DDF2BE02BF42942088400831324
:1017C6008001080083160317120813040319EC2B73
:1017D600ED2B3D2C831203130919F22BF32B042C4A
:1017E6000918F62BF72B042C0718FA2BFB2B042CC5
:1017F6008918FE2BFF2B042C8316031792019301E5
:101806003D2CA401A40A01300A168A111C230A12CF
:101816008A15963083120313A5009030A6000A1687
:101826008A11D6220A128A1583120313A401A40A66
:1018360002300A168A111C230A128A158130831275
:101846000313A5009030A6000A168A11D6220A12A2
:101856008A15033083120313D6008A30D50055301B
:10186600D400D40B342CD50B342CD60B342C0A12C2
:101876008A11642C831203138719422C452C0A12F1
:101886008A11CF2B0818482C492C422C0230A00074
:101896000030A1000A168A1599270A128A158312A2
:1018A6000313210883160313E7008312031320088A
:1018B60083160313E600043083120313A0000030DE
:1018C600A1000A168A1599270A128A15831203138C
:1018D6002108A5002008A400FA30A6000030A700C1
:1018E6000A168A1185210A128A15831203132408FF
:1018F600D4002508D5000130A0000030A1000A164A
:101906008A1599270A128A15831203132008540789
:1019160083160317A4008312031321080318210A50
:10192600550783160317A500143083120313AC0062
:101936009130AD0083160317250883120313AF00F9
:1019460083160317240883120313AE0083160313AA
:10195600670883120313B100831603136608831204
:101966000313B000B4300A128A15EE210A128A1542
:101976000A3083120313A40001300A168A111C23AD
:101986000A128A15D93083120313A5009030A600D7
:101996000A168A11D6220A128A150B3083120313ED
:1019A600A40001300A168A111C230A128A15B430C3
:1019B60083120313A5000030A6000A168A11D62248
:1019C6000A128A15F43083120313AA000130AB0001
:1019D60083160317250883120313AD008316031716
:1019E600240883120313AC000A168A1168230A120C
:1019F6008A15831203132A082B04031D032D042DB5
:101A06000C2D8316031724082504031D0B2D0C2DFE
:101A16005C2DF43083120313AA000130AB00831649
:101A26000317250883120313AD0083160317240832
:101A360083120313AC000A168A1168230A128A1548
:101A4600831203132A032B04031D2A2D2B2D332D5A
:101A56008316031724032504031D322D332D5C2D15
:101A6600F43083120313AA000130AB008316031768
:101A7600250883120313AD00831603172408831267
:101A86000313AC000A168A1168230A128A1502305B
:101A9600831203132A062B04031D522D532D672D83
:101AA6000230831603172406250403195B2D5C2DCB
:101AB600672D2C082D04031D612D622D672D0A123A
:101AC6008A11AC270A128A15831203131F08C73915
:101AD60010389F000F3083120313D400D40B712DDE
:101AE600742D831203131F151F197A2D7B2D772D45
:101AF600831603131E0883120313D400D5011E0890
:101B0600D600D7015608D700D60154085604A000BF
:101B160055085704A100A201A11BA2032208A30095
:101B260001300A168A11E2250A128A158312031356
:101B3600230883160313D000831203132208831687
:101B46000313CF0083120313210883160313CE0059
:101B560083120313200883160313CD004430831227
:101B66000313A3008030A2000030A1000030A000C3
:101B760083160313500883120313A7008316031357
:101B86004F0883120313A600831603134E0883120D
:101B96000313A500831603134D0883120313A40031
:101BA6000A128A151F200A128A15831203132308A4
:101BB60083160313D4008312031322088316031318
:101BC600D30083120313210883160313D200831252
:101BD6000313200883160313D100831203131F086F
:101BE600C73918389F000F3083120313D400D40B63
:101BF600FA2DFD2D831203131F151F19032E042E14
:101C0600002E1E0883160313E3001E08E200540884
:101C160083120313BD0083160313530883120313A1
:101C2600BC0083160313520883120313BB008316EA
:101C36000313510883120313BA00831603136208B1
:101C460083120313A000831603136308831203137E
:101C5600A1000030A11BFF30A200A30001300A162C
:101C66008A11E2250A128A15831203132308C1007A
:101C76002208C0002108BF002008BE000A128A11EF
:101C860067240A128A15831203133D088316031369
:101C9600DC00831203133C0883160313DB00831254
:101CA60003133B0883160313DA00831203133A085F
:101CB60083160313D900403083120313BD0040304E
:101CC600BC000030BB000030BA00831603135C086A
:101CD60083120313C100831603135B0883120313D5
:101CE600C000831603135A0883120313BF0083161A
:101CF6000313590883120313BE000A128A116724BC
:101D06000A128A15831203133D08831603179F00D0
:101D1600831203133C08831603179E0083120313D2
:101D26003B08831603179D00831203133A08831694
:101D360003179C00E83083120313AA000330AB009C
:101D4600831603171F0883120313A30083160317B2
:101D56001E0883120313A200831603171D0883129D
:101D66000313A100831603171C0883120313A00094
:101D76000A168A116A250A128A1583120313210884
:101D8600AD002008AC000A168A118D240A128A15A5
:101D9600831203132B08831603179B008312031366
:101DA6002A08831603179A00643083120313AA00C5
:101DB6000030AB00831603171F0883120313A3001A
:101DC600831603171E0883120313A2008316031734
:101DD6001D0883120313A100831603171C08831220
:101DE6000313A0000A168A116A250A128A1583129D
:101DF60003132008D4002108D5002208D6002308A2
:101E0600D700831603171B0883120313A500831636
:101E160003171A0883120313A4001830A600FC3017
:101E2600A7000A168A1185210A128A15831203133E
:101E360024085407AC0025080318250A5507AD00E9
:101E46000A168A118D240A128A15831203132B0887
:101E5600831603179900831203132A0883160317A0
:101E660098000A3083120313AA000030AB008316D1
:101E760003171F0883120313A300831603171E08F4
:101E860083120313A200831603171D08831203137C
:101E9600A100831603171C0883120313A0000A1659
:101EA6008A116A250A128A15831203132008D400A0
:101EB6002108D5002208D6002308D7008316031769
:101EC6001B0883120313A500831603171A0883122F
:101ED6000313A4001830A600FC30A7000A168A11C6
:101EE60085210A128A158312031324085407D80081
:101EF60025080318250A5507D9008316031719085C
:101F060083120313A50083160317180883120313FD
:101F1600A4009C30A600FF30A7000A168A1185216E
:101F26000A128A158312031324085807AC002508E1
:101F36000318250A5907AD000A168A118D240A12BC
:101F46008A15831203132B0883160313E9008312E1
:101F560003132A0883160313E8000A3083120313B7
:101F6600AA000030AB00831603171F088312031361
:101F7600A300831603171E0883120313A2008316F9
:101F860003171D0883120313A100831603171C08E9
:101F960083120313A0000A168A116A250A128A15EB
:101FA600831203132108AD002008AC000A168A111B
:101FB60068230A128A15831203132B088316031348
:101FC600EB00831203132A0883160313EA00831215
:101FD60003131F08C73908389F000F3083120313F5
:101FE600D400D40BF42FF72F831203131F151F19D8
:101FF600FF2F0A128A112328FA2FFF1B0A288313A0
:102006007F1883170008840A0319FF0A08007F084F
:102016007F398A000408840A0319FF0A8200013402
:1020260000340A34003464340034E83403341034A1
:10203600273420342034203449344C344534523447
:102046004C3445344D3445342034483441345434CA
:10205600413453344934203420342034203420345D
:1020660020342034203400342034203420344634C4
:1020760045344534443420345234413454344534A0
:1020860020344534523452344F34523420342034C0
:1020960020342034203420342034003420342034BA
:1020A600203444344F344E344D344534203448348F
:1020B60041345434413453344934203420342034A8
:1020C600203420342034203420340034203420348A
:1020D600203452344F3454344134543449344F3418
:1020E6004E3420344534523452344F345234203432
:1020F60020342034203420342034003450345534F5
:102106005434203449345434203449344E34203441
:10211600533454344F3450342034533454344134CB
:10212600543445340034533454344F34503420340A
:1021360044345534523455344D3455344E34413488
:1021460020344734453454344934523400345934F5
:10215600413447342034423441344B3449344D34CD
:102166004934203459344134503449344E34493496
:102176005A34003455345A344D3441344E344C3488
:102186004134523420344D3441344B3449344E3486
:102196004134003420344634573444342034203417
:1021A6002034203420342034203420342034203489
:1021B60000347734773477342E3462346F347234A3
:1021C600763465346B342E3463346F346D340034B6
:1021D60020345234453457342034203420342034CB
:1021E6002034203420342034203400344F34493411
:1021F6004C34203454344834453420344734453440
:1022060041345234533400342034533454344F342C
:1022160050342034203420342034203420342034E8
:10222600003425343534753468342034253430345C
:10223600323475346D340034463465346534643470
:1022460052346134743465343A34003420344634BC
:1022560057344434203431342E3436344B3400343D
:102266002034523445345734203431342E34363405
:102276004B3400342534753425347534253475349F
:102286002E342534753400342034463457344434DF
:1022960020344C344D3454340034203452344534D4
:1022A600573420344C344D3454340034733425348C
:1022B60064340D340A340034253430343034333445
:1022C60075340034733430340D340A3400345234E7
:0E22D60050344D343A3400345634333400342E
:1022EA002430831603139800903083120313980046
:1022FA000C30831603139900831203139901080003
:10230A0083120313A801A901241C8C298D2993295E
:10231A002608A8070318A90A2708A90701300310E5
:10232A00A60DA70DFF3E031D942901300310A50C2D
:10233A00A40CFF3E031D9B2924082504031DA6297E
:10234A00A72989292908A5002808A40008008312BA
:10235A000313A800A401A5012008A200A3012208D2
:10236A00A6002308A700281CBB29BC29C2292608C5
:10237A00A4070318A50A2708A50701300310A60D0C
:10238A00A70DFF3E031DC3290310A80C2808031D2F
:10239A00CF29D029B8292508A1002408A0000800BF
:1023AA0083120313A40024080F39A2002408F03969
:1023BA00A30086162308A10004300310A10CFF3ED7
:1023CA00031DE22921080A168A15E0270A168A112E
:1023DA008312031306160C3083120313A100A10BF8
:1023EA00F429000083120313061222080A168A151A
:1023FA00E0270A168A118312031306160C30831279
:10240A000313A100A10B072A00008312031306126B
:10241A00080083120313270828040319152A162A09
:10242A00452AAB01AB0A242A01300310A70DA80DD7
:10243A00FF3E031D1A2A0130FF007F08AB07A81FC1
:10244A00272A282A192A28082A02031D2E2A270899
:10245A002902031C312A322A382A2708A902280805
:10246A00031CAA03AA0201300310A80CA70CFF3E02
:10247A00031D392A0130AB02031D442A452A282AA2
:10248A002A08A8002908A700080083120313A60136
:10249A00A701732A26082107A4002208A30003180B
:1024AA00A30AA61F592AA303831203132308A5000C
:1024BA002508FF00240884000A168A1100200A163B
:1024CA008A110A168A1577270A168A110130831289
:1024DA000313A6070318A70A0030A707260821072F
:1024EA00A4002208A3000318A30AA61F7D2AA30397
:1024FA00831203132308A5002508FF00240884007B
:10250A000A168A1100200A168A11003A031D8E2A19
:10251A008F2A4F2A080083120313A501A601200857
:10252A0021040319992A9A2AD12AA401A40AA82AB9
:10253A0001300310A00DA10DFF3E031D9E2A01309C
:10254A00FF007F08A407A11FAB2AAC2A9D2A0130ED
:10255A000310A50DA60DFF3E031DAD2A2108230277
:10256A00031DB92A20082202031CBC2ABD2AC42A38
:10257A002008A2022108031CA303A3022514013088
:10258A000310A10CA00CFF3E031DC52A0130A402B2
:10259A00031DD02AD12AAC2A2608A1002508A000AA
:1025AA00080083120313AA01AB01FF2A2A08250790
:1025BA00A8002608A7000318A70AAA1FE52AA70346
:1025CA00831203132708A9002908FF00280884009A
:1025DA000A168A1100200A168A110A168A11D521AA
:1025EA000A168A11013083120313AA070318AB0AC9
:1025FA000030AB072A082507A8002608A7000318F9
:10260A00A70AAA1F092BA703831203132708A900E5
:10261A002908FF00280884000A168A1100200A16D1
:10262A008A11003A031D1A2B1B2BDB2A080083127E
:10263A000313A6002603031D232B242B432B240854
:10264A007F3EA9002908A50004300310A50CFF3E0F
:10265A00031D2A2B2508A70029080F39A8002708D7
:10266A000A168A15C4270A168A1183120313280820
:10267A000A168A15C4270A168A11672B02302606FB
:10268A00031D482B492B672B2408BF3EA9002908A4
:10269A00A50004300310A50CFF3E031D4F2B25088F
:1026AA00A70029080F39A80027080A168A15C4277F
:1026BA000A168A118312031328080A168A15C427D0
:1026CA000A168A11080083120313AF01AD1F6E2B7D
:1026DA006F2B762BAC09AD09AC0A0319AD0AAF0111
:1026EA00AF0AAB1F792B7A2B7F2BAA09AB09AA0A4F
:1026FA000319AB0A2A082B040319842B852BB42B44
:10270A00AE01AE0A932B01300310AA0DAB0DFF3EAA
:10271A00031D892B0130FF007F08AE07AB1F962BE4
:10272A00972B882B2B082D02031D9D2B2A082C0280
:10273A00031CA02BA12BA72B2A08AC022B08031CD5
:10274A00AD03AD0201300310AB0CAA0CFF3E031D12
:10275A00A82B0130AE02031DB32BB42B972B2F08E5
:10276A000319B82BB92BBE2BAC09AD09AC0A031956
:10277A00AD0A2D08AB002C08AA00080000300A1682
:10278A008A15E0270A168A111A3083120313A50044
:10279A00F730A400A40BCF2BA50BCF2BD42B0330DF
:1027AA000A168A15C4270A168A11073083120313D8
:1027BA00A5007C30A400A40BE02BA50BE02B0000A5
:1027CA0003300A168A15C4270A168A110F30831293
:1027DA000313A5004730A400A40BF12BA50BF12B82
:1027EA0003300A168A15C4270A168A1102300A16F5
:1027FA008A15C4270A168A1102300A168A15C427AE
:10280A000A168A1108300A168A15C4270A168A1166
:10281A0000300A168A15C4270A168A110C300A16BD
:10282A008A15C4270A168A1100300A168A15C4277F
:10283A000A168A1106300A168A15C4270A168A1138
:10284A000800F2007208063E8400013083178007F0
:10285A00840A0318800A7208063E84000008F00001
:10286A00840A0008F100003071023C30031970023A
:10287A00031C402C412C8C2C7208063E84008001DB
:10288A00840A80017208043E840001308007840AA9
:10289A000318800A7208043E84000008F000840AC3
:1028AA000008F100003071023C3003197002031C69
:1028BA005F2C602C8C2C7208043E84008001840AF0
:1028CA0080017208023E840001308007840A0318DE
:1028DA00800A7208023E84000008F000840A000898
:1028EA00F10000307102FA3003197002031C7E2CC9
:1028FA007F2C8C2C7208023E84008001840A80019D
:10290A007208840001308007840A0318800A0800CC
:10291A0083120313AF01AB1F932C942C9B2CAA098F
:10292A00AB09AA0A0319AB0AAF01AF0AAD1F9E2C65
:10293A009F2CA82CAC09AD09AC0A0319AD0A0130C9
:10294A00FF007F08AF06B001B1012A082B04031962
:10295A00AF2CB02CE72CAE01AE0ABE2C013003100E
:10296A00AA0DAB0DFF3E031DB42C0130FF007F08FA
:10297A00AE07AB1FC12CC22CB32C01300310B00D13
:10298A00B10DFF3E031DC32C2B082D02031DCF2CB6
:10299A002A082C02031CD22CD32CDA2C2A08AC02CB
:1029AA002B08031CAD03AD02301401300310AB0C2D
:1029BA00AA0CFF3E031DDB2C0130AE02031DE62CE0
:1029CA00E72CC22C2F080319EB2CEC2CF12CB009A4
:1029DA00B109B00A0319B10A3108AB003008AA00DC
:1029EA0008000B1DF92CFA2C612D0B113D308312B6
:1029FA00031381000130F7070318F80A0030F807BB
:102A0A00143077067804031D0B2D0C2D612DF70168
:102A1A00F801A8300A168A1126240A168A110130EA
:102A2A00F9070318FA0A0030FA0768307906031D15
:102A3A00222D7A03031D222D232D252DF901FA01BA
:102A4A000130F0000030F100831603172B08F30061
:102A5A002A08F2000A168A15AE270A168A110230C7
:102A6A00F0000030F100831603172D08F3002C083C
:102A7A00F2000A168A15AE270A168A110330F000E8
:102A8A000030F100831603172F08F3002E08F20016
:102A9A000A168A15AE270A168A110430F000003089
:102AAA00F100831603172908F3002808F2000A1612
:102ABA008A15AE270A168A1176088A0075088400D4
:102ACA00740E8300FE0E7E0E090003108312031398
:102ADA00220D230DA9002908031D742D752D7E2DA5
:102AEA000030A3000030A2000030A1000030A00096
:102AFA00E12D2008A4002108A5002208A600230829
:102B0A00A7001F300310A70CA60CA50CA40CFF3EAF
:102B1A00031D872D2408A800A217FF30A005FF3047
:102B2A00A105FF30A2050030A3059630A902A91F0E
:102B3A009F2DA02DBA2D2908803A973E0318A62D5D
:102B4A00A72DA82D752D01300310A30CA20CA10CE2
:102B5A00A00CFF3E031DA92D0130FF007F08A90725
:102B6A00031DB82DB92DA82DD12D20302902031C03
:102B7A00BF2DC02DCC2D752D0130A4000310A00D42
:102B8A00A10DA20DA30DA40BC32D0130A902290882
:102B9A00031DD02DD12DC12D28080319D52DD62DD1
:102BAA00E12DA009A109A209A309A00A0319A10AF2
:102BBA000319A20A0319A30A080083120313A8001F
:102BCA0028080319E92DEA2DFE2DA31FED2DEE2D60
:102BDA00FE2D2009AA002109AB002209AC00230915
:102BEA00AD00AA0A0319AB0A0319AC0A0319AD0A04
:102BFA00062E2308AD002208AC002108AB002008ED
:102C0A00AA002308220421042004031D0D2E0E2EDF
:102C1A00172E0030A3000030A2000030A1000030BF
:102C2A00A0009B2E9630A900272E0130FF007F08B6
:102C3A00A90701300310AD0CAC0CAB0CAA0CFF3E7B
:102C4A00031D1F2EFE302D05031D2C2E2D2E1A2E90
:102C5A00492E0130FF007F08A9070130AA0700307A
:102C6A0003180130AB07003003180130AC070030FD
:102C7A0003180130AD0701300310AD0CAC0CAB0CDE
:102C8A00AA0CFF3E031D412EFF302D05031D4E2EBB
:102C9A004F2E2E2E5B2E0130A9020130A400031004
:102CAA00AA0DAB0DAC0DAD0DA40B542EAC1B5E2EB4
:102CBA005F2E652E023029020318642E652E502ECF
:102CCA002918682E692E712EFF30AA05FF30AB0530
:102CDA007F30AC05FF30AD050310A90C2908A4000C
:102CEA00A501A601A70118300310A40DA50DA60D74
:102CFA00A70DFF3E031D792E2408AA042508AB045C
:102D0A002608AC042708AD04280803198D2E8E2E38
:102D1A00932EA31F912E922E932EAD172D08A3004A
:102D2A002C08A2002B08A1002A08A000080083167C
:102D3A000313860105120914891487140715091546
:102D4A000714871508148514051585150A168A119E
:102D5A00C3230A168A11831603130713871705104C
:102D6A00851207128712013088000230831203137A
:102D7A00D6000430D500B930D400D40BC22ED50BFE
:102D8A00C22ED60BC22EC92E83120313051201308E
:102D9A00A0000030A1000A168A1599270A168A117E
:102DAA0083120313210883160317AB00831203133C
:102DBA00200883160317AA00023083120313A00007
:102DCA000030A1000A168A1599270A168A11831259
:102DDA000313210883160317AD0083120313200877
:102DEA0083160317AC00033083120313A0000030CC
:102DFA00A1000A168A1599270A168A118312031343
:102E0A00210883160317AF008312031320088316C1
:102E1A000317AE00043083120313A0000030A10090
:102E2A000A168A1599270A168A118312031321088A
:102E3A0083160317A90083120313200883160317A6
:102E4A00A80083160313811281110115811401143C
:102E5A008B170B178B160A168A156A270A168A11F8
:102E6A0083120313A401A40A01300A168A111C232F
:102E7A000A168A11BD3083120313A5009030A600EA
:102E8A000A168A11D6220A168A1183120313A4017A
:102E9A00A40A02300A168A111C230A168A11DC3087
:102EAA0083120313A5009030A6000A168A11D622AF
:102EBA000A168A11113083120313A40002300A166B
:102ECA008A111C230A168A116F3083120313A50074
:102EDA009130A6000A168A11D6220A168A110630DD
:102EEA0083120313D6001330D500AD30D400D40BAF
:102EFA007C2FD50B7C2FD60B7C2F0A168A156A27B6
:102F0A000A168A110C308316031399000A168A11BD
:102F1A0075210A168A1183160317A601A7018316BB
:102F2A0003139F171F08F03904389F0083120313F5
:102F3A001F083F3980389F001F1487100911091094
:102F4A000711071089100130831603179200003009
:102F5A00930083160317A001A10183160317210802
:102F6A0083120313A1008316031720088312031385
:102F7A00A0000A168A1599270A168A1183120313C2
:102F8A00210883160313E50083120313200883160E
:102F9A000313E400640A6504031DD42FD52FE92F17
:102FAA0083160317210883120313A100831603173C
:102FBA00200883120313A0000030A200A3000A1203
:102FCA008A1503200A168A11013083160317A007EF
:102FDA000318A10A0030A1072108803AFF008030B7
:102FEA007F02031DFA2FFF302002031CFF2F0A1253
:062FFA008A15E52BB22F41
:103ED40000300A168A15C4270A168A1501300A16F4
:103EE4008A15C4270A168A15080083120313A00032
:103EF40083160313981C7F2F802F7A2F83120313AA
:103F040020089900080083120313A100A0013A308D
:103F1400210203188E2F8F2F972F30302102031C7C
:103F2400942F952F972FA001A00A200C080083122C
:103F340003132008831203178D00831603170C1430
:103F4400831203170C0883120313A200A30122088F
:103F5400A0002308A10008007008831203178D0035
:103F640072088C00831603170C158B1355308D00C3
:103F7400AA308D008C148B170C118C18C22FC32FF0
:103F8400BF2F080083120313A300861223080A1606
:103F94008A15E0270A168A158312031306160630BB
:103FA40083120313A2002F30A100A10BD72FA20B61
:103FB400D72FDC2F83120313061208008312031376
:103FC400A000201CE62FE72FE92F8615EA2F861183
:103FD400A01CED2FEE2FF02F0615F12F0611201D3A
:103FE400F42FF52FF72F8614F82F8610A01DFB2F22
:0C3FF400FC2FFE2F0614FF2F0610080003
:02400E00793FF8
:00000001FF
