:060000000A128A110E280D
:10000800FE00030EF4000408F5000A08F6000A16BC
:100018008A11392D0A128A111128F801F901FA01F9
:10002800FB01FC01FD0183120313EE01EF018316AE
:100038000317A401A50183010A168A11DE2E0918E7
:1000480026282728EF2F07182A282B28EF2F89186A
:100058002E282F28EF2F831603179201930183125E
:1000680003138719382839285A2F08183C283D289F
:100078005A2FF430A7000130A8007908AA007808A0
:10008800A9000A168A11EB220A128A118312031395
:1000980027082804031D512852285828780879046D
:1000A800031D572858289028F430A7000130A800CD
:1000B8007908AA007808A9000A168A11EB220A1200
:1000C8008A118312031327032804031D6C286D2843
:1000D800732878037904031D722873289028F43054
:1000E800A7000130A8007908AA007808A9000A1614
:1000F8008A11EB220A128A1102308312031327068F
:100108002804031D882889289B280230780679044A
:1001180003198F2890289B287A087B04031D9528AB
:1001280096289B280A168A118C240A128A110130F3
:1001380083120313A0000030A1000A168A1134228A
:100148000A128A1183120313210883160313E50088
:1001580083120313200883160313E400023083126A
:100168000313A0000030A1000A168A1134220A12D3
:100178008A1183120313210883160313E7008312DD
:100188000313200883160313E600143083120313A5
:10019800AC009130AD008316031365088312031376
:1001A800AF0083160313640883120313AE0083168B
:1001B8000313670883120313B10083160313660839
:1001C80083120313B000B4300A128A15C4220A122B
:1001D8008A110A3083120313A40001300A168A1107
:1001E80040240A128A11D93083120313A5009030D3
:1001F800A6000A168A11B3230A128A110B30831239
:100208000313A40001300A168A1140240A128A1125
:10021800B43083120313A5000030A6000A168A1111
:10022800B3230A128A11831203131F08C73910381F
:100238009F000F3083120313D400D40B21292429E3
:10024800831203131F151F192A292B2927298316FF
:1002580003131E0883120313D400D5011E08D60009
:10026800D7015608D700D60154085604A0005508EF
:100278005704A100A201A11BA2032208A300013078
:100288000A128A153B200A128A11831203132308C3
:1002980083160313D500831203132208831603134E
:1002A800D40083120313210883160313D300831287
:1002B8000313200883160313D20044308312031358
:1002C800A3008030A2000030A1000030A0008316F7
:1002D8000313550883120313A70083160313540846
:1002E80083120313A6008316031353088312031300
:1002F800A50083160313520883120313A4000A12DD
:100308008A15F5200A128A1183120313230883160B
:100318000313D90083120313220883160313D8008A
:1003280083120313210883160313D70083120313C0
:10033800200883160313D600831203131F08C73936
:1003480018389F000F3083120313D400D40BAA2946
:10035800AD29831203131F151F19B329B429B02916
:100368001E0883160313E3001E08E20059088312CF
:100378000313BD0083160313580883120313BC002C
:1003880083160313570883120313BB008316031342
:10039800560883120313BA008316031362088312E4
:1003A8000313A00083160313630883120313A10029
:1003B8000030A11BFF30A200A30001300A128A15E9
:1003C8003B200A128A11831203132308C100220852
:1003D800C0002108BF002008BE000A128A15BB24ED
:1003E8000A128A11831203133D0883160313E100CE
:1003F800831203133C0883160313E00083120313CC
:100408003B0883160313DF00831203133A0883168D
:100418000313DE00403083120313BD004030BC00DC
:100428000030BB000030BA00831603136108831242
:100438000313C10083160313600883120313C0005B
:10044800831603135F0883120313BF008316031375
:100458005E0883120313BE000A128A15BB240A120F
:100468008A11831203133D08831603179F00831212
:1004780003133C08831603179E00831203133B08DB
:10048800831603179D00831203133A088316031774
:100498009C00E83083120313AA000330AB008316D4
:1004A80003171F0883120313A300831603171E08DC
:1004B80083120313A200831603171D088312031364
:1004C800A100831603171C0883120313A0000A1641
:1004D8008A1166260A128A11831203132108AD00B5
:1004E8002008AC000A168A11FD250A128A11831207
:1004F80003132B08831603179B00831203132A0880
:10050800831603179A00643083120313AA0000307D
:10051800AB00831603171F0883120313A300831667
:1005280003171E0883120313A200831603171D085E
:1005380083120313A100831603171C0883120313E5
:10054800A0000A168A1166260A128A11831203135A
:100558002008D4002108D5002208D6002308D70097
:10056800831603171B0883120313A10083160317AE
:100578001A0883120313A0001830A200FC30A3004D
:100588000A168A119B220A128A1183120313200861
:100598005407AC0021080318210A5507AD000A16B4
:1005A8008A11FD250A128A11831203132B08831658
:1005B80003179900831203132A0883160317980058
:1005C8000A3083120313AA000030AB008316031706
:1005D8001F0883120313A300831603171E08831230
:1005E8000313A200831603171D0883120313A10027
:1005F800831603171C0883120313A0000A168A1116
:1006080066260A128A11831203132008D4002108CF
:10061800D5002208D6002308D700831603171B0825
:1006280083120313A100831603171A0883120313F6
:10063800A0001830A200FC30A3000A168A119B22E1
:100648000A128A118312031320085407D8002108BC
:100658000318210A5507D9008316031719088312AE
:100668000313A10083160317180883120313A000AD
:100678009C30A200FF30A3000A168A119B220A129E
:100688008A118312031320085807AC0021080318A5
:10069800210A5907AD000A168A11FD250A128A1186
:1006A800831203132B0883160313E9008312031321
:1006B8002A0883160313E8000A3083120313AA00DA
:1006C8000030AB00831603171F0883120313A3001F
:1006D800831603171E0883120313A2008316031739
:1006E8001D0883120313A100831603171C08831225
:1006F8000313A0000A168A1166260A128A118312A9
:1007080003132108AD002008AC000A168A11DE2464
:100718000A128A11831203132B0883160313EB00A2
:10072800831203132A0883160313EA0083120313A0
:100738001F08C73908389F000F3083120313D400ED
:10074800D40BA42BA72B831203131F151F19AD2B32
:10075800AE2BAA2B831603131E0883120313D4008F
:10076800D5011E08D600D7015608D700D60154086F
:100778005604A00055085704A100A201A11BA2031A
:100788002208A30001300A128A153B200A128A1196
:100798008312031323088316031797008312031386
:1007A8002208831603179600831203132108831661
:1007B8000317950083120313200883160317940068
:1007C800831203130919E92BEA2B182C0718ED2BB0
:1007D800EE2B182C83160317170883120313A30094
:1007E80083160317160883120313A2008316031730
:1007F800150883120313A100831603171408831224
:100808000313A0000A168A1166260A128A11831297
:100818000313210D210C83160317A300831203135E
:10082800200C83160317A200443083120313BD0063
:100838007A30BC000030BB000030BA004430A3005E
:100848008030A2000030A1000030A00083160317FA
:10085800170883120313A7008316031716088312B9
:100868000313A60083160317150883120313A500A4
:1008780083160317140883120313A4000A128A1597
:10088800F5200A128A11831203132308C1002208D3
:10089800C0002108BF002008BE000A128A15BB2428
:1008A8000A128A11831203133D0883160313DD000D
:1008B800831203133C0883160313DC00831203130B
:1008C8003B0883160313DB00831203133A088316CD
:1008D8000313DA0083120313A401A40A02300A16D0
:1008E8008A1140240A128A111F3083120313A500AB
:1008F8009130A6000A168A11B3230A128A115F30B2
:1009080083120313AC009130AD00831603135D0806
:1009180083120313A300831603135C0883120313C3
:10092800A200831603135B0883120313A100831626
:1009380003135A0883120313A0000A168A116626A5
:100948000A128A11831203132108AF002008AE008F
:10095800EC300A128A15C4220A128A110A3083124C
:100968000313A40002300A168A1140240A128A11BD
:10097800EC3083120313A5000030A6000A168A1172
:10098800B3230A128A1183120313A401A40A0130A3
:100998000A168A1140240A128A116A308312031334
:1009A800A5009130A6000A168A11B3230A128A11EB
:1009B8003D3083120313AC009130AD00831603174A
:1009C8001B0883120313AF00831603171A08831238
:1009D8000313AE0083160317190883120313B1001B
:1009E80083160317180883120313B0008316031322
:1009F800690883120313B30083160313680883126C
:100A08000313B200831603136B0883120313B50094
:100A1800831603136A0883120313B400CD300A1235
:100A28008A15C4220A128A11053083120313A400FE
:100A380001300A168A1140240A128A11CD30831215
:100A48000313A5000030A6000A168A11B3230A1260
:100A58008A1183120313871C322D332D5A2D09183E
:100A6800362D372D3B2D091D3A2D3B2D5A2D0D3096
:100A7800A40002300A168A1140240A128A1147304B
:100A880083120313A5009130A6000A168A11B32316
:100A98000A128A11653083120313A1009130A20053
:100AA8000A168A1127230A128A11392F091D5D2D6A
:100AB8005E2D622D0918612D622D6A2D091D652D87
:100AC800662DC02D8918692D6A2DC02D0D30A40002
:100AD80002300A168A1140240A128A112930831218
:100AE8000313A5009130A6000A168A11B3230A122F
:100AF8008A110330831603172302203003192202B8
:100B08000318872D882D392F5030A2070318A30A00
:100B18000030A30703302302213003192202031CEB
:100B2800962D972D9B2D2030A2000330A30059301D
:100B380083120313AC009130AD008316031723080A
:100B480083120313AF0083160317220883120313BB
:100B5800AE00BD300A128A15C4220A128A11BD30AD
:100B680083120313A1000030A2000A168A1127235A
:100B78000A128A11392F392F091CC32DC42DFB2DB8
:100B88000D30A40002300A168A1140240A128A1174
:100B9800CD3083120313A5009030A6000A168A11DF
:100BA800B3230A128A11593083120313AC0091300F
:100BB800AD0083160317230883120313AF008316AF
:100BC8000317220883120313AE005A300A128A153B
:100BD800C4220A128A115A3083120313A10000306A
:100BE800A2000A168A1127230A128A11392F071D13
:100BF800FE2DFF2D262E8918022E032E072E071CE8
:100C0800062E072E262E0D30A40002300A168A1151
:100C180040240A128A11503083120313A500913020
:100C2800A6000A168A11B3230A128A1165308312A4
:100C38000313A1009130A2000A168A1127230A1271
:100C48008A11392F071C292E2A2E2E2E89182D2E6F
:100C58002E2E362E071C312E322EC72E0918352E71
:100C6800362EC72E0D30A40002300A168A114024F1
:100C78000A128A11333083120313A5009130A6009B
:100C88000A168A11B3230A128A1183160317220936
:100C980083120313D4008316031723098312031343
:100CA800D500D40A0319D50A540883160317A000DF
:100CB80083120313550883160317A1002108803AED
:100CC800FF007C307F02031D6B2EE1302002031CE5
:100CD8006E2E6F2EBF2DB03083160317A007031892
:100CE800A10AFF30A1072108803AFF007C307F026B
:100CF800031D802EE03020020318832E842E8A2EB6
:100D0800E03083160317A000FC30A10083160317F8
:100D1800200983120313D4008316031721098312B1
:100D28000313D500D40A0319D50A540883160317E8
:100D3800A20083120313550883160317A300593022
:100D480083120313AC009130AD00831603172108FA
:100D580083120313AF0083160317200883120313AB
:100D6800AE00C5300A128A15C4220A128A11C5308B
:100D780083120313A1000030A2000A168A11272348
:100D88000A128A11392F891CCA2ECB2E1B2F0D301F
:100D9800A40002300A168A1140240A128A11EB3084
:100DA80083120313A5009030A6000A168A11B323F4
:100DB8000A128A1183160317220983120313D40017
:100DC80083160317230983120313D500D40A0319C2
:100DD800D50A540883160317900083120313550885
:100DE800831603179100593083120313AC00913016
:100DF800AD0083160317110883120313AF0083167F
:100E08000317100883120313AE00A0300A128A15C4
:100E1800C4220A128A11A03083120313A1000030E1
:100E2800A2000A168A1127230A128A11392F0D30B7
:100E3800A40002300A168A1140240A128A110730C7
:100E480083120313A5009130A6000A168A11B32352
:100E58000A128A11653083120313A1009130A2008F
:100E68000A168A1127230A128A1183120313871C70
:100E78003E2F3F2F4B2F0918422F432F472F091D75
:100E8800462F472F4B2F831203130516EC2F071DF0
:100E98004E2F4F2F582F8918522F532F472F071C8B
:100EA800562F572F582F472F0512EC2F871D5D2FD0
:100EB8005E2FB42FA401A40A01300A168A11402417
:100EC8000A128A11373083120313A5009030A60046
:100ED8000A168A11B3230A128A1183120313A40172
:100EE800A40A02300A168A1140240A128A111C30F8
:100EF80083120313A5009030A6000A168A11B323A3
:100F08000A128A11653083120313A1009130A200DE
:100F18000A168A1127230A128A1183120313051647
:100F2800063083120313D6001330D500AD30D40039
:100F3800D40B9C2FD50B9C2FD60B9C2F83120313FD
:100F48000512103083120313D6003930D5000D3046
:100F5800D400D40BAD2FD50BAD2FD60BAD2F472F0B
:100F6800081CB72FB82FEC2F6530A1009130A200D4
:100F78000A168A1127230A128A1183120313A4015D
:100F8800A40A01300A168A1140240A128A1169300B
:100F980083120313A5009030A6000A168A11B32302
:100FA8000A128A1183120313A401A40A02300A1632
:100FB8008A1140240A128A11513083120313A500A2
:100FC8009030A6000A168A11B3230A128A11912FAB
:100FD8000A168A11B42F0A128A110E2883120313D3
:100FE800A00083160313981CFA2FFB2FF52F8312EA
:080FF800031320089900080012
:1010040083120313A40024080F39A2002408F03922
:10101400A30086162308A10004300310A10CFF3E90
:10102400031D0F2821080A168A117B220A128A1529
:101034008312031306160C3083120313A100A10BB1
:101044002128000083120313061222080A168A11AB
:101054007B220A128A158312031306160C3083129C
:101064000313A100A10B34280000831203130612FA
:10107400080083120313A8002808031942284328F0
:101084005728A31F4628472857282009AA002109C2
:10109400AB002209AC002309AD00AA0A0319AB0A6C
:1010A4000319AC0A0319AD0A5F282308AD0022080E
:1010B400AC002108AB002008AA0023082204210464
:1010C4002004031D6628672870280030A300003020
:1010D400A2000030A1000030A000F4289630A9003E
:1010E40080280130FF007F08A90701300310AD0CF0
:1010F400AC0CAB0CAA0CFF3E031D7828FE302D056A
:10110400031D852886287328A2280130FF007F0844
:10111400A9070130AA07003003180130AB070030DB
:1011240003180130AC07003003180130AD0701305B
:101134000310AD0CAC0CAB0CAA0CFF3E031D9A289B
:10114400FF302D05031DA728A8288728B4280130BF
:10115400A9020130A4000310AA0DAB0DAC0DAD0D16
:10116400A40BAD28AC1BB728B828BE28023029022E
:101174000318BD28BE28A9282918C128C228CA28AE
:10118400FF30AA05FF30AB057F30AC05FF30AD055D
:101194000310A90C2908A400A501A601A701183071
:1011A4000310A40DA50DA60DA70DFF3E031DD22807
:1011B4002408AA042508AB042608AC042708AD04B7
:1011C40028080319E628E728EC28A31FEA28EB28B7
:1011D400EC28AD172D08A3002C08A2002B08A100B1
:1011E4002A08A00008008312031327088039B100DD
:1011F4002708A8002807B800A61F012902290329E7
:10120400381438080319072908291829380A031D2E
:101214000C290D2915290030A7000030A600003044
:10122400A5000030A400A617A70120290030A700BC
:101234000030A6000030A5000030A4002308803947
:10124400FF007F08B1062308A8002807B900A21FE1
:101254002C292D292E293914390803193229332927
:101264004329390A031D3729382940290030A300AE
:101274000030A2000030A1000030A000A217A3019A
:101284004B290030A3000030A2000030A100003040
:10129400A0002308220421042004031D52295329F9
:1012A4006C290030A7000030A6000030A5000030F3
:1012B400A4008030A6047F30A7043108FF007F0813
:1012C400A7042708A3002608A2002508A1002408D3
:1012D400A000C32A3808031D702971297A29003017
:1012E400A3000030A2000030A1000030A000C32AF7
:1012F4003808A800A9012908AB0039082802AA0067
:10130400031CAB032A087F3EB2002B080318013EDE
:10131400003EB3002708B0002608AF002508AE0041
:101324002408AD000030A7000030A6000030A5005E
:101334000030A4000030B7000030B6000030B50023
:101344000030B400B901F02939080319AA29AB29DE
:10135400CB290130A8000310AD0DAE0DAF0DB00DBB
:10136400A80BAD290130A8000310A40DA50DA60DEE
:10137400A70DA80BB629B71FC029C129C229241457
:101384000130A8000310B40DB50DB60DB70DA80BB0
:10139400C42923083002031DD92922082F02031D62
:1013A400D92921082E02031DD92920082D02031C46
:1013B400DC29DD29EC2937172008AD022108031C9C
:1013C400210FAE022208031C220FAF022308031CC4
:1013D400230FB0020130FF007F08B9071A30390229
:1013E400031CF529F629A62930082F042E042D0400
:1013F4000319FD29FE291D2A34141D2A0130A800D1
:101404000310A40DA50DA60DA70DA80B022AB71F46
:101414000C2A0D2A0E2A24140130A8000310B40D3E
:10142400B50DB60DB70DA80B102AFF30B20703187F
:10143400B30AFF30B307A61F202A212A002AB901C4
:10144400B71F252A262A422AFF303405A800FF3078
:101454003505A900FF303605AA007F303705AB00FB
:101464002B082A04290428040319392A3A2A3D2A74
:10147400B901B90A422A241C402A412A422A3A2A9A
:1014840039080319462A472A782A0130A40700306C
:1014940003180130A507003003180130A6070030F7
:1014A40003180130A707271C582A592A782A240828
:1014B400A8002508A9002608AA002708AB000130C7
:1014C400AC002B0DAB0CAA0CA90CA80CAC0B632A1A
:1014D4002B08A7002A08A6002908A5002808A400AC
:1014E4000130B2070318B30A0030B3073308803A57
:1014F400FF0080307F02031D812AFF303202031C6B
:10150400842A852A932AFF3083120313B200003001
:10151400B3000030A7000030A6000030A500003062
:10152400A400831203133308803AFF0080307F0243
:10153400031D9E2A013032020318A12AA22AAF2ACF
:1015440083120313B201B3010030A7000030A600D8
:101554000030A5000030A400B10183120313320847
:10156400B800381CB62AB72AB92AA617BD2A7F3074
:10157400FF007F08A6053808A8000310280CA70060
:101584005F29080083120313C2002E30BB00A02C75
:10159400253041060319CF2AD02ADA2A42088400CA
:1015A4004108831380000130FF007F08C207A02C8C
:1015B400BF01C001BE01E52A3E150130AC07031886
:1015C400AD0A0030AD072D08FF002C0884000A1670
:1015D4008A1100200A128A15B600B7013708003AAA
:1015E4000319F52AFA2A3608303A0319DE2AFA2AA8
:1015F4002D08FF002C0884000A168A1100200A1204
:101604008A150A168A1120220A128A15031C0B2B2A
:101614000C2B552B83120313BF01C0010A30831214
:101624000313A0000030A1004008A3003F08A2005B
:101634000A168A119B220A128A158312031321089F
:10164400C0002008BF002D08FF002C0884000A16E3
:101654008A1100200A128A15D03EB600FF30031802
:101664000030B7003608BF070318C00A3708C007A0
:101674000130AC070318AD0A0030AD072D08FF0098
:101684002C0884000A168A1100200A128A150A16E8
:101694008A1120220A128A150318512B522B102B5F
:1016A400552B3E177D2B831203132D08B7002C08EE
:1016B400B600AC0A0319AD0A3708FF0036088400E7
:1016C4000A168A1100200A128A15C100B800B9014D
:1016D4003908003A03196F2BA02C3808003A031973
:1016E400B62C643A03197D2B0D3A03197D2B1C3A51
:1016F4000319532BA02C3E1B802B812B9B2B3B08C7
:10170400840083130008BC00840A0008BD00023072
:10171400FF007F08BB07BD1F902B912BA72B033025
:10172400FF007F08BE04BC09BD09BC0A0319BD0A39
:10173400A72B3B08840083130008BC00840A00081C
:10174400BD000230FF007F08BB07C101C10A410888
:10175400B6003607123E840090300318013EFF00A5
:101764000A168A1100200A128A15B7000A168A116D
:1017740000200A128A15B80038083D02031DC42B44
:1017840037083C020318C72BC82BC92BD32B0130B5
:10179400FF007F08C10705304106031DD22BD32B60
:1017A400A92B3F0840040319D82BD92BE52B3E085D
:1017B40003390319DE2BDF2BE52BFF30BF0703189A
:1017C400C00AFF30C0074008803A803C031DEC2B60
:1017D4003F0841020318EF2BF02BFC2B8312031359
:1017E4004108B600B7013608BF023708031CC0031E
:1017F400C002002C83120313BF01C0013E1D032C41
:10180400042C2F2C3E0803390319092C0A2C132C01
:10181400420884002D30831380000130FF007F08CC
:10182400C2073F0840040319182C192C592C4208EC
:1018340084003030831380000130FF007F08C2072A
:10184400FF30BF070318C00AFF30C0073F08400439
:10185400031D2D2C2E2C192C592C3F084004031940
:10186400342C352C4A2C4208840020308313800009
:101874000130FF007F08C207FF30BF070318C00A0A
:10188400FF30C0073F084004031D492C4A2C352C67
:101894003E08033903194F2C502C592C420884005C
:1018A4002D30831380000130FF007F08C2074108F8
:1018B400BA00972C0A30A7000030A8003A08B600F6
:1018C4003607123E840090300318013EFF000A16CA
:1018D4008A1100200A128A15A0000A168A11002013
:1018E4000A128A15A1003D08A3003C08A2000A16AA
:1018F4008A116D230A128A15831203132108AA0080
:101904002008A9000A168A11EB220A128A158312EA
:1019140003132708303EC1004208840041088313A2
:1019240080000130FF007F08C207FF30FF007F08FE
:10193400BA073A0A031D9F2CA02C5C2C2D08B70073
:101944002C08B600AC0A0319AD0A3708FF003608A4
:1019540084000A168A1100200A128A15C10041085F
:10196400031DB52CB62CCA2A4208840083138001B7
:101974000800831203133D088039C7003D08C200E4
:101984004207CD00BC1FC72CC82CC92C4D144D08D0
:101994000319CD2CCE2CDD2C4D0A031DD22CD32CB7
:1019A400DB2C0030BD000030BC000030BB00003038
:1019B400BA00BC17E52C0030BD000030BC0000307C
:1019C400BB000030BA0041088039FF007F08C70619
:1019D4004108C2004207CC00C01FF12CF22CF32CAA
:1019E4004C144C080319F72CF82C072D4C0A031D32
:1019F400FC2CFD2C052D0030C1000030C00000304F
:101A0400BF000030BE00C0170F2D0030C1000030F1
:101A1400C0000030BF000030BE004C080319132D75
:101A2400142D192D4D08031D182D192D222D0030AC
:101A3400BD000030BC000030BB000030BA00FF2FF6
:101A44003A08A00040080A168A11C2220A128A150E
:101A5400831203132108D3002008D2005208C200C5
:101A6400C301C401C5014508CB004408CA004308AA
:101A7400C9004208C8005308C200C301C401C5011B
:101A84004508D1004408D0004308CF004208CE00E6
:101A94003B08A0003F080A168A11C2220A128A15BE
:101AA400831203132108D3002008D2005208C20075
:101AB400C301C401C5014208C80743080311031840
:101AC400013E0319662DC907440803110318013E9A
:101AD40003196D2DCA07450803110318013E0319A4
:101AE400742DCB075308C200C301C401C5014208C9
:101AF400CE07430803110318013E0319822DCF07B3
:101B0400440803110318013E0319892DD007450821
:101B140003110318013E0319902DD1073C08A000BE
:101B24003E080A168A11C2220A128A158312031366
:101B34002108D3002008D2005208C200C301C40106
:101B4400C5014208C807430803110318013E0319DD
:101B5400AC2DC907440803110318013E0319B32D22
:101B6400CA07450803110318013E0319BA2DCB0710
:101B74005308C200C301C401C5014208CE0743088B
:101B840003110318013E0319C82DCF07440803119C
:101B94000318013E0319CF2DD0074508031103187C
:101BA400013E0319D62DD1070830C2000310C80D19
:101BB400C90DCA0DCB0DC20BD82D3B08A0003E08A1
:101BC4000A168A11C2220A128A15831203132108E3
:101BD400D3002008D2005208C2005308C300C40135
:101BE400C5014208C807430803110318013E03193D
:101BF400FC2DC907440803110318013E0319032EE1
:101C0400CA07450803110318013E03190A2ECB071E
:101C14003A08A0003F080A168A11C2220A128A153D
:101C2400831203132108D3002008D2005208C200F3
:101C34005308C300C401C5014208C807430803117F
:101C44000318013E0319272EC9074408031103187A
:101C5400013E03192E2ECA07450803110318013E3D
:101C64000319352ECB070830C2000310C80DC90D67
:101C7400CA0DCB0DC20B372E3A08A0003E080A1637
:101C84008A11C2220A128A15831203132108D3006F
:101C94002008D2005208C2005308C300C401C50181
:101CA4004208C807430803110318013E03195B2EB9
:101CB400C907440803110318013E0319622ECA0719
:101CC400450803110318013E0319692ECB073B088D
:101CD400A00040080A168A11C2220A128A15831229
:101CE40003132108D3002008D2005208C20053086D
:101CF400C300C401C5014208CE07430803110318F9
:101D0400013E0319862ECF07440803110318013E30
:101D140003198D2ED007450803110318013E03193A
:101D2400942ED1073C08A0003F080A168A11C2224B
:101D34000A128A15831203132108D3002008D20043
:101D44005208C2005308C300C401C5014208CE07AB
:101D5400430803110318013E0319B12ECF074408A9
:101D640003110318013E0319B82ED00745080311C7
:101D74000318013E0319BF2ED1073C08A0004008F8
:101D84000A168A11C2220A128A1583120313210821
:101D9400D3002008D2005208C2005308C300C40173
:101DA400C50108300310C20DC30DC40DC50DFF3E9F
:101DB400031DD42E4208CE07430803110318013E25
:101DC4000319E52ECF07440803110318013E031934
:101DD400EC2ED007450803110318013E0319F32E16
:101DE400D1074808C2004908C3004A08C4004B0888
:101DF400C50018300310C50CC40CC30CC20CFF3E44
:101E0400031DFC2E4208CE07430803110318013EAC
:101E140003190D2FCF07440803110318013E0319BA
:101E2400142FD007450803110318013E03191B2F73
:101E3400D1070830C2000310C80DC90DCA0DCB0D5F
:101E4400C20B1D2F4D084C07C200C301C30D42082D
:101E5400823ED20043080318013EFF3ED3004F2FB9
:101E64000130C2000310CE0DCF0DD00DD10DC20B29
:101E7400342FCB1F3E2F3F2F402F4E140130C20072
:101E84000310C80DC90DCA0DCB0DC20B422FFF3074
:101E9400D2070318D30AFF30D307D01F522F532F72
:101EA400322FCC01CB1F572F582F742FFF304805EA
:101EB400C200FF304905C300FF304A05C4007F302B
:101EC4004B05C500450844044304420403196B2F21
:101ED4006C2F6F2FCC01CC0A742F4E1C722F732FD2
:101EE400742F6C2F4C080319782F792FAA2F0130E7
:101EF400CE07003003180130CF070030031801303B
:101F0400D007003003180130D107511C8A2F8B2FC2
:101F1400AA2F4E08C2004F08C3005008C40051083D
:101F2400C5000130C600450DC50CC40CC30CC20C61
:101F3400C60B952F4508D1004408D0004308CF00B4
:101F44004208CE000130D2070318D30A0030D30769
:101F54005308803AFF0080307F02031DB32FFF3007
:101F64005202031CB62FB72FC22F7F3083120313E4
:101F7400D1008030D0000030CF000030CE00F32FED
:101F8400831203135308803AFF0080307F02031D3D
:101F9400CD2F013052020318D02FD12FDD2F003066
:101FA40083120313D1000030D0000030CF00003082
:101FB400CE00C701F32F831203135208CD00FF3064
:101FC400CE05FF30CF057F30D0050030D1054D1C44
:101FD400EC2FED2FEE2FD0174D08C2000310420C4A
:101FE400D1004708FF007F08D1045108BD00500804
:101FF400BC004F08BB004E08BA000800FF1B0A28AB
:1020040083137F1883170008840A0319FF0A080042
:102014007F087F398A000408840A0319FF0A8200B2
:10202400013400340A34003464340034E8340334B2
:102034001034273420342034203449344C3445348B
:1020440052344C3445344D344534203448344134CE
:10205400543441345334493420342034203420342B
:1020640020342034203420340034203420342034EC
:1020740046344534453444342034523441345434A1
:10208400453420344534523452344F34523420349D
:1020940020342034203420342034203400342034BC
:1020A4002034203444344F344E344D3445342034B9
:1020B4004834413454344134533449342034203482
:1020C400203420342034203420342034003420348C
:1020D4002034203452344F34543441345434493449
:1020E4004F344E3420344534523452344F34523405
:1020F400203420342034203420342034003450342C
:1021040055345434203449345434203449344E340E
:102114002034533454344F345034203453345434EE
:102124004134543445340034533454344F345034EB
:10213400203444345534523455344D3455344E34AB
:10214400413420344734453454344934523400340F
:102154005934413447342034423441344B344934C3
:102164004D344934203459344134503449344E3494
:1021740049345A34003455345A344D3441344E348D
:102184004C344134523420344D3441344B3449348A
:102194004E344134003420344634573444342034EB
:1021A400203420342034203420342034203420348B
:1021B400203400347734773477342E3462346F34F7
:1021C4007234763465346B342E3463346F346D3446
:1021D40000342034523445345734203420342034ED
:1021E40020342034203420342034203400344F343C
:1021F40049344C342034543448344534203447343E
:102204004534413452345334003420345334543438
:102214004F345034203420342034203420342034BB
:10222400203400342534353475346834203425346E
:102234003034323475346D340034463465346534A6
:10224400643452346134743465343A3400342034A0
:10225400463457344434203431342E3436344B34F9
:1022640000342034523445345734203431342E343D
:1022740036344B34003425347534253475342534E0
:1022840075342E34253475340034203446345734B0
:10229400443420344C344D345434003420345234D7
:1022A4004534573420344C344D345434003473346E
:1022B400253464340D340A34003425343034303455
:1022C400333475340034733430340D340A34003408
:1022D400523450344D343A340034563433340034A8
:1024060000300A168A115F220A168A1101300A164E
:102416008A115F220A168A110800243083160313D4
:10242600980090308312031398000C308316031320
:102436009900831203139901080083120313A10064
:10244600A0013A3021020318292A2A2A322A3030DA
:102456002102031C2F2A302A322AA001A00A200CAE
:102466000800831203132008831203178D008316B6
:1024760003170C14831203170C0883120313A2000C
:10248600A3012208A0002308A100080070088312F7
:1024960003178D0072088C00831603170C158B1317
:1024A60055308D00AA308D008C148B170C118C18AA
:1024B6005D2A5E2A5A2A080083120313A300861295
:1024C60023080A168A117B220A168A11831203131D
:1024D6000616063083120313A2002F30A100A10BAB
:1024E600722AA20B722A772A831203130612080095
:1024F60083120313A000201C812A822A842A8615AF
:10250600852A8611A01C882A892A8B2A06158C2AD8
:102516000611201D8F2A902A922A8614932A861045
:10252600A01D962A972A992A06149A2A06100800A8
:1025360083120313A401A501201CA22AA32AA92AF7
:102546002208A4070318A50A2308A50701300310CB
:10255600A20DA30DFF3E031DAA2A01300310A10CF4
:10256600A00CFF3E031DB12A20082104031DBC2A2E
:10257600BD2A9F2A2508A1002408A000080083126E
:102586000313A800A401A5012008A200A3012208A4
:10259600A6002308A700281CD12AD22AD82A260852
:1025A600A4070318A50A2708A50701300310A60DDE
:1025B600A70DFF3E031DD92A0310A80C2808031DEA
:1025C600E52AE62ACE2A2508A1002408A00008004C
:1025D60083120313270828040319F22AF32A222B4D
:1025E600AB01AB0A012B01300310A70DA80DFF3E6E
:1025F600031DF72A0130FF007F08AB07A81F042B35
:10260600052BF62A28082A02031D0B2B2708290268
:10261600031C0E2B0F2B152B2708A9022808031CB9
:10262600AA03AA0201300310A80CA70CFF3E031D43
:10263600162B0130AB02031D212B222B052B2A085A
:10264600A8002908A700080083120313A601A70102
:10265600502B26082107A4002208A3000318A30A6A
:10266600A61F362BA303831203132308A5002508F0
:10267600FF00240884000A168A1100200A168A110F
:102686000A128A11F2270A168A11013083120313DD
:10269600A6070318A70A0030A70726082107A400E3
:1026A6002208A3000318A30AA61F5A2BA30383120A
:1026B60003132308A5002508FF00240884000A1632
:1026C6008A1100200A168A11003A031D6B2B6C2B07
:1026D6002C2B080083120313A401A5012008210452
:1026E6000319762B772BAE2BA601A60A852B013074
:1026F6000310A00DA10DFF3E031D7B2B0130FF0033
:102706007F08A607A11F882B892B7A2B013003107F
:10271600A40DA50DFF3E031D8A2B21082302031DD0
:10272600962B20082202031C992B9A2BA12B2008FA
:10273600A2022108031CA303A302241401300310E0
:10274600A10CA00CFF3E031DA22B0130A602031D07
:10275600AD2BAE2B892B2508A1002408A00008006C
:1027660083120313AA01AB01DC2B2A082507A80054
:102776002608A7000318A70AAA1FC22BA7038312BD
:1027860003132708A9002908FF00280884000A1651
:102796008A1100200A168A110A128A1502200A16C0
:1027A6008A11013083120313AA070318AB0A0030FB
:1027B600AB072A082507A8002608A7000318A70ABA
:1027C600AA1FE62BA703831203132708A9002908CB
:1027D600FF00280884000A168A1100200A168A11AA
:1027E600003A031DF72BF82BB82B0800F2007208ED
:1027F600043E840001308007840A0318800A7208A8
:10280600043E84000008F000840A0008F10000304D
:1028160071023C3003197002031C122C132C3F2C3E
:102826007208043E84008001840A80017208023E18
:10283600840001308007840A0318800A7208023E69
:1028460084000008F000840A0008F10000307102DC
:102856003C3003197002031C312C322C3F2C7208B9
:10286600023E84008001840A8001720884000130DF
:102876008007840A0318800A080083120313A6003F
:102886002603031D472C482C672C24087F3EA900ED
:102896002908A50004300310A50CFF3E031D4E2C8D
:1028A6002508A70029080F39A80027080A168A1143
:1028B6005F220A168A118312031328080A168A1140
:1028C6005F220A168A118B2C02302606031D6C2CF9
:1028D6006D2C8B2C2408BF3EA9002908A5000430C6
:1028E6000310A50CFF3E031D732C2508A70029081D
:1028F6000F39A80027080A168A115F220A168A11BC
:102906008312031328080A168A115F220A168A11EF
:1029160008000A168A1103220A168A118312031363
:10292600AC01AD0183120313A401A40A01300A16F7
:102936008A1140240A168A11AA3083120313A500AD
:102946009030A6000A168A11B3230A168A1183123A
:102956000313A401A40A02300A168A1140240A1697
:102966008A11F93083120313A5009030A6000A16C7
:102976008A11B3230A168A1183120313051601302E
:10298600AC070318AD0A0030AD072D08803AFF00EA
:1029960080307F02031DD12C0A302C02031CD42C5C
:1029A600D52C952C0A168A1103220A168A1183122F
:1029B60003130512080083120313AF01AD1FE42CA5
:1029C600E52CEC2CAC09AD09AC0A0319AD0AAF0134
:1029D600AF0AAB1FEF2CF02CF52CAA09AB09AA0AFB
:1029E6000319AB0A2A082B040319FA2CFB2C2A2DEF
:1029F600AE01AE0A092D01300310AA0DAB0DFF3E44
:102A0600031DFF2C0130FF007F08AE07AB1F0C2D06
:102A16000D2DFE2C2B082D02031D132D2A082C022A
:102A2600031C162D172D1D2D2A08AC022B08031C7E
:102A3600AD03AD0201300310AB0CAA0CFF3E031D23
:102A46001E2D0130AE02031D292D2A2D0D2D2F0816
:102A560003192E2D2F2D342DAC09AD09AC0A0319FF
:102A6600AD0A2D08AB002C08AA0008000B1D3C2D52
:102A76003D2D912D0B113D30831203138100013042
:102A8600EE070318EF0A0030EF073C306E066F04BE
:102A9600031D4E2D4F2D512DEE01EF017808F70045
:102AA600013083160317A4070318A50A0030A507EB
:102AB600143024062504031D612D622D912DA401D9
:102AC600A50178300A168A11F9230A168A110130EF
:102AD600F0000030F1007908F3007808F2000A16D9
:102AE6008A1149220A168A110230F0000030F100DC
:102AF6007B08F3007A08F2000A168A1149220A16A0
:102B06008A110330F0000030F1007D08F3007C08E4
:102B1600F2000A168A1149220A168A1176088A00D4
:102B260075088400740E8300FE0E7E0E09000030C8
:102B36000A168A117B220A168A111A308312031387
:102B4600A500F730A400A40BA62DA50BA62DAB2D32
:102B560003300A168A115F220A168A110730831279
:102B66000313A5007C30A400A40BB72DA50BB72D2D
:102B7600000003300A168A115F220A168A110F30E6
:102B860083120313A5004730A400A40BC82DA50B80
:102B9600C82D03300A168A115F220A168A110230DE
:102BA6000A168A115F220A168A1102300A168A113B
:102BB6005F220A168A1108300A168A115F220A163F
:102BC6008A1100300A168A115F220A168A110C3001
:102BD6000A168A115F220A168A1100300A168A110D
:102BE6005F220A168A1106300A168A115F220A1611
:102BF6008A11080083120313AF01AB1F032E042EA4
:102C06000B2EAA09AB09AA0A0319AB0AAF01AF0A30
:102C1600AD1F0E2E0F2E182EAC09AD09AC0A0319E6
:102C2600AD0A0130FF007F08AF06B001B1012A08E6
:102C36002B0403191F2E202E572EAE01AE0A2E2E60
:102C460001300310AA0DAB0DFF3E031D242E0130EB
:102C5600FF007F08AE07AB1F312E322E232E013028
:102C66000310B00DB10DFF3E031D332E2B082D02B0
:102C7600031D3F2E2A082C02031C422E432E4A2EE9
:102C86002A08AC022B08031CAD03AD023014013038
:102C96000310AB0CAA0CFF3E031D4B2E0130AE02F7
:102CA600031D562E572E322E2F0803195B2E5C2E2F
:102CB600612EB009B109B00A0319B10A3108AB0097
:102CC6003008AA000800031083120313220D230DF7
:102CD600A9002908031D702E712E7A2E0030A3003C
:102CE6000030A2000030A1000030A000DD2E200838
:102CF600A4002108A5002208A6002308A7001F306B
:102D06000310A70CA60CA50CA40CFF3E031D832ED6
:102D16002408A800A217FF30A005FF30A105FF3048
:102D2600A2050030A3059630A902A91F9B2E9C2E52
:102D3600B62E2908803A973E0318A22EA32EA42E5B
:102D4600712E01300310A30CA20CA10CA00CFF3EA7
:102D5600031DA52E0130FF007F08A907031DB42E11
:102D6600B52EA42ECD2E20302902031CBB2EBC2E40
:102D7600C82E712E0130A4000310A00DA10DA20DC6
:102D8600A30DA40BBF2E0130A9022908031DCC2ECA
:102D9600CD2EBD2E28080319D12ED22EDD2EA00948
:102DA600A109A209A309A00A0319A10A0319A20AE3
:102DB6000319A30A080083160313860105120914D2
:102DC600891487140715091507148715081485141F
:102DD600051585150A168A119A250A168A1183166B
:102DE6000313071387170510851207128712013080
:102DF6008800023083120313D6000430D500B930A0
:102E0600D400D40B042FD50B042FD60B042F0B2F75
:102E16008312031305120130A0000030A1000A1628
:102E26008A1134220A168A11831203132108F90023
:102E36002008F8000230A0000030A1000A168A110E
:102E460034220A168A11831203132108FB00200874
:102E5600FA008316031381128111011581140114DE
:102E66008B170B178B160A168A1103220A168A115C
:102E760083120313A401A40A01300A168A114024FE
:102E86000A168A11BD3083120313A5009030A600DE
:102E96000A168A11B3230A168A1183120313A40190
:102EA600A40A02300A168A1140240A168A11DC3056
:102EB60083120313A5009030A6000A168A11B323C5
:102EC6000A168A11113083120313A40002300A165F
:102ED6008A1140240A168A116F3083120313A50043
:102EE6009130A6000A168A11B3230A168A110630F3
:102EF60083120313D6001330D500AD30D400D40BA3
:102F0600822FD50B822FD60B822F0A168A11032207
:102F16000A168A110C308316031399000A168A11B1
:102F260010220A168A1183160317A201A30183161B
:102F360003139F171F08F03904389F0083120313E9
:102F46001F083F3980389F001F1487100911091088
:102F560007110710891001308316031792000030FD
:102F6600930083160317120813040319BB2FBE2FF1
:102F76000A128A11332883120313A401A40A01300A
:102F86000A168A1140240A168A11963083120313F0
:102F9600A5009030A6000A168A11B3230A168A11D4
:102FA60083120313A401A40A02300A168A114024CC
:102FB6000A168A11813083120313A5009030A600E9
:102FC6000A168A11B3230A168A11033083120313D1
:102FD600D6008A30D5005530D400D40BF02FD50B4F
:102FE600F02FD60BF02F831203130919FD2F0A12A7
:0A2FF6008A1123280A128A11EF2F16
:02400E00793FF8
:00000001FF
